{
	"https://github.com/mrdavey/ez-flashloan/blob/remix/contracts/utils/Withdrawable.sol": {
		"Withdrawable": {
			"abi": [
				{
					"constant": false,
					"inputs": [
						{
							"name": "_assetAddress",
							"type": "address"
						}
					],
					"name": "withdraw",
					"outputs": [],
					"payable": false,
					"stateMutability": "nonpayable",
					"type": "function"
				},
				{
					"constant": false,
					"inputs": [],
					"name": "renounceOwnership",
					"outputs": [],
					"payable": false,
					"stateMutability": "nonpayable",
					"type": "function"
				},
				{
					"constant": true,
					"inputs": [],
					"name": "owner",
					"outputs": [
						{
							"name": "",
							"type": "address"
						}
					],
					"payable": false,
					"stateMutability": "view",
					"type": "function"
				},
				{
					"constant": true,
					"inputs": [],
					"name": "isOwner",
					"outputs": [
						{
							"name": "",
							"type": "bool"
						}
					],
					"payable": false,
					"stateMutability": "view",
					"type": "function"
				},
				{
					"constant": false,
					"inputs": [
						{
							"name": "newOwner",
							"type": "address"
						}
					],
					"name": "transferOwnership",
					"outputs": [],
					"payable": false,
					"stateMutability": "nonpayable",
					"type": "function"
				},
				{
					"anonymous": false,
					"inputs": [
						{
							"indexed": true,
							"name": "_from",
							"type": "address"
						},
						{
							"indexed": true,
							"name": "_assetAddress",
							"type": "address"
						},
						{
							"indexed": false,
							"name": "amount",
							"type": "uint256"
						}
					],
					"name": "LogWithdraw",
					"type": "event"
				},
				{
					"anonymous": false,
					"inputs": [
						{
							"indexed": true,
							"name": "previousOwner",
							"type": "address"
						},
						{
							"indexed": true,
							"name": "newOwner",
							"type": "address"
						}
					],
					"name": "OwnershipTransferred",
					"type": "event"
				}
			],
			"devdoc": {
				"methods": {
					"isOwner()": {
						"details": "Returns true if the caller is the current owner."
					},
					"owner()": {
						"details": "Returns the address of the current owner."
					},
					"renounceOwnership()": {
						"details": "Leaves the contract without owner. It will not be possible to call `onlyOwner` functions anymore. Can only be called by the current owner.     * NOTE: Renouncing ownership will leave the contract without an owner, thereby removing any functionality that is only available to the owner."
					},
					"transferOwnership(address)": {
						"details": "Transfers ownership of the contract to a new account (`newOwner`). Can only be called by the current owner."
					},
					"withdraw(address)": {
						"details": "Withdraw asset.",
						"params": {
							"_assetAddress": "Asset to be withdrawn."
						}
					}
				}
			},
			"evm": {
				"assembly": "    /* \"https://github.com/mrdavey/ez-flashloan/blob/remix/contracts/utils/Withdrawable.sol\":383:1257  contract Withdrawable is Ownable {... */\n  mstore(0x40, 0x80)\n    /* \"https://github.com/OpenZeppelin/openzeppelin-contracts/blob/release-v2.5.0/contracts/ownership/Ownable.sol\":698:715  address msgSender */\n  0x00\n    /* \"https://github.com/OpenZeppelin/openzeppelin-contracts/blob/release-v2.5.0/contracts/ownership/Ownable.sol\":718:730  _msgSender() */\n  tag_5\n    /* \"https://github.com/OpenZeppelin/openzeppelin-contracts/blob/release-v2.5.0/contracts/ownership/Ownable.sol\":718:728  _msgSender */\n  shl(0x20, tag_6)\n    /* \"https://github.com/OpenZeppelin/openzeppelin-contracts/blob/release-v2.5.0/contracts/ownership/Ownable.sol\":718:730  _msgSender() */\n  0x20\n  shr\n  jump\t// in\ntag_5:\n    /* \"https://github.com/OpenZeppelin/openzeppelin-contracts/blob/release-v2.5.0/contracts/ownership/Ownable.sol\":698:730  address msgSender = _msgSender() */\n  swap1\n  pop\n    /* \"https://github.com/OpenZeppelin/openzeppelin-contracts/blob/release-v2.5.0/contracts/ownership/Ownable.sol\":749:758  msgSender */\n  dup1\n    /* \"https://github.com/OpenZeppelin/openzeppelin-contracts/blob/release-v2.5.0/contracts/ownership/Ownable.sol\":740:746  _owner */\n  0x00\n  dup1\n    /* \"https://github.com/OpenZeppelin/openzeppelin-contracts/blob/release-v2.5.0/contracts/ownership/Ownable.sol\":740:758  _owner = msgSender */\n  0x0100\n  exp\n  dup2\n  sload\n  dup2\n  0xffffffffffffffffffffffffffffffffffffffff\n  mul\n  not\n  and\n  swap1\n  dup4\n  0xffffffffffffffffffffffffffffffffffffffff\n  and\n  mul\n  or\n  swap1\n  sstore\n  pop\n    /* \"https://github.com/OpenZeppelin/openzeppelin-contracts/blob/release-v2.5.0/contracts/ownership/Ownable.sol\":806:815  msgSender */\n  dup1\n    /* \"https://github.com/OpenZeppelin/openzeppelin-contracts/blob/release-v2.5.0/contracts/ownership/Ownable.sol\":773:816  OwnershipTransferred(address(0), msgSender) */\n  0xffffffffffffffffffffffffffffffffffffffff\n  and\n    /* \"https://github.com/OpenZeppelin/openzeppelin-contracts/blob/release-v2.5.0/contracts/ownership/Ownable.sol\":802:803  0 */\n  0x00\n    /* \"https://github.com/OpenZeppelin/openzeppelin-contracts/blob/release-v2.5.0/contracts/ownership/Ownable.sol\":773:816  OwnershipTransferred(address(0), msgSender) */\n  0xffffffffffffffffffffffffffffffffffffffff\n  and\n  0x8be0079c531659141344cd1fd0a4f28419497f9722a3daafe3b4186f6b6457e0\n  mload(0x40)\n  mload(0x40)\n  dup1\n  swap2\n  sub\n  swap1\n  log3\n    /* \"https://github.com/OpenZeppelin/openzeppelin-contracts/blob/release-v2.5.0/contracts/ownership/Ownable.sol\":664:823  constructor () internal {... */\n  pop\n    /* \"https://github.com/mrdavey/ez-flashloan/blob/remix/contracts/utils/Withdrawable.sol\":383:1257  contract Withdrawable is Ownable {... */\n  jump(tag_7)\n    /* \"https://github.com/OpenZeppelin/openzeppelin-contracts/blob/release-v2.5.0/contracts/GSN/Context.sol\":788:884  function _msgSender() internal view returns (address payable) {... */\ntag_6:\n    /* \"https://github.com/OpenZeppelin/openzeppelin-contracts/blob/release-v2.5.0/contracts/GSN/Context.sol\":833:848  address payable */\n  0x00\n    /* \"https://github.com/OpenZeppelin/openzeppelin-contracts/blob/release-v2.5.0/contracts/GSN/Context.sol\":867:877  msg.sender */\n  caller\n    /* \"https://github.com/OpenZeppelin/openzeppelin-contracts/blob/release-v2.5.0/contracts/GSN/Context.sol\":860:877  return msg.sender */\n  swap1\n  pop\n    /* \"https://github.com/OpenZeppelin/openzeppelin-contracts/blob/release-v2.5.0/contracts/GSN/Context.sol\":788:884  function _msgSender() internal view returns (address payable) {... */\n  swap1\n  jump\t// out\n    /* \"https://github.com/mrdavey/ez-flashloan/blob/remix/contracts/utils/Withdrawable.sol\":383:1257  contract Withdrawable is Ownable {... */\ntag_7:\n  dataSize(sub_0)\n  dup1\n  dataOffset(sub_0)\n  0x00\n  codecopy\n  0x00\n  return\nstop\n\nsub_0: assembly {\n        /* \"https://github.com/mrdavey/ez-flashloan/blob/remix/contracts/utils/Withdrawable.sol\":383:1257  contract Withdrawable is Ownable {... */\n      mstore(0x40, 0x80)\n      callvalue\n        /* \"--CODEGEN--\":8:17   */\n      dup1\n        /* \"--CODEGEN--\":5:7   */\n      iszero\n      tag_1\n      jumpi\n        /* \"--CODEGEN--\":30:31   */\n      0x00\n        /* \"--CODEGEN--\":27:28   */\n      dup1\n        /* \"--CODEGEN--\":20:32   */\n      revert\n        /* \"--CODEGEN--\":5:7   */\n    tag_1:\n        /* \"https://github.com/mrdavey/ez-flashloan/blob/remix/contracts/utils/Withdrawable.sol\":383:1257  contract Withdrawable is Ownable {... */\n      pop\n      jumpi(tag_2, lt(calldatasize, 0x04))\n      shr(0xe0, calldataload(0x00))\n      dup1\n      0x51cff8d9\n      eq\n      tag_3\n      jumpi\n      dup1\n      0x715018a6\n      eq\n      tag_4\n      jumpi\n      dup1\n      0x8da5cb5b\n      eq\n      tag_5\n      jumpi\n      dup1\n      0x8f32d59b\n      eq\n      tag_6\n      jumpi\n      dup1\n      0xf2fde38b\n      eq\n      tag_7\n      jumpi\n    tag_2:\n      0x00\n      dup1\n      revert\n        /* \"https://github.com/mrdavey/ez-flashloan/blob/remix/contracts/utils/Withdrawable.sol\":711:1254  function withdraw(address _assetAddress) public onlyOwner {... */\n    tag_3:\n      tag_8\n      0x04\n      dup1\n      calldatasize\n      sub\n        /* \"--CODEGEN--\":13:15   */\n      0x20\n        /* \"--CODEGEN--\":8:11   */\n      dup2\n        /* \"--CODEGEN--\":5:16   */\n      lt\n        /* \"--CODEGEN--\":2:4   */\n      iszero\n      tag_9\n      jumpi\n        /* \"--CODEGEN--\":29:30   */\n      0x00\n        /* \"--CODEGEN--\":26:27   */\n      dup1\n        /* \"--CODEGEN--\":19:31   */\n      revert\n        /* \"--CODEGEN--\":2:4   */\n    tag_9:\n        /* \"https://github.com/mrdavey/ez-flashloan/blob/remix/contracts/utils/Withdrawable.sol\":711:1254  function withdraw(address _assetAddress) public onlyOwner {... */\n      dup2\n      add\n      swap1\n      dup1\n      dup1\n      calldataload\n      0xffffffffffffffffffffffffffffffffffffffff\n      and\n      swap1\n      0x20\n      add\n      swap1\n      swap3\n      swap2\n      swap1\n      pop\n      pop\n      pop\n      tag_10\n      jump\t// in\n    tag_8:\n      stop\n        /* \"https://github.com/OpenZeppelin/openzeppelin-contracts/blob/release-v2.5.0/contracts/ownership/Ownable.sol\":1684:1821  function renounceOwnership() public onlyOwner {... */\n    tag_4:\n      tag_11\n      tag_12\n      jump\t// in\n    tag_11:\n      stop\n        /* \"https://github.com/OpenZeppelin/openzeppelin-contracts/blob/release-v2.5.0/contracts/ownership/Ownable.sol\":899:976  function owner() public view returns (address) {... */\n    tag_5:\n      tag_13\n      tag_14\n      jump\t// in\n    tag_13:\n      mload(0x40)\n      dup1\n      dup3\n      0xffffffffffffffffffffffffffffffffffffffff\n      and\n      0xffffffffffffffffffffffffffffffffffffffff\n      and\n      dup2\n      mstore\n      0x20\n      add\n      swap2\n      pop\n      pop\n      mload(0x40)\n      dup1\n      swap2\n      sub\n      swap1\n      return\n        /* \"https://github.com/OpenZeppelin/openzeppelin-contracts/blob/release-v2.5.0/contracts/ownership/Ownable.sol\":1250:1342  function isOwner() public view returns (bool) {... */\n    tag_6:\n      tag_15\n      tag_16\n      jump\t// in\n    tag_15:\n      mload(0x40)\n      dup1\n      dup3\n      iszero\n      iszero\n      iszero\n      iszero\n      dup2\n      mstore\n      0x20\n      add\n      swap2\n      pop\n      pop\n      mload(0x40)\n      dup1\n      swap2\n      sub\n      swap1\n      return\n        /* \"https://github.com/OpenZeppelin/openzeppelin-contracts/blob/release-v2.5.0/contracts/ownership/Ownable.sol\":1970:2077  function transferOwnership(address newOwner) public onlyOwner {... */\n    tag_7:\n      tag_17\n      0x04\n      dup1\n      calldatasize\n      sub\n        /* \"--CODEGEN--\":13:15   */\n      0x20\n        /* \"--CODEGEN--\":8:11   */\n      dup2\n        /* \"--CODEGEN--\":5:16   */\n      lt\n        /* \"--CODEGEN--\":2:4   */\n      iszero\n      tag_18\n      jumpi\n        /* \"--CODEGEN--\":29:30   */\n      0x00\n        /* \"--CODEGEN--\":26:27   */\n      dup1\n        /* \"--CODEGEN--\":19:31   */\n      revert\n        /* \"--CODEGEN--\":2:4   */\n    tag_18:\n        /* \"https://github.com/OpenZeppelin/openzeppelin-contracts/blob/release-v2.5.0/contracts/ownership/Ownable.sol\":1970:2077  function transferOwnership(address newOwner) public onlyOwner {... */\n      dup2\n      add\n      swap1\n      dup1\n      dup1\n      calldataload\n      0xffffffffffffffffffffffffffffffffffffffff\n      and\n      swap1\n      0x20\n      add\n      swap1\n      swap3\n      swap2\n      swap1\n      pop\n      pop\n      pop\n      tag_19\n      jump\t// in\n    tag_17:\n      stop\n        /* \"https://github.com/mrdavey/ez-flashloan/blob/remix/contracts/utils/Withdrawable.sol\":711:1254  function withdraw(address _assetAddress) public onlyOwner {... */\n    tag_10:\n        /* \"https://github.com/OpenZeppelin/openzeppelin-contracts/blob/release-v2.5.0/contracts/ownership/Ownable.sol\":1103:1112  isOwner() */\n      tag_21\n        /* \"https://github.com/OpenZeppelin/openzeppelin-contracts/blob/release-v2.5.0/contracts/ownership/Ownable.sol\":1103:1110  isOwner */\n      tag_16\n        /* \"https://github.com/OpenZeppelin/openzeppelin-contracts/blob/release-v2.5.0/contracts/ownership/Ownable.sol\":1103:1112  isOwner() */\n      jump\t// in\n    tag_21:\n        /* \"https://github.com/OpenZeppelin/openzeppelin-contracts/blob/release-v2.5.0/contracts/ownership/Ownable.sol\":1095:1149  require(isOwner(), \"Ownable: caller is not the owner\") */\n      iszero\n      iszero\n      tag_22\n      jumpi\n      mload(0x40)\n      0x08c379a000000000000000000000000000000000000000000000000000000000\n      dup2\n      mstore\n      0x04\n      add\n      dup1\n      dup1\n      0x20\n      add\n      dup3\n      dup2\n      sub\n      dup3\n      mstore\n      0x20\n      dup2\n      mstore\n      0x20\n      add\n      dup1\n      0x4f776e61626c653a2063616c6c6572206973206e6f7420746865206f776e6572\n      dup2\n      mstore\n      pop\n      0x20\n      add\n      swap2\n      pop\n      pop\n      mload(0x40)\n      dup1\n      swap2\n      sub\n      swap1\n      revert\n    tag_22:\n        /* \"https://github.com/mrdavey/ez-flashloan/blob/remix/contracts/utils/Withdrawable.sol\":779:796  uint assetBalance */\n      0x00\n        /* \"https://github.com/mrdavey/ez-flashloan/blob/remix/contracts/utils/Withdrawable.sol\":486:487  0 */\n      dup1\n        /* \"https://github.com/mrdavey/ez-flashloan/blob/remix/contracts/utils/Withdrawable.sol\":810:832  _assetAddress == ETHER */\n      0xffffffffffffffffffffffffffffffffffffffff\n      and\n        /* \"https://github.com/mrdavey/ez-flashloan/blob/remix/contracts/utils/Withdrawable.sol\":810:823  _assetAddress */\n      dup3\n        /* \"https://github.com/mrdavey/ez-flashloan/blob/remix/contracts/utils/Withdrawable.sol\":810:832  _assetAddress == ETHER */\n      0xffffffffffffffffffffffffffffffffffffffff\n      and\n      eq\n        /* \"https://github.com/mrdavey/ez-flashloan/blob/remix/contracts/utils/Withdrawable.sol\":806:1181  if (_assetAddress == ETHER) {... */\n      iszero\n      tag_24\n      jumpi\n        /* \"https://github.com/mrdavey/ez-flashloan/blob/remix/contracts/utils/Withdrawable.sol\":848:860  address self */\n      0x00\n        /* \"https://github.com/mrdavey/ez-flashloan/blob/remix/contracts/utils/Withdrawable.sol\":871:875  this */\n      address\n        /* \"https://github.com/mrdavey/ez-flashloan/blob/remix/contracts/utils/Withdrawable.sol\":848:876  address self = address(this) */\n      swap1\n      pop\n        /* \"https://github.com/mrdavey/ez-flashloan/blob/remix/contracts/utils/Withdrawable.sol\":947:951  self */\n      dup1\n        /* \"https://github.com/mrdavey/ez-flashloan/blob/remix/contracts/utils/Withdrawable.sol\":947:959  self.balance */\n      0xffffffffffffffffffffffffffffffffffffffff\n      and\n      balance\n        /* \"https://github.com/mrdavey/ez-flashloan/blob/remix/contracts/utils/Withdrawable.sol\":932:959  assetBalance = self.balance */\n      swap2\n      pop\n        /* \"https://github.com/mrdavey/ez-flashloan/blob/remix/contracts/utils/Withdrawable.sol\":973:983  msg.sender */\n      caller\n        /* \"https://github.com/mrdavey/ez-flashloan/blob/remix/contracts/utils/Withdrawable.sol\":973:992  msg.sender.transfer */\n      0xffffffffffffffffffffffffffffffffffffffff\n      and\n        /* \"https://github.com/mrdavey/ez-flashloan/blob/remix/contracts/utils/Withdrawable.sol\":973:1006  msg.sender.transfer(assetBalance) */\n      0x08fc\n        /* \"https://github.com/mrdavey/ez-flashloan/blob/remix/contracts/utils/Withdrawable.sol\":993:1005  assetBalance */\n      dup4\n        /* \"https://github.com/mrdavey/ez-flashloan/blob/remix/contracts/utils/Withdrawable.sol\":973:1006  msg.sender.transfer(assetBalance) */\n      swap1\n      dup2\n      iszero\n      mul\n      swap1\n      mload(0x40)\n      0x00\n      mload(0x40)\n      dup1\n      dup4\n      sub\n      dup2\n      dup6\n      dup9\n      dup9\n      call\n      swap4\n      pop\n      pop\n      pop\n      pop\n      iszero\n        /* \"--CODEGEN--\":8:17   */\n      dup1\n        /* \"--CODEGEN--\":5:7   */\n      iszero\n      tag_25\n      jumpi\n        /* \"--CODEGEN--\":45:61   */\n      returndatasize\n        /* \"--CODEGEN--\":42:43   */\n      0x00\n        /* \"--CODEGEN--\":39:40   */\n      dup1\n        /* \"--CODEGEN--\":24:62   */\n      returndatacopy\n        /* \"--CODEGEN--\":77:93   */\n      returndatasize\n        /* \"--CODEGEN--\":74:75   */\n      0x00\n        /* \"--CODEGEN--\":67:94   */\n      revert\n        /* \"--CODEGEN--\":5:7   */\n    tag_25:\n        /* \"https://github.com/mrdavey/ez-flashloan/blob/remix/contracts/utils/Withdrawable.sol\":973:1006  msg.sender.transfer(assetBalance) */\n      pop\n        /* \"https://github.com/mrdavey/ez-flashloan/blob/remix/contracts/utils/Withdrawable.sol\":806:1181  if (_assetAddress == ETHER) {... */\n      pop\n      jump(tag_26)\n    tag_24:\n        /* \"https://github.com/mrdavey/ez-flashloan/blob/remix/contracts/utils/Withdrawable.sol\":1058:1071  _assetAddress */\n      dup2\n        /* \"https://github.com/mrdavey/ez-flashloan/blob/remix/contracts/utils/Withdrawable.sol\":1052:1082  ERC20(_assetAddress).balanceOf */\n      0xffffffffffffffffffffffffffffffffffffffff\n      and\n      0x70a08231\n        /* \"https://github.com/mrdavey/ez-flashloan/blob/remix/contracts/utils/Withdrawable.sol\":1091:1095  this */\n      address\n        /* \"https://github.com/mrdavey/ez-flashloan/blob/remix/contracts/utils/Withdrawable.sol\":1052:1097  ERC20(_assetAddress).balanceOf(address(this)) */\n      mload(0x40)\n      dup3\n      0xffffffff\n      and\n      0xe0\n      shl\n      dup2\n      mstore\n      0x04\n      add\n      dup1\n      dup3\n      0xffffffffffffffffffffffffffffffffffffffff\n      and\n      0xffffffffffffffffffffffffffffffffffffffff\n      and\n      dup2\n      mstore\n      0x20\n      add\n      swap2\n      pop\n      pop\n      0x20\n      mload(0x40)\n      dup1\n      dup4\n      sub\n      dup2\n      dup7\n      dup1\n      extcodesize\n      iszero\n        /* \"--CODEGEN--\":8:17   */\n      dup1\n        /* \"--CODEGEN--\":5:7   */\n      iszero\n      tag_27\n      jumpi\n        /* \"--CODEGEN--\":30:31   */\n      0x00\n        /* \"--CODEGEN--\":27:28   */\n      dup1\n        /* \"--CODEGEN--\":20:32   */\n      revert\n        /* \"--CODEGEN--\":5:7   */\n    tag_27:\n        /* \"https://github.com/mrdavey/ez-flashloan/blob/remix/contracts/utils/Withdrawable.sol\":1052:1097  ERC20(_assetAddress).balanceOf(address(this)) */\n      pop\n      gas\n      staticcall\n      iszero\n        /* \"--CODEGEN--\":8:17   */\n      dup1\n        /* \"--CODEGEN--\":5:7   */\n      iszero\n      tag_28\n      jumpi\n        /* \"--CODEGEN--\":45:61   */\n      returndatasize\n        /* \"--CODEGEN--\":42:43   */\n      0x00\n        /* \"--CODEGEN--\":39:40   */\n      dup1\n        /* \"--CODEGEN--\":24:62   */\n      returndatacopy\n        /* \"--CODEGEN--\":77:93   */\n      returndatasize\n        /* \"--CODEGEN--\":74:75   */\n      0x00\n        /* \"--CODEGEN--\":67:94   */\n      revert\n        /* \"--CODEGEN--\":5:7   */\n    tag_28:\n        /* \"https://github.com/mrdavey/ez-flashloan/blob/remix/contracts/utils/Withdrawable.sol\":1052:1097  ERC20(_assetAddress).balanceOf(address(this)) */\n      pop\n      pop\n      pop\n      pop\n      mload(0x40)\n      returndatasize\n        /* \"--CODEGEN--\":13:15   */\n      0x20\n        /* \"--CODEGEN--\":8:11   */\n      dup2\n        /* \"--CODEGEN--\":5:16   */\n      lt\n        /* \"--CODEGEN--\":2:4   */\n      iszero\n      tag_29\n      jumpi\n        /* \"--CODEGEN--\":29:30   */\n      0x00\n        /* \"--CODEGEN--\":26:27   */\n      dup1\n        /* \"--CODEGEN--\":19:31   */\n      revert\n        /* \"--CODEGEN--\":2:4   */\n    tag_29:\n        /* \"https://github.com/mrdavey/ez-flashloan/blob/remix/contracts/utils/Withdrawable.sol\":1052:1097  ERC20(_assetAddress).balanceOf(address(this)) */\n      dup2\n      add\n      swap1\n      dup1\n      dup1\n      mload\n      swap1\n      0x20\n      add\n      swap1\n      swap3\n      swap2\n      swap1\n      pop\n      pop\n      pop\n        /* \"https://github.com/mrdavey/ez-flashloan/blob/remix/contracts/utils/Withdrawable.sol\":1037:1097  assetBalance = ERC20(_assetAddress).balanceOf(address(this)) */\n      swap1\n      pop\n        /* \"https://github.com/mrdavey/ez-flashloan/blob/remix/contracts/utils/Withdrawable.sol\":1111:1170  ERC20(_assetAddress).safeTransfer(msg.sender, assetBalance) */\n      tag_30\n        /* \"https://github.com/mrdavey/ez-flashloan/blob/remix/contracts/utils/Withdrawable.sol\":1145:1155  msg.sender */\n      caller\n        /* \"https://github.com/mrdavey/ez-flashloan/blob/remix/contracts/utils/Withdrawable.sol\":1157:1169  assetBalance */\n      dup3\n        /* \"https://github.com/mrdavey/ez-flashloan/blob/remix/contracts/utils/Withdrawable.sol\":1117:1130  _assetAddress */\n      dup5\n        /* \"https://github.com/mrdavey/ez-flashloan/blob/remix/contracts/utils/Withdrawable.sol\":1111:1144  ERC20(_assetAddress).safeTransfer */\n      0xffffffffffffffffffffffffffffffffffffffff\n      and\n      tag_31\n      swap1\n        /* \"https://github.com/mrdavey/ez-flashloan/blob/remix/contracts/utils/Withdrawable.sol\":1111:1170  ERC20(_assetAddress).safeTransfer(msg.sender, assetBalance) */\n      swap3\n      swap2\n      swap1\n      0xffffffff\n      and\n      jump\t// in\n    tag_30:\n        /* \"https://github.com/mrdavey/ez-flashloan/blob/remix/contracts/utils/Withdrawable.sol\":806:1181  if (_assetAddress == ETHER) {... */\n    tag_26:\n        /* \"https://github.com/mrdavey/ez-flashloan/blob/remix/contracts/utils/Withdrawable.sol\":1219:1232  _assetAddress */\n      dup2\n        /* \"https://github.com/mrdavey/ez-flashloan/blob/remix/contracts/utils/Withdrawable.sol\":1195:1247  LogWithdraw(msg.sender, _assetAddress, assetBalance) */\n      0xffffffffffffffffffffffffffffffffffffffff\n      and\n        /* \"https://github.com/mrdavey/ez-flashloan/blob/remix/contracts/utils/Withdrawable.sol\":1207:1217  msg.sender */\n      caller\n        /* \"https://github.com/mrdavey/ez-flashloan/blob/remix/contracts/utils/Withdrawable.sol\":1195:1247  LogWithdraw(msg.sender, _assetAddress, assetBalance) */\n      0xffffffffffffffffffffffffffffffffffffffff\n      and\n      0x9207361cc2a04b9c7a06691df1eb87c6a63957ae88bf01d0d18c81e3d1272099\n        /* \"https://github.com/mrdavey/ez-flashloan/blob/remix/contracts/utils/Withdrawable.sol\":1234:1246  assetBalance */\n      dup4\n        /* \"https://github.com/mrdavey/ez-flashloan/blob/remix/contracts/utils/Withdrawable.sol\":1195:1247  LogWithdraw(msg.sender, _assetAddress, assetBalance) */\n      mload(0x40)\n      dup1\n      dup3\n      dup2\n      mstore\n      0x20\n      add\n      swap2\n      pop\n      pop\n      mload(0x40)\n      dup1\n      swap2\n      sub\n      swap1\n      log3\n        /* \"https://github.com/OpenZeppelin/openzeppelin-contracts/blob/release-v2.5.0/contracts/ownership/Ownable.sol\":1159:1160  _ */\n      pop\n        /* \"https://github.com/mrdavey/ez-flashloan/blob/remix/contracts/utils/Withdrawable.sol\":711:1254  function withdraw(address _assetAddress) public onlyOwner {... */\n      pop\n      jump\t// out\n        /* \"https://github.com/OpenZeppelin/openzeppelin-contracts/blob/release-v2.5.0/contracts/ownership/Ownable.sol\":1684:1821  function renounceOwnership() public onlyOwner {... */\n    tag_12:\n        /* \"https://github.com/OpenZeppelin/openzeppelin-contracts/blob/release-v2.5.0/contracts/ownership/Ownable.sol\":1103:1112  isOwner() */\n      tag_33\n        /* \"https://github.com/OpenZeppelin/openzeppelin-contracts/blob/release-v2.5.0/contracts/ownership/Ownable.sol\":1103:1110  isOwner */\n      tag_16\n        /* \"https://github.com/OpenZeppelin/openzeppelin-contracts/blob/release-v2.5.0/contracts/ownership/Ownable.sol\":1103:1112  isOwner() */\n      jump\t// in\n    tag_33:\n        /* \"https://github.com/OpenZeppelin/openzeppelin-contracts/blob/release-v2.5.0/contracts/ownership/Ownable.sol\":1095:1149  require(isOwner(), \"Ownable: caller is not the owner\") */\n      iszero\n      iszero\n      tag_34\n      jumpi\n      mload(0x40)\n      0x08c379a000000000000000000000000000000000000000000000000000000000\n      dup2\n      mstore\n      0x04\n      add\n      dup1\n      dup1\n      0x20\n      add\n      dup3\n      dup2\n      sub\n      dup3\n      mstore\n      0x20\n      dup2\n      mstore\n      0x20\n      add\n      dup1\n      0x4f776e61626c653a2063616c6c6572206973206e6f7420746865206f776e6572\n      dup2\n      mstore\n      pop\n      0x20\n      add\n      swap2\n      pop\n      pop\n      mload(0x40)\n      dup1\n      swap2\n      sub\n      swap1\n      revert\n    tag_34:\n        /* \"https://github.com/OpenZeppelin/openzeppelin-contracts/blob/release-v2.5.0/contracts/ownership/Ownable.sol\":1782:1783  0 */\n      0x00\n        /* \"https://github.com/OpenZeppelin/openzeppelin-contracts/blob/release-v2.5.0/contracts/ownership/Ownable.sol\":1745:1785  OwnershipTransferred(_owner, address(0)) */\n      0xffffffffffffffffffffffffffffffffffffffff\n      and\n        /* \"https://github.com/OpenZeppelin/openzeppelin-contracts/blob/release-v2.5.0/contracts/ownership/Ownable.sol\":1766:1772  _owner */\n      0x00\n      dup1\n      swap1\n      sload\n      swap1\n      0x0100\n      exp\n      swap1\n      div\n      0xffffffffffffffffffffffffffffffffffffffff\n      and\n        /* \"https://github.com/OpenZeppelin/openzeppelin-contracts/blob/release-v2.5.0/contracts/ownership/Ownable.sol\":1745:1785  OwnershipTransferred(_owner, address(0)) */\n      0xffffffffffffffffffffffffffffffffffffffff\n      and\n      0x8be0079c531659141344cd1fd0a4f28419497f9722a3daafe3b4186f6b6457e0\n      mload(0x40)\n      mload(0x40)\n      dup1\n      swap2\n      sub\n      swap1\n      log3\n        /* \"https://github.com/OpenZeppelin/openzeppelin-contracts/blob/release-v2.5.0/contracts/ownership/Ownable.sol\":1812:1813  0 */\n      0x00\n        /* \"https://github.com/OpenZeppelin/openzeppelin-contracts/blob/release-v2.5.0/contracts/ownership/Ownable.sol\":1795:1801  _owner */\n      dup1\n      0x00\n        /* \"https://github.com/OpenZeppelin/openzeppelin-contracts/blob/release-v2.5.0/contracts/ownership/Ownable.sol\":1795:1814  _owner = address(0) */\n      0x0100\n      exp\n      dup2\n      sload\n      dup2\n      0xffffffffffffffffffffffffffffffffffffffff\n      mul\n      not\n      and\n      swap1\n      dup4\n      0xffffffffffffffffffffffffffffffffffffffff\n      and\n      mul\n      or\n      swap1\n      sstore\n      pop\n        /* \"https://github.com/OpenZeppelin/openzeppelin-contracts/blob/release-v2.5.0/contracts/ownership/Ownable.sol\":1684:1821  function renounceOwnership() public onlyOwner {... */\n      jump\t// out\n        /* \"https://github.com/OpenZeppelin/openzeppelin-contracts/blob/release-v2.5.0/contracts/ownership/Ownable.sol\":899:976  function owner() public view returns (address) {... */\n    tag_14:\n        /* \"https://github.com/OpenZeppelin/openzeppelin-contracts/blob/release-v2.5.0/contracts/ownership/Ownable.sol\":937:944  address */\n      0x00\n        /* \"https://github.com/OpenZeppelin/openzeppelin-contracts/blob/release-v2.5.0/contracts/ownership/Ownable.sol\":963:969  _owner */\n      dup1\n      0x00\n      swap1\n      sload\n      swap1\n      0x0100\n      exp\n      swap1\n      div\n      0xffffffffffffffffffffffffffffffffffffffff\n      and\n        /* \"https://github.com/OpenZeppelin/openzeppelin-contracts/blob/release-v2.5.0/contracts/ownership/Ownable.sol\":956:969  return _owner */\n      swap1\n      pop\n        /* \"https://github.com/OpenZeppelin/openzeppelin-contracts/blob/release-v2.5.0/contracts/ownership/Ownable.sol\":899:976  function owner() public view returns (address) {... */\n      swap1\n      jump\t// out\n        /* \"https://github.com/OpenZeppelin/openzeppelin-contracts/blob/release-v2.5.0/contracts/ownership/Ownable.sol\":1250:1342  function isOwner() public view returns (bool) {... */\n    tag_16:\n        /* \"https://github.com/OpenZeppelin/openzeppelin-contracts/blob/release-v2.5.0/contracts/ownership/Ownable.sol\":1290:1294  bool */\n      0x00\n        /* \"https://github.com/OpenZeppelin/openzeppelin-contracts/blob/release-v2.5.0/contracts/ownership/Ownable.sol\":1329:1335  _owner */\n      dup1\n      0x00\n      swap1\n      sload\n      swap1\n      0x0100\n      exp\n      swap1\n      div\n      0xffffffffffffffffffffffffffffffffffffffff\n      and\n        /* \"https://github.com/OpenZeppelin/openzeppelin-contracts/blob/release-v2.5.0/contracts/ownership/Ownable.sol\":1313:1335  _msgSender() == _owner */\n      0xffffffffffffffffffffffffffffffffffffffff\n      and\n        /* \"https://github.com/OpenZeppelin/openzeppelin-contracts/blob/release-v2.5.0/contracts/ownership/Ownable.sol\":1313:1325  _msgSender() */\n      tag_38\n        /* \"https://github.com/OpenZeppelin/openzeppelin-contracts/blob/release-v2.5.0/contracts/ownership/Ownable.sol\":1313:1323  _msgSender */\n      tag_39\n        /* \"https://github.com/OpenZeppelin/openzeppelin-contracts/blob/release-v2.5.0/contracts/ownership/Ownable.sol\":1313:1325  _msgSender() */\n      jump\t// in\n    tag_38:\n        /* \"https://github.com/OpenZeppelin/openzeppelin-contracts/blob/release-v2.5.0/contracts/ownership/Ownable.sol\":1313:1335  _msgSender() == _owner */\n      0xffffffffffffffffffffffffffffffffffffffff\n      and\n      eq\n        /* \"https://github.com/OpenZeppelin/openzeppelin-contracts/blob/release-v2.5.0/contracts/ownership/Ownable.sol\":1306:1335  return _msgSender() == _owner */\n      swap1\n      pop\n        /* \"https://github.com/OpenZeppelin/openzeppelin-contracts/blob/release-v2.5.0/contracts/ownership/Ownable.sol\":1250:1342  function isOwner() public view returns (bool) {... */\n      swap1\n      jump\t// out\n        /* \"https://github.com/OpenZeppelin/openzeppelin-contracts/blob/release-v2.5.0/contracts/ownership/Ownable.sol\":1970:2077  function transferOwnership(address newOwner) public onlyOwner {... */\n    tag_19:\n        /* \"https://github.com/OpenZeppelin/openzeppelin-contracts/blob/release-v2.5.0/contracts/ownership/Ownable.sol\":1103:1112  isOwner() */\n      tag_41\n        /* \"https://github.com/OpenZeppelin/openzeppelin-contracts/blob/release-v2.5.0/contracts/ownership/Ownable.sol\":1103:1110  isOwner */\n      tag_16\n        /* \"https://github.com/OpenZeppelin/openzeppelin-contracts/blob/release-v2.5.0/contracts/ownership/Ownable.sol\":1103:1112  isOwner() */\n      jump\t// in\n    tag_41:\n        /* \"https://github.com/OpenZeppelin/openzeppelin-contracts/blob/release-v2.5.0/contracts/ownership/Ownable.sol\":1095:1149  require(isOwner(), \"Ownable: caller is not the owner\") */\n      iszero\n      iszero\n      tag_42\n      jumpi\n      mload(0x40)\n      0x08c379a000000000000000000000000000000000000000000000000000000000\n      dup2\n      mstore\n      0x04\n      add\n      dup1\n      dup1\n      0x20\n      add\n      dup3\n      dup2\n      sub\n      dup3\n      mstore\n      0x20\n      dup2\n      mstore\n      0x20\n      add\n      dup1\n      0x4f776e61626c653a2063616c6c6572206973206e6f7420746865206f776e6572\n      dup2\n      mstore\n      pop\n      0x20\n      add\n      swap2\n      pop\n      pop\n      mload(0x40)\n      dup1\n      swap2\n      sub\n      swap1\n      revert\n    tag_42:\n        /* \"https://github.com/OpenZeppelin/openzeppelin-contracts/blob/release-v2.5.0/contracts/ownership/Ownable.sol\":2042:2070  _transferOwnership(newOwner) */\n      tag_44\n        /* \"https://github.com/OpenZeppelin/openzeppelin-contracts/blob/release-v2.5.0/contracts/ownership/Ownable.sol\":2061:2069  newOwner */\n      dup2\n        /* \"https://github.com/OpenZeppelin/openzeppelin-contracts/blob/release-v2.5.0/contracts/ownership/Ownable.sol\":2042:2060  _transferOwnership */\n      tag_45\n        /* \"https://github.com/OpenZeppelin/openzeppelin-contracts/blob/release-v2.5.0/contracts/ownership/Ownable.sol\":2042:2070  _transferOwnership(newOwner) */\n      jump\t// in\n    tag_44:\n        /* \"https://github.com/OpenZeppelin/openzeppelin-contracts/blob/release-v2.5.0/contracts/ownership/Ownable.sol\":1970:2077  function transferOwnership(address newOwner) public onlyOwner {... */\n      pop\n      jump\t// out\n        /* \"https://github.com/OpenZeppelin/openzeppelin-contracts/blob/release-v2.5.0/contracts/token/ERC20/SafeERC20.sol\":662:836  function safeTransfer(IERC20 token, address to, uint256 value) internal {... */\n    tag_31:\n        /* \"https://github.com/OpenZeppelin/openzeppelin-contracts/blob/release-v2.5.0/contracts/token/ERC20/SafeERC20.sol\":744:829  callOptionalReturn(token, abi.encodeWithSelector(token.transfer.selector, to, value)) */\n      tag_47\n        /* \"https://github.com/OpenZeppelin/openzeppelin-contracts/blob/release-v2.5.0/contracts/token/ERC20/SafeERC20.sol\":763:768  token */\n      dup4\n        /* \"https://github.com/OpenZeppelin/openzeppelin-contracts/blob/release-v2.5.0/contracts/token/ERC20/SafeERC20.sol\":793:798  token */\n      dup5\n        /* \"https://github.com/OpenZeppelin/openzeppelin-contracts/blob/release-v2.5.0/contracts/token/ERC20/SafeERC20.sol\":793:807  token.transfer */\n      0xffffffffffffffffffffffffffffffffffffffff\n      and\n      0xa9059cbb\n        /* \"https://github.com/OpenZeppelin/openzeppelin-contracts/blob/release-v2.5.0/contracts/token/ERC20/SafeERC20.sol\":793:816  token.transfer.selector */\n      swap1\n      pop\n      0xe0\n      shl\n        /* \"https://github.com/OpenZeppelin/openzeppelin-contracts/blob/release-v2.5.0/contracts/token/ERC20/SafeERC20.sol\":818:820  to */\n      dup5\n        /* \"https://github.com/OpenZeppelin/openzeppelin-contracts/blob/release-v2.5.0/contracts/token/ERC20/SafeERC20.sol\":822:827  value */\n      dup5\n        /* \"https://github.com/OpenZeppelin/openzeppelin-contracts/blob/release-v2.5.0/contracts/token/ERC20/SafeERC20.sol\":770:828  abi.encodeWithSelector(token.transfer.selector, to, value) */\n      add(0x24, mload(0x40))\n      dup1\n      dup4\n      0xffffffffffffffffffffffffffffffffffffffff\n      and\n      0xffffffffffffffffffffffffffffffffffffffff\n      and\n      dup2\n      mstore\n      0x20\n      add\n      dup3\n      dup2\n      mstore\n      0x20\n      add\n      swap3\n      pop\n      pop\n      pop\n      mload(0x40)\n        /* \"--CODEGEN--\":49:53   */\n      0x20\n        /* \"--CODEGEN--\":39:46   */\n      dup2\n        /* \"--CODEGEN--\":30:37   */\n      dup4\n        /* \"--CODEGEN--\":26:47   */\n      sub\n        /* \"--CODEGEN--\":22:54   */\n      sub\n        /* \"--CODEGEN--\":13:20   */\n      dup2\n        /* \"--CODEGEN--\":6:55   */\n      mstore\n        /* \"https://github.com/OpenZeppelin/openzeppelin-contracts/blob/release-v2.5.0/contracts/token/ERC20/SafeERC20.sol\":770:828  abi.encodeWithSelector(token.transfer.selector, to, value) */\n      swap1\n      0x40\n      mstore\n      swap1\n      not(0xffffffffffffffffffffffffffffffffffffffffffffffffffffffff)\n      and\n        /* \"--CODEGEN--\":38:42   */\n      0x20\n        /* \"--CODEGEN--\":29:36   */\n      dup3\n        /* \"--CODEGEN--\":25:43   */\n      add\n        /* \"--CODEGEN--\":67:77   */\n      dup1\n        /* \"--CODEGEN--\":61:78   */\n      mload\n        /* \"--CODEGEN--\":96:154   */\n      0xffffffffffffffffffffffffffffffffffffffffffffffffffffffff\n        /* \"--CODEGEN--\":199:207   */\n      dup4\n        /* \"--CODEGEN--\":192:196   */\n      dup2\n        /* \"--CODEGEN--\":186:190   */\n      dup4\n        /* \"--CODEGEN--\":182:197   */\n      and\n        /* \"--CODEGEN--\":179:208   */\n      or\n        /* \"--CODEGEN--\":167:177   */\n      dup4\n        /* \"--CODEGEN--\":160:209   */\n      mstore\n        /* \"--CODEGEN--\":0:215   */\n      pop\n      pop\n      pop\n        /* \"https://github.com/OpenZeppelin/openzeppelin-contracts/blob/release-v2.5.0/contracts/token/ERC20/SafeERC20.sol\":770:828  abi.encodeWithSelector(token.transfer.selector, to, value) */\n      pop\n        /* \"https://github.com/OpenZeppelin/openzeppelin-contracts/blob/release-v2.5.0/contracts/token/ERC20/SafeERC20.sol\":744:762  callOptionalReturn */\n      tag_48\n        /* \"https://github.com/OpenZeppelin/openzeppelin-contracts/blob/release-v2.5.0/contracts/token/ERC20/SafeERC20.sol\":744:829  callOptionalReturn(token, abi.encodeWithSelector(token.transfer.selector, to, value)) */\n      jump\t// in\n    tag_47:\n        /* \"https://github.com/OpenZeppelin/openzeppelin-contracts/blob/release-v2.5.0/contracts/token/ERC20/SafeERC20.sol\":662:836  function safeTransfer(IERC20 token, address to, uint256 value) internal {... */\n      pop\n      pop\n      pop\n      jump\t// out\n        /* \"https://github.com/OpenZeppelin/openzeppelin-contracts/blob/release-v2.5.0/contracts/GSN/Context.sol\":788:884  function _msgSender() internal view returns (address payable) {... */\n    tag_39:\n        /* \"https://github.com/OpenZeppelin/openzeppelin-contracts/blob/release-v2.5.0/contracts/GSN/Context.sol\":833:848  address payable */\n      0x00\n        /* \"https://github.com/OpenZeppelin/openzeppelin-contracts/blob/release-v2.5.0/contracts/GSN/Context.sol\":867:877  msg.sender */\n      caller\n        /* \"https://github.com/OpenZeppelin/openzeppelin-contracts/blob/release-v2.5.0/contracts/GSN/Context.sol\":860:877  return msg.sender */\n      swap1\n      pop\n        /* \"https://github.com/OpenZeppelin/openzeppelin-contracts/blob/release-v2.5.0/contracts/GSN/Context.sol\":788:884  function _msgSender() internal view returns (address payable) {... */\n      swap1\n      jump\t// out\n        /* \"https://github.com/OpenZeppelin/openzeppelin-contracts/blob/release-v2.5.0/contracts/ownership/Ownable.sol\":2178:2403  function _transferOwnership(address newOwner) internal {... */\n    tag_45:\n        /* \"https://github.com/OpenZeppelin/openzeppelin-contracts/blob/release-v2.5.0/contracts/ownership/Ownable.sol\":2271:2272  0 */\n      0x00\n        /* \"https://github.com/OpenZeppelin/openzeppelin-contracts/blob/release-v2.5.0/contracts/ownership/Ownable.sol\":2251:2273  newOwner != address(0) */\n      0xffffffffffffffffffffffffffffffffffffffff\n      and\n        /* \"https://github.com/OpenZeppelin/openzeppelin-contracts/blob/release-v2.5.0/contracts/ownership/Ownable.sol\":2251:2259  newOwner */\n      dup2\n        /* \"https://github.com/OpenZeppelin/openzeppelin-contracts/blob/release-v2.5.0/contracts/ownership/Ownable.sol\":2251:2273  newOwner != address(0) */\n      0xffffffffffffffffffffffffffffffffffffffff\n      and\n      eq\n      iszero\n        /* \"https://github.com/OpenZeppelin/openzeppelin-contracts/blob/release-v2.5.0/contracts/ownership/Ownable.sol\":2243:2316  require(newOwner != address(0), \"Ownable: new owner is the zero address\") */\n      iszero\n      iszero\n      tag_51\n      jumpi\n      mload(0x40)\n      0x08c379a000000000000000000000000000000000000000000000000000000000\n      dup2\n      mstore\n      0x04\n      add\n      dup1\n      dup1\n      0x20\n      add\n      dup3\n      dup2\n      sub\n      dup3\n      mstore\n      0x26\n      dup2\n      mstore\n      0x20\n      add\n      dup1\n      data_245f15ff17f551913a7a18385165551503906a406f905ac1c2437281a7cd0cfe\n      0x26\n      swap2\n      codecopy\n      0x40\n      add\n      swap2\n      pop\n      pop\n      mload(0x40)\n      dup1\n      swap2\n      sub\n      swap1\n      revert\n    tag_51:\n        /* \"https://github.com/OpenZeppelin/openzeppelin-contracts/blob/release-v2.5.0/contracts/ownership/Ownable.sol\":2360:2368  newOwner */\n      dup1\n        /* \"https://github.com/OpenZeppelin/openzeppelin-contracts/blob/release-v2.5.0/contracts/ownership/Ownable.sol\":2331:2369  OwnershipTransferred(_owner, newOwner) */\n      0xffffffffffffffffffffffffffffffffffffffff\n      and\n        /* \"https://github.com/OpenZeppelin/openzeppelin-contracts/blob/release-v2.5.0/contracts/ownership/Ownable.sol\":2352:2358  _owner */\n      0x00\n      dup1\n      swap1\n      sload\n      swap1\n      0x0100\n      exp\n      swap1\n      div\n      0xffffffffffffffffffffffffffffffffffffffff\n      and\n        /* \"https://github.com/OpenZeppelin/openzeppelin-contracts/blob/release-v2.5.0/contracts/ownership/Ownable.sol\":2331:2369  OwnershipTransferred(_owner, newOwner) */\n      0xffffffffffffffffffffffffffffffffffffffff\n      and\n      0x8be0079c531659141344cd1fd0a4f28419497f9722a3daafe3b4186f6b6457e0\n      mload(0x40)\n      mload(0x40)\n      dup1\n      swap2\n      sub\n      swap1\n      log3\n        /* \"https://github.com/OpenZeppelin/openzeppelin-contracts/blob/release-v2.5.0/contracts/ownership/Ownable.sol\":2388:2396  newOwner */\n      dup1\n        /* \"https://github.com/OpenZeppelin/openzeppelin-contracts/blob/release-v2.5.0/contracts/ownership/Ownable.sol\":2379:2385  _owner */\n      0x00\n      dup1\n        /* \"https://github.com/OpenZeppelin/openzeppelin-contracts/blob/release-v2.5.0/contracts/ownership/Ownable.sol\":2379:2396  _owner = newOwner */\n      0x0100\n      exp\n      dup2\n      sload\n      dup2\n      0xffffffffffffffffffffffffffffffffffffffff\n      mul\n      not\n      and\n      swap1\n      dup4\n      0xffffffffffffffffffffffffffffffffffffffff\n      and\n      mul\n      or\n      swap1\n      sstore\n      pop\n        /* \"https://github.com/OpenZeppelin/openzeppelin-contracts/blob/release-v2.5.0/contracts/ownership/Ownable.sol\":2178:2403  function _transferOwnership(address newOwner) internal {... */\n      pop\n      jump\t// out\n        /* \"https://github.com/OpenZeppelin/openzeppelin-contracts/blob/release-v2.5.0/contracts/token/ERC20/SafeERC20.sol\":2666:3761  function callOptionalReturn(IERC20 token, bytes memory data) private {... */\n    tag_48:\n        /* \"https://github.com/OpenZeppelin/openzeppelin-contracts/blob/release-v2.5.0/contracts/token/ERC20/SafeERC20.sol\":3261:3288  address(token).isContract() */\n      tag_53\n        /* \"https://github.com/OpenZeppelin/openzeppelin-contracts/blob/release-v2.5.0/contracts/token/ERC20/SafeERC20.sol\":3269:3274  token */\n      dup3\n        /* \"https://github.com/OpenZeppelin/openzeppelin-contracts/blob/release-v2.5.0/contracts/token/ERC20/SafeERC20.sol\":3261:3286  address(token).isContract */\n      0xffffffffffffffffffffffffffffffffffffffff\n      and\n      tag_54\n        /* \"https://github.com/OpenZeppelin/openzeppelin-contracts/blob/release-v2.5.0/contracts/token/ERC20/SafeERC20.sol\":3261:3288  address(token).isContract() */\n      jump\t// in\n    tag_53:\n        /* \"https://github.com/OpenZeppelin/openzeppelin-contracts/blob/release-v2.5.0/contracts/token/ERC20/SafeERC20.sol\":3253:3324  require(address(token).isContract(), \"SafeERC20: call to non-contract\") */\n      iszero\n      iszero\n      tag_55\n      jumpi\n      mload(0x40)\n      0x08c379a000000000000000000000000000000000000000000000000000000000\n      dup2\n      mstore\n      0x04\n      add\n      dup1\n      dup1\n      0x20\n      add\n      dup3\n      dup2\n      sub\n      dup3\n      mstore\n      0x1f\n      dup2\n      mstore\n      0x20\n      add\n      dup1\n      0x5361666545524332303a2063616c6c20746f206e6f6e2d636f6e747261637400\n      dup2\n      mstore\n      pop\n      0x20\n      add\n      swap2\n      pop\n      pop\n      mload(0x40)\n      dup1\n      swap2\n      sub\n      swap1\n      revert\n    tag_55:\n        /* \"https://github.com/OpenZeppelin/openzeppelin-contracts/blob/release-v2.5.0/contracts/token/ERC20/SafeERC20.sol\":3395:3407  bool success */\n      0x00\n        /* \"https://github.com/OpenZeppelin/openzeppelin-contracts/blob/release-v2.5.0/contracts/token/ERC20/SafeERC20.sol\":3409:3432  bytes memory returndata */\n      0x60\n        /* \"https://github.com/OpenZeppelin/openzeppelin-contracts/blob/release-v2.5.0/contracts/token/ERC20/SafeERC20.sol\":3444:3449  token */\n      dup4\n        /* \"https://github.com/OpenZeppelin/openzeppelin-contracts/blob/release-v2.5.0/contracts/token/ERC20/SafeERC20.sol\":3436:3455  address(token).call */\n      0xffffffffffffffffffffffffffffffffffffffff\n      and\n        /* \"https://github.com/OpenZeppelin/openzeppelin-contracts/blob/release-v2.5.0/contracts/token/ERC20/SafeERC20.sol\":3456:3460  data */\n      dup4\n        /* \"https://github.com/OpenZeppelin/openzeppelin-contracts/blob/release-v2.5.0/contracts/token/ERC20/SafeERC20.sol\":3436:3461  address(token).call(data) */\n      mload(0x40)\n      dup1\n      dup3\n      dup1\n      mload\n      swap1\n      0x20\n      add\n      swap1\n      dup1\n      dup4\n      dup4\n        /* \"--CODEGEN--\":36:189   */\n    tag_56:\n        /* \"--CODEGEN--\":66:68   */\n      0x20\n        /* \"--CODEGEN--\":61:64   */\n      dup4\n        /* \"--CODEGEN--\":58:69   */\n      lt\n        /* \"--CODEGEN--\":51:70   */\n      iszero\n        /* \"--CODEGEN--\":36:189   */\n      iszero\n      tag_57\n      jumpi\n        /* \"--CODEGEN--\":182:185   */\n      dup1\n        /* \"--CODEGEN--\":176:186   */\n      mload\n        /* \"--CODEGEN--\":171:174   */\n      dup3\n        /* \"--CODEGEN--\":164:187   */\n      mstore\n        /* \"--CODEGEN--\":98:100   */\n      0x20\n        /* \"--CODEGEN--\":93:96   */\n      dup3\n        /* \"--CODEGEN--\":89:101   */\n      add\n        /* \"--CODEGEN--\":82:101   */\n      swap2\n      pop\n        /* \"--CODEGEN--\":123:125   */\n      0x20\n        /* \"--CODEGEN--\":118:121   */\n      dup2\n        /* \"--CODEGEN--\":114:126   */\n      add\n        /* \"--CODEGEN--\":107:126   */\n      swap1\n      pop\n        /* \"--CODEGEN--\":148:150   */\n      0x20\n        /* \"--CODEGEN--\":143:146   */\n      dup4\n        /* \"--CODEGEN--\":139:151   */\n      sub\n        /* \"--CODEGEN--\":132:151   */\n      swap3\n      pop\n        /* \"--CODEGEN--\":36:189   */\n      jump(tag_56)\n    tag_57:\n        /* \"--CODEGEN--\":274:275   */\n      0x01\n        /* \"--CODEGEN--\":267:270   */\n      dup4\n        /* \"--CODEGEN--\":263:265   */\n      0x20\n        /* \"--CODEGEN--\":259:271   */\n      sub\n        /* \"--CODEGEN--\":254:257   */\n      0x0100\n        /* \"--CODEGEN--\":250:272   */\n      exp\n        /* \"--CODEGEN--\":246:276   */\n      sub\n        /* \"--CODEGEN--\":315:319   */\n      dup1\n        /* \"--CODEGEN--\":311:320   */\n      not\n        /* \"--CODEGEN--\":305:308   */\n      dup3\n        /* \"--CODEGEN--\":299:309   */\n      mload\n        /* \"--CODEGEN--\":295:321   */\n      and\n        /* \"--CODEGEN--\":356:360   */\n      dup2\n        /* \"--CODEGEN--\":350:353   */\n      dup5\n        /* \"--CODEGEN--\":344:354   */\n      mload\n        /* \"--CODEGEN--\":340:361   */\n      and\n        /* \"--CODEGEN--\":389:396   */\n      dup1\n        /* \"--CODEGEN--\":380:387   */\n      dup3\n        /* \"--CODEGEN--\":377:397   */\n      or\n        /* \"--CODEGEN--\":372:375   */\n      dup6\n        /* \"--CODEGEN--\":365:398   */\n      mstore\n        /* \"--CODEGEN--\":3:402   */\n      pop\n      pop\n      pop\n        /* \"https://github.com/OpenZeppelin/openzeppelin-contracts/blob/release-v2.5.0/contracts/token/ERC20/SafeERC20.sol\":3436:3461  address(token).call(data) */\n      pop\n      pop\n      pop\n      swap1\n      pop\n      add\n      swap2\n      pop\n      pop\n      0x00\n      mload(0x40)\n      dup1\n      dup4\n      sub\n      dup2\n      0x00\n      dup7\n      gas\n      call\n      swap2\n      pop\n      pop\n      returndatasize\n        /* \"--CODEGEN--\":14:15   */\n      dup1\n        /* \"--CODEGEN--\":21:22   */\n      0x00\n        /* \"--CODEGEN--\":16:47   */\n      dup2\n      eq\n      tag_60\n      jumpi\n        /* \"--CODEGEN--\":75:79   */\n      0x40\n        /* \"--CODEGEN--\":69:80   */\n      mload\n        /* \"--CODEGEN--\":64:80   */\n      swap2\n      pop\n        /* \"--CODEGEN--\":144:148   */\n      0x1f\n        /* \"--CODEGEN--\":140:149   */\n      not\n        /* \"--CODEGEN--\":133:137   */\n      0x3f\n        /* \"--CODEGEN--\":115:131   */\n      returndatasize\n        /* \"--CODEGEN--\":111:138   */\n      add\n        /* \"--CODEGEN--\":107:150   */\n      and\n        /* \"--CODEGEN--\":104:105   */\n      dup3\n        /* \"--CODEGEN--\":100:151   */\n      add\n        /* \"--CODEGEN--\":94:98   */\n      0x40\n        /* \"--CODEGEN--\":87:152   */\n      mstore\n        /* \"--CODEGEN--\":169:185   */\n      returndatasize\n        /* \"--CODEGEN--\":166:167   */\n      dup3\n        /* \"--CODEGEN--\":159:186   */\n      mstore\n        /* \"--CODEGEN--\":225:241   */\n      returndatasize\n        /* \"--CODEGEN--\":222:223   */\n      0x00\n        /* \"--CODEGEN--\":215:219   */\n      0x20\n        /* \"--CODEGEN--\":212:213   */\n      dup5\n        /* \"--CODEGEN--\":208:220   */\n      add\n        /* \"--CODEGEN--\":193:242   */\n      returndatacopy\n        /* \"--CODEGEN--\":7:249   */\n      jump(tag_59)\n        /* \"--CODEGEN--\":16:47   */\n    tag_60:\n        /* \"--CODEGEN--\":36:40   */\n      0x60\n        /* \"--CODEGEN--\":31:40   */\n      swap2\n      pop\n        /* \"--CODEGEN--\":7:249   */\n    tag_59:\n      pop\n        /* \"https://github.com/OpenZeppelin/openzeppelin-contracts/blob/release-v2.5.0/contracts/token/ERC20/SafeERC20.sol\":3394:3461  (bool success, bytes memory returndata) = address(token).call(data) */\n      swap2\n      pop\n      swap2\n      pop\n        /* \"https://github.com/OpenZeppelin/openzeppelin-contracts/blob/release-v2.5.0/contracts/token/ERC20/SafeERC20.sol\":3479:3486  success */\n      dup2\n        /* \"https://github.com/OpenZeppelin/openzeppelin-contracts/blob/release-v2.5.0/contracts/token/ERC20/SafeERC20.sol\":3471:3523  require(success, \"SafeERC20: low-level call failed\") */\n      iszero\n      iszero\n      tag_61\n      jumpi\n      mload(0x40)\n      0x08c379a000000000000000000000000000000000000000000000000000000000\n      dup2\n      mstore\n      0x04\n      add\n      dup1\n      dup1\n      0x20\n      add\n      dup3\n      dup2\n      sub\n      dup3\n      mstore\n      0x20\n      dup2\n      mstore\n      0x20\n      add\n      dup1\n      0x5361666545524332303a206c6f772d6c6576656c2063616c6c206661696c6564\n      dup2\n      mstore\n      pop\n      0x20\n      add\n      swap2\n      pop\n      pop\n      mload(0x40)\n      dup1\n      swap2\n      sub\n      swap1\n      revert\n    tag_61:\n        /* \"https://github.com/OpenZeppelin/openzeppelin-contracts/blob/release-v2.5.0/contracts/token/ERC20/SafeERC20.sol\":3558:3559  0 */\n      0x00\n        /* \"https://github.com/OpenZeppelin/openzeppelin-contracts/blob/release-v2.5.0/contracts/token/ERC20/SafeERC20.sol\":3538:3548  returndata */\n      dup2\n        /* \"https://github.com/OpenZeppelin/openzeppelin-contracts/blob/release-v2.5.0/contracts/token/ERC20/SafeERC20.sol\":3538:3555  returndata.length */\n      mload\n        /* \"https://github.com/OpenZeppelin/openzeppelin-contracts/blob/release-v2.5.0/contracts/token/ERC20/SafeERC20.sol\":3538:3559  returndata.length > 0 */\n      gt\n        /* \"https://github.com/OpenZeppelin/openzeppelin-contracts/blob/release-v2.5.0/contracts/token/ERC20/SafeERC20.sol\":3534:3755  if (returndata.length > 0) { // Return data is optional... */\n      iszero\n      tag_62\n      jumpi\n        /* \"https://github.com/OpenZeppelin/openzeppelin-contracts/blob/release-v2.5.0/contracts/token/ERC20/SafeERC20.sol\":3678:3688  returndata */\n      dup1\n        /* \"https://github.com/OpenZeppelin/openzeppelin-contracts/blob/release-v2.5.0/contracts/token/ERC20/SafeERC20.sol\":3667:3697  abi.decode(returndata, (bool)) */\n      dup1\n      0x20\n      add\n      swap1\n      mload\n        /* \"--CODEGEN--\":13:15   */\n      0x20\n        /* \"--CODEGEN--\":8:11   */\n      dup2\n        /* \"--CODEGEN--\":5:16   */\n      lt\n        /* \"--CODEGEN--\":2:4   */\n      iszero\n      tag_63\n      jumpi\n        /* \"--CODEGEN--\":29:30   */\n      0x00\n        /* \"--CODEGEN--\":26:27   */\n      dup1\n        /* \"--CODEGEN--\":19:31   */\n      revert\n        /* \"--CODEGEN--\":2:4   */\n    tag_63:\n        /* \"https://github.com/OpenZeppelin/openzeppelin-contracts/blob/release-v2.5.0/contracts/token/ERC20/SafeERC20.sol\":3667:3697  abi.decode(returndata, (bool)) */\n      dup2\n      add\n      swap1\n      dup1\n      dup1\n      mload\n      swap1\n      0x20\n      add\n      swap1\n      swap3\n      swap2\n      swap1\n      pop\n      pop\n      pop\n        /* \"https://github.com/OpenZeppelin/openzeppelin-contracts/blob/release-v2.5.0/contracts/token/ERC20/SafeERC20.sol\":3659:3744  require(abi.decode(returndata, (bool)), \"SafeERC20: ERC20 operation did not succeed\") */\n      iszero\n      iszero\n      tag_64\n      jumpi\n      mload(0x40)\n      0x08c379a000000000000000000000000000000000000000000000000000000000\n      dup2\n      mstore\n      0x04\n      add\n      dup1\n      dup1\n      0x20\n      add\n      dup3\n      dup2\n      sub\n      dup3\n      mstore\n      0x2a\n      dup2\n      mstore\n      0x20\n      add\n      dup1\n      data_e11ad79d1e4a7f2e5f376964cb99e8e8f7904e3fc16a109f7a7ecb9aa7956dcd\n      0x2a\n      swap2\n      codecopy\n      0x40\n      add\n      swap2\n      pop\n      pop\n      mload(0x40)\n      dup1\n      swap2\n      sub\n      swap1\n      revert\n    tag_64:\n        /* \"https://github.com/OpenZeppelin/openzeppelin-contracts/blob/release-v2.5.0/contracts/token/ERC20/SafeERC20.sol\":3534:3755  if (returndata.length > 0) { // Return data is optional... */\n    tag_62:\n        /* \"https://github.com/OpenZeppelin/openzeppelin-contracts/blob/release-v2.5.0/contracts/token/ERC20/SafeERC20.sol\":2666:3761  function callOptionalReturn(IERC20 token, bytes memory data) private {... */\n      pop\n      pop\n      pop\n      pop\n      jump\t// out\n        /* \"https://github.com/OpenZeppelin/openzeppelin-contracts/blob/release-v2.5.0/contracts/utils/Address.sol\":686:1296  function isContract(address account) internal view returns (bool) {... */\n    tag_54:\n        /* \"https://github.com/OpenZeppelin/openzeppelin-contracts/blob/release-v2.5.0/contracts/utils/Address.sol\":746:750  bool */\n      0x00\n        /* \"https://github.com/OpenZeppelin/openzeppelin-contracts/blob/release-v2.5.0/contracts/utils/Address.sol\":1004:1020  bytes32 codehash */\n      dup1\n        /* \"https://github.com/OpenZeppelin/openzeppelin-contracts/blob/release-v2.5.0/contracts/utils/Address.sol\":1030:1049  bytes32 accountHash */\n      0x00\n        /* \"https://github.com/OpenZeppelin/openzeppelin-contracts/blob/release-v2.5.0/contracts/utils/Address.sol\":1052:1118  0xc5d2460186f7233c927e7db2dcc703c0e500b653ca82273b7bfad8045d85a470 */\n      0xc5d2460186f7233c927e7db2dcc703c0e500b653ca82273b7bfad8045d85a470\n        /* \"https://github.com/OpenZeppelin/openzeppelin-contracts/blob/release-v2.5.0/contracts/utils/Address.sol\":1030:1118  bytes32 accountHash = 0xc5d2460186f7233c927e7db2dcc703c0e500b653ca82273b7bfad8045d85a470 */\n      0x00\n      shl\n      swap1\n      pop\n        /* \"https://github.com/OpenZeppelin/openzeppelin-contracts/blob/release-v2.5.0/contracts/utils/Address.sol\":1219:1226  account */\n      dup4\n        /* \"https://github.com/OpenZeppelin/openzeppelin-contracts/blob/release-v2.5.0/contracts/utils/Address.sol\":1207:1227  extcodehash(account) */\n      extcodehash\n        /* \"https://github.com/OpenZeppelin/openzeppelin-contracts/blob/release-v2.5.0/contracts/utils/Address.sol\":1195:1227  codehash := extcodehash(account) */\n      swap2\n      pop\n        /* \"https://github.com/OpenZeppelin/openzeppelin-contracts/blob/release-v2.5.0/contracts/utils/Address.sol\":1258:1269  accountHash */\n      dup1\n        /* \"https://github.com/OpenZeppelin/openzeppelin-contracts/blob/release-v2.5.0/contracts/utils/Address.sol\":1246:1254  codehash */\n      dup3\n        /* \"https://github.com/OpenZeppelin/openzeppelin-contracts/blob/release-v2.5.0/contracts/utils/Address.sol\":1246:1269  codehash != accountHash */\n      eq\n      iszero\n        /* \"https://github.com/OpenZeppelin/openzeppelin-contracts/blob/release-v2.5.0/contracts/utils/Address.sol\":1246:1288  codehash != accountHash && codehash != 0x0 */\n      dup1\n      iszero\n      tag_66\n      jumpi\n      pop\n        /* \"https://github.com/OpenZeppelin/openzeppelin-contracts/blob/release-v2.5.0/contracts/utils/Address.sol\":1285:1288  0x0 */\n      0x00\n        /* \"https://github.com/OpenZeppelin/openzeppelin-contracts/blob/release-v2.5.0/contracts/utils/Address.sol\":1273:1288  codehash != 0x0 */\n      dup1\n      shl\n        /* \"https://github.com/OpenZeppelin/openzeppelin-contracts/blob/release-v2.5.0/contracts/utils/Address.sol\":1273:1281  codehash */\n      dup3\n        /* \"https://github.com/OpenZeppelin/openzeppelin-contracts/blob/release-v2.5.0/contracts/utils/Address.sol\":1273:1288  codehash != 0x0 */\n      eq\n      iszero\n        /* \"https://github.com/OpenZeppelin/openzeppelin-contracts/blob/release-v2.5.0/contracts/utils/Address.sol\":1246:1288  codehash != accountHash && codehash != 0x0 */\n    tag_66:\n        /* \"https://github.com/OpenZeppelin/openzeppelin-contracts/blob/release-v2.5.0/contracts/utils/Address.sol\":1238:1289  return (codehash != accountHash && codehash != 0x0) */\n      swap3\n      pop\n      pop\n      pop\n        /* \"https://github.com/OpenZeppelin/openzeppelin-contracts/blob/release-v2.5.0/contracts/utils/Address.sol\":686:1296  function isContract(address account) internal view returns (bool) {... */\n      swap2\n      swap1\n      pop\n      jump\t// out\n    stop\n    data_245f15ff17f551913a7a18385165551503906a406f905ac1c2437281a7cd0cfe 4f776e61626c653a206e6577206f776e657220697320746865207a65726f2061646472657373\n    data_e11ad79d1e4a7f2e5f376964cb99e8e8f7904e3fc16a109f7a7ecb9aa7956dcd 5361666545524332303a204552433230206f7065726174696f6e20646964206e6f742073756363656564\n\n    auxdata: 0xa165627a7a72305820f3e9921ee8a01131d3a8d69f459b4ab8a1bdff31644854dbc93d9869596d90010029\n}\n",
				"bytecode": {
					"linkReferences": {},
					"object": "608060405260006100146100b760201b60201c565b9050806000806101000a81548173ffffffffffffffffffffffffffffffffffffffff021916908373ffffffffffffffffffffffffffffffffffffffff1602179055508073ffffffffffffffffffffffffffffffffffffffff16600073ffffffffffffffffffffffffffffffffffffffff167f8be0079c531659141344cd1fd0a4f28419497f9722a3daafe3b4186f6b6457e060405160405180910390a3506100bf565b600033905090565b610b4a806100ce6000396000f3fe608060405234801561001057600080fd5b50600436106100575760003560e01c806351cff8d91461005c578063715018a6146100a05780638da5cb5b146100aa5780638f32d59b146100f4578063f2fde38b14610116575b600080fd5b61009e6004803603602081101561007257600080fd5b81019080803573ffffffffffffffffffffffffffffffffffffffff16906020019092919050505061015a565b005b6100a86103c7565b005b6100b2610502565b604051808273ffffffffffffffffffffffffffffffffffffffff1673ffffffffffffffffffffffffffffffffffffffff16815260200191505060405180910390f35b6100fc61052b565b604051808215151515815260200191505060405180910390f35b6101586004803603602081101561012c57600080fd5b81019080803573ffffffffffffffffffffffffffffffffffffffff169060200190929190505050610589565b005b61016261052b565b15156101d6576040517f08c379a00000000000000000000000000000000000000000000000000000000081526004018080602001828103825260208152602001807f4f776e61626c653a2063616c6c6572206973206e6f7420746865206f776e657281525060200191505060405180910390fd5b60008073ffffffffffffffffffffffffffffffffffffffff168273ffffffffffffffffffffffffffffffffffffffff1614156102785760003090508073ffffffffffffffffffffffffffffffffffffffff163191503373ffffffffffffffffffffffffffffffffffffffff166108fc839081150290604051600060405180830381858888f19350505050158015610271573d6000803e3d6000fd5b505061035e565b8173ffffffffffffffffffffffffffffffffffffffff166370a08231306040518263ffffffff1660e01b8152600401808273ffffffffffffffffffffffffffffffffffffffff1673ffffffffffffffffffffffffffffffffffffffff16815260200191505060206040518083038186803b1580156102f557600080fd5b505afa158015610309573d6000803e3d6000fd5b505050506040513d602081101561031f57600080fd5b8101908080519060200190929190505050905061035d33828473ffffffffffffffffffffffffffffffffffffffff166106119092919063ffffffff16565b5b8173ffffffffffffffffffffffffffffffffffffffff163373ffffffffffffffffffffffffffffffffffffffff167f9207361cc2a04b9c7a06691df1eb87c6a63957ae88bf01d0d18c81e3d1272099836040518082815260200191505060405180910390a35050565b6103cf61052b565b1515610443576040517f08c379a00000000000000000000000000000000000000000000000000000000081526004018080602001828103825260208152602001807f4f776e61626c653a2063616c6c6572206973206e6f7420746865206f776e657281525060200191505060405180910390fd5b600073ffffffffffffffffffffffffffffffffffffffff166000809054906101000a900473ffffffffffffffffffffffffffffffffffffffff1673ffffffffffffffffffffffffffffffffffffffff167f8be0079c531659141344cd1fd0a4f28419497f9722a3daafe3b4186f6b6457e060405160405180910390a360008060006101000a81548173ffffffffffffffffffffffffffffffffffffffff021916908373ffffffffffffffffffffffffffffffffffffffff160217905550565b60008060009054906101000a900473ffffffffffffffffffffffffffffffffffffffff16905090565b60008060009054906101000a900473ffffffffffffffffffffffffffffffffffffffff1673ffffffffffffffffffffffffffffffffffffffff1661056d6106e2565b73ffffffffffffffffffffffffffffffffffffffff1614905090565b61059161052b565b1515610605576040517f08c379a00000000000000000000000000000000000000000000000000000000081526004018080602001828103825260208152602001807f4f776e61626c653a2063616c6c6572206973206e6f7420746865206f776e657281525060200191505060405180910390fd5b61060e816106ea565b50565b6106dd838473ffffffffffffffffffffffffffffffffffffffff1663a9059cbb905060e01b8484604051602401808373ffffffffffffffffffffffffffffffffffffffff1673ffffffffffffffffffffffffffffffffffffffff16815260200182815260200192505050604051602081830303815290604052907bffffffffffffffffffffffffffffffffffffffffffffffffffffffff19166020820180517bffffffffffffffffffffffffffffffffffffffffffffffffffffffff8381831617835250505050610830565b505050565b600033905090565b600073ffffffffffffffffffffffffffffffffffffffff168173ffffffffffffffffffffffffffffffffffffffff1614151515610772576040517f08c379a0000000000000000000000000000000000000000000000000000000008152600401808060200182810382526026815260200180610acf6026913960400191505060405180910390fd5b8073ffffffffffffffffffffffffffffffffffffffff166000809054906101000a900473ffffffffffffffffffffffffffffffffffffffff1673ffffffffffffffffffffffffffffffffffffffff167f8be0079c531659141344cd1fd0a4f28419497f9722a3daafe3b4186f6b6457e060405160405180910390a3806000806101000a81548173ffffffffffffffffffffffffffffffffffffffff021916908373ffffffffffffffffffffffffffffffffffffffff16021790555050565b61084f8273ffffffffffffffffffffffffffffffffffffffff16610a83565b15156108c3576040517f08c379a000000000000000000000000000000000000000000000000000000000815260040180806020018281038252601f8152602001807f5361666545524332303a2063616c6c20746f206e6f6e2d636f6e74726163740081525060200191505060405180910390fd5b600060608373ffffffffffffffffffffffffffffffffffffffff16836040518082805190602001908083835b60208310151561091457805182526020820191506020810190506020830392506108ef565b6001836020036101000a0380198251168184511680821785525050505050509050019150506000604051808303816000865af19150503d8060008114610976576040519150601f19603f3d011682016040523d82523d6000602084013e61097b565b606091505b50915091508115156109f5576040517f08c379a00000000000000000000000000000000000000000000000000000000081526004018080602001828103825260208152602001807f5361666545524332303a206c6f772d6c6576656c2063616c6c206661696c656481525060200191505060405180910390fd5b600081511115610a7d57808060200190516020811015610a1457600080fd5b81019080805190602001909291905050501515610a7c576040517f08c379a000000000000000000000000000000000000000000000000000000000815260040180806020018281038252602a815260200180610af5602a913960400191505060405180910390fd5b5b50505050565b60008060007fc5d2460186f7233c927e7db2dcc703c0e500b653ca82273b7bfad8045d85a47060001b9050833f9150808214158015610ac557506000801b8214155b9250505091905056fe4f776e61626c653a206e6577206f776e657220697320746865207a65726f20616464726573735361666545524332303a204552433230206f7065726174696f6e20646964206e6f742073756363656564a165627a7a72305820f3e9921ee8a01131d3a8d69f459b4ab8a1bdff31644854dbc93d9869596d90010029",
					"opcodes": "PUSH1 0x80 PUSH1 0x40 MSTORE PUSH1 0x0 PUSH2 0x14 PUSH2 0xB7 PUSH1 0x20 SHL PUSH1 0x20 SHR JUMP JUMPDEST SWAP1 POP DUP1 PUSH1 0x0 DUP1 PUSH2 0x100 EXP DUP2 SLOAD DUP2 PUSH20 0xFFFFFFFFFFFFFFFFFFFFFFFFFFFFFFFFFFFFFFFF MUL NOT AND SWAP1 DUP4 PUSH20 0xFFFFFFFFFFFFFFFFFFFFFFFFFFFFFFFFFFFFFFFF AND MUL OR SWAP1 SSTORE POP DUP1 PUSH20 0xFFFFFFFFFFFFFFFFFFFFFFFFFFFFFFFFFFFFFFFF AND PUSH1 0x0 PUSH20 0xFFFFFFFFFFFFFFFFFFFFFFFFFFFFFFFFFFFFFFFF AND PUSH32 0x8BE0079C531659141344CD1FD0A4F28419497F9722A3DAAFE3B4186F6B6457E0 PUSH1 0x40 MLOAD PUSH1 0x40 MLOAD DUP1 SWAP2 SUB SWAP1 LOG3 POP PUSH2 0xBF JUMP JUMPDEST PUSH1 0x0 CALLER SWAP1 POP SWAP1 JUMP JUMPDEST PUSH2 0xB4A DUP1 PUSH2 0xCE PUSH1 0x0 CODECOPY PUSH1 0x0 RETURN INVALID PUSH1 0x80 PUSH1 0x40 MSTORE CALLVALUE DUP1 ISZERO PUSH2 0x10 JUMPI PUSH1 0x0 DUP1 REVERT JUMPDEST POP PUSH1 0x4 CALLDATASIZE LT PUSH2 0x57 JUMPI PUSH1 0x0 CALLDATALOAD PUSH1 0xE0 SHR DUP1 PUSH4 0x51CFF8D9 EQ PUSH2 0x5C JUMPI DUP1 PUSH4 0x715018A6 EQ PUSH2 0xA0 JUMPI DUP1 PUSH4 0x8DA5CB5B EQ PUSH2 0xAA JUMPI DUP1 PUSH4 0x8F32D59B EQ PUSH2 0xF4 JUMPI DUP1 PUSH4 0xF2FDE38B EQ PUSH2 0x116 JUMPI JUMPDEST PUSH1 0x0 DUP1 REVERT JUMPDEST PUSH2 0x9E PUSH1 0x4 DUP1 CALLDATASIZE SUB PUSH1 0x20 DUP2 LT ISZERO PUSH2 0x72 JUMPI PUSH1 0x0 DUP1 REVERT JUMPDEST DUP2 ADD SWAP1 DUP1 DUP1 CALLDATALOAD PUSH20 0xFFFFFFFFFFFFFFFFFFFFFFFFFFFFFFFFFFFFFFFF AND SWAP1 PUSH1 0x20 ADD SWAP1 SWAP3 SWAP2 SWAP1 POP POP POP PUSH2 0x15A JUMP JUMPDEST STOP JUMPDEST PUSH2 0xA8 PUSH2 0x3C7 JUMP JUMPDEST STOP JUMPDEST PUSH2 0xB2 PUSH2 0x502 JUMP JUMPDEST PUSH1 0x40 MLOAD DUP1 DUP3 PUSH20 0xFFFFFFFFFFFFFFFFFFFFFFFFFFFFFFFFFFFFFFFF AND PUSH20 0xFFFFFFFFFFFFFFFFFFFFFFFFFFFFFFFFFFFFFFFF AND DUP2 MSTORE PUSH1 0x20 ADD SWAP2 POP POP PUSH1 0x40 MLOAD DUP1 SWAP2 SUB SWAP1 RETURN JUMPDEST PUSH2 0xFC PUSH2 0x52B JUMP JUMPDEST PUSH1 0x40 MLOAD DUP1 DUP3 ISZERO ISZERO ISZERO ISZERO DUP2 MSTORE PUSH1 0x20 ADD SWAP2 POP POP PUSH1 0x40 MLOAD DUP1 SWAP2 SUB SWAP1 RETURN JUMPDEST PUSH2 0x158 PUSH1 0x4 DUP1 CALLDATASIZE SUB PUSH1 0x20 DUP2 LT ISZERO PUSH2 0x12C JUMPI PUSH1 0x0 DUP1 REVERT JUMPDEST DUP2 ADD SWAP1 DUP1 DUP1 CALLDATALOAD PUSH20 0xFFFFFFFFFFFFFFFFFFFFFFFFFFFFFFFFFFFFFFFF AND SWAP1 PUSH1 0x20 ADD SWAP1 SWAP3 SWAP2 SWAP1 POP POP POP PUSH2 0x589 JUMP JUMPDEST STOP JUMPDEST PUSH2 0x162 PUSH2 0x52B JUMP JUMPDEST ISZERO ISZERO PUSH2 0x1D6 JUMPI PUSH1 0x40 MLOAD PUSH32 0x8C379A000000000000000000000000000000000000000000000000000000000 DUP2 MSTORE PUSH1 0x4 ADD DUP1 DUP1 PUSH1 0x20 ADD DUP3 DUP2 SUB DUP3 MSTORE PUSH1 0x20 DUP2 MSTORE PUSH1 0x20 ADD DUP1 PUSH32 0x4F776E61626C653A2063616C6C6572206973206E6F7420746865206F776E6572 DUP2 MSTORE POP PUSH1 0x20 ADD SWAP2 POP POP PUSH1 0x40 MLOAD DUP1 SWAP2 SUB SWAP1 REVERT JUMPDEST PUSH1 0x0 DUP1 PUSH20 0xFFFFFFFFFFFFFFFFFFFFFFFFFFFFFFFFFFFFFFFF AND DUP3 PUSH20 0xFFFFFFFFFFFFFFFFFFFFFFFFFFFFFFFFFFFFFFFF AND EQ ISZERO PUSH2 0x278 JUMPI PUSH1 0x0 ADDRESS SWAP1 POP DUP1 PUSH20 0xFFFFFFFFFFFFFFFFFFFFFFFFFFFFFFFFFFFFFFFF AND BALANCE SWAP2 POP CALLER PUSH20 0xFFFFFFFFFFFFFFFFFFFFFFFFFFFFFFFFFFFFFFFF AND PUSH2 0x8FC DUP4 SWAP1 DUP2 ISZERO MUL SWAP1 PUSH1 0x40 MLOAD PUSH1 0x0 PUSH1 0x40 MLOAD DUP1 DUP4 SUB DUP2 DUP6 DUP9 DUP9 CALL SWAP4 POP POP POP POP ISZERO DUP1 ISZERO PUSH2 0x271 JUMPI RETURNDATASIZE PUSH1 0x0 DUP1 RETURNDATACOPY RETURNDATASIZE PUSH1 0x0 REVERT JUMPDEST POP POP PUSH2 0x35E JUMP JUMPDEST DUP2 PUSH20 0xFFFFFFFFFFFFFFFFFFFFFFFFFFFFFFFFFFFFFFFF AND PUSH4 0x70A08231 ADDRESS PUSH1 0x40 MLOAD DUP3 PUSH4 0xFFFFFFFF AND PUSH1 0xE0 SHL DUP2 MSTORE PUSH1 0x4 ADD DUP1 DUP3 PUSH20 0xFFFFFFFFFFFFFFFFFFFFFFFFFFFFFFFFFFFFFFFF AND PUSH20 0xFFFFFFFFFFFFFFFFFFFFFFFFFFFFFFFFFFFFFFFF AND DUP2 MSTORE PUSH1 0x20 ADD SWAP2 POP POP PUSH1 0x20 PUSH1 0x40 MLOAD DUP1 DUP4 SUB DUP2 DUP7 DUP1 EXTCODESIZE ISZERO DUP1 ISZERO PUSH2 0x2F5 JUMPI PUSH1 0x0 DUP1 REVERT JUMPDEST POP GAS STATICCALL ISZERO DUP1 ISZERO PUSH2 0x309 JUMPI RETURNDATASIZE PUSH1 0x0 DUP1 RETURNDATACOPY RETURNDATASIZE PUSH1 0x0 REVERT JUMPDEST POP POP POP POP PUSH1 0x40 MLOAD RETURNDATASIZE PUSH1 0x20 DUP2 LT ISZERO PUSH2 0x31F JUMPI PUSH1 0x0 DUP1 REVERT JUMPDEST DUP2 ADD SWAP1 DUP1 DUP1 MLOAD SWAP1 PUSH1 0x20 ADD SWAP1 SWAP3 SWAP2 SWAP1 POP POP POP SWAP1 POP PUSH2 0x35D CALLER DUP3 DUP5 PUSH20 0xFFFFFFFFFFFFFFFFFFFFFFFFFFFFFFFFFFFFFFFF AND PUSH2 0x611 SWAP1 SWAP3 SWAP2 SWAP1 PUSH4 0xFFFFFFFF AND JUMP JUMPDEST JUMPDEST DUP2 PUSH20 0xFFFFFFFFFFFFFFFFFFFFFFFFFFFFFFFFFFFFFFFF AND CALLER PUSH20 0xFFFFFFFFFFFFFFFFFFFFFFFFFFFFFFFFFFFFFFFF AND PUSH32 0x9207361CC2A04B9C7A06691DF1EB87C6A63957AE88BF01D0D18C81E3D1272099 DUP4 PUSH1 0x40 MLOAD DUP1 DUP3 DUP2 MSTORE PUSH1 0x20 ADD SWAP2 POP POP PUSH1 0x40 MLOAD DUP1 SWAP2 SUB SWAP1 LOG3 POP POP JUMP JUMPDEST PUSH2 0x3CF PUSH2 0x52B JUMP JUMPDEST ISZERO ISZERO PUSH2 0x443 JUMPI PUSH1 0x40 MLOAD PUSH32 0x8C379A000000000000000000000000000000000000000000000000000000000 DUP2 MSTORE PUSH1 0x4 ADD DUP1 DUP1 PUSH1 0x20 ADD DUP3 DUP2 SUB DUP3 MSTORE PUSH1 0x20 DUP2 MSTORE PUSH1 0x20 ADD DUP1 PUSH32 0x4F776E61626C653A2063616C6C6572206973206E6F7420746865206F776E6572 DUP2 MSTORE POP PUSH1 0x20 ADD SWAP2 POP POP PUSH1 0x40 MLOAD DUP1 SWAP2 SUB SWAP1 REVERT JUMPDEST PUSH1 0x0 PUSH20 0xFFFFFFFFFFFFFFFFFFFFFFFFFFFFFFFFFFFFFFFF AND PUSH1 0x0 DUP1 SWAP1 SLOAD SWAP1 PUSH2 0x100 EXP SWAP1 DIV PUSH20 0xFFFFFFFFFFFFFFFFFFFFFFFFFFFFFFFFFFFFFFFF AND PUSH20 0xFFFFFFFFFFFFFFFFFFFFFFFFFFFFFFFFFFFFFFFF AND PUSH32 0x8BE0079C531659141344CD1FD0A4F28419497F9722A3DAAFE3B4186F6B6457E0 PUSH1 0x40 MLOAD PUSH1 0x40 MLOAD DUP1 SWAP2 SUB SWAP1 LOG3 PUSH1 0x0 DUP1 PUSH1 0x0 PUSH2 0x100 EXP DUP2 SLOAD DUP2 PUSH20 0xFFFFFFFFFFFFFFFFFFFFFFFFFFFFFFFFFFFFFFFF MUL NOT AND SWAP1 DUP4 PUSH20 0xFFFFFFFFFFFFFFFFFFFFFFFFFFFFFFFFFFFFFFFF AND MUL OR SWAP1 SSTORE POP JUMP JUMPDEST PUSH1 0x0 DUP1 PUSH1 0x0 SWAP1 SLOAD SWAP1 PUSH2 0x100 EXP SWAP1 DIV PUSH20 0xFFFFFFFFFFFFFFFFFFFFFFFFFFFFFFFFFFFFFFFF AND SWAP1 POP SWAP1 JUMP JUMPDEST PUSH1 0x0 DUP1 PUSH1 0x0 SWAP1 SLOAD SWAP1 PUSH2 0x100 EXP SWAP1 DIV PUSH20 0xFFFFFFFFFFFFFFFFFFFFFFFFFFFFFFFFFFFFFFFF AND PUSH20 0xFFFFFFFFFFFFFFFFFFFFFFFFFFFFFFFFFFFFFFFF AND PUSH2 0x56D PUSH2 0x6E2 JUMP JUMPDEST PUSH20 0xFFFFFFFFFFFFFFFFFFFFFFFFFFFFFFFFFFFFFFFF AND EQ SWAP1 POP SWAP1 JUMP JUMPDEST PUSH2 0x591 PUSH2 0x52B JUMP JUMPDEST ISZERO ISZERO PUSH2 0x605 JUMPI PUSH1 0x40 MLOAD PUSH32 0x8C379A000000000000000000000000000000000000000000000000000000000 DUP2 MSTORE PUSH1 0x4 ADD DUP1 DUP1 PUSH1 0x20 ADD DUP3 DUP2 SUB DUP3 MSTORE PUSH1 0x20 DUP2 MSTORE PUSH1 0x20 ADD DUP1 PUSH32 0x4F776E61626C653A2063616C6C6572206973206E6F7420746865206F776E6572 DUP2 MSTORE POP PUSH1 0x20 ADD SWAP2 POP POP PUSH1 0x40 MLOAD DUP1 SWAP2 SUB SWAP1 REVERT JUMPDEST PUSH2 0x60E DUP2 PUSH2 0x6EA JUMP JUMPDEST POP JUMP JUMPDEST PUSH2 0x6DD DUP4 DUP5 PUSH20 0xFFFFFFFFFFFFFFFFFFFFFFFFFFFFFFFFFFFFFFFF AND PUSH4 0xA9059CBB SWAP1 POP PUSH1 0xE0 SHL DUP5 DUP5 PUSH1 0x40 MLOAD PUSH1 0x24 ADD DUP1 DUP4 PUSH20 0xFFFFFFFFFFFFFFFFFFFFFFFFFFFFFFFFFFFFFFFF AND PUSH20 0xFFFFFFFFFFFFFFFFFFFFFFFFFFFFFFFFFFFFFFFF AND DUP2 MSTORE PUSH1 0x20 ADD DUP3 DUP2 MSTORE PUSH1 0x20 ADD SWAP3 POP POP POP PUSH1 0x40 MLOAD PUSH1 0x20 DUP2 DUP4 SUB SUB DUP2 MSTORE SWAP1 PUSH1 0x40 MSTORE SWAP1 PUSH28 0xFFFFFFFFFFFFFFFFFFFFFFFFFFFFFFFFFFFFFFFFFFFFFFFFFFFFFFFF NOT AND PUSH1 0x20 DUP3 ADD DUP1 MLOAD PUSH28 0xFFFFFFFFFFFFFFFFFFFFFFFFFFFFFFFFFFFFFFFFFFFFFFFFFFFFFFFF DUP4 DUP2 DUP4 AND OR DUP4 MSTORE POP POP POP POP PUSH2 0x830 JUMP JUMPDEST POP POP POP JUMP JUMPDEST PUSH1 0x0 CALLER SWAP1 POP SWAP1 JUMP JUMPDEST PUSH1 0x0 PUSH20 0xFFFFFFFFFFFFFFFFFFFFFFFFFFFFFFFFFFFFFFFF AND DUP2 PUSH20 0xFFFFFFFFFFFFFFFFFFFFFFFFFFFFFFFFFFFFFFFF AND EQ ISZERO ISZERO ISZERO PUSH2 0x772 JUMPI PUSH1 0x40 MLOAD PUSH32 0x8C379A000000000000000000000000000000000000000000000000000000000 DUP2 MSTORE PUSH1 0x4 ADD DUP1 DUP1 PUSH1 0x20 ADD DUP3 DUP2 SUB DUP3 MSTORE PUSH1 0x26 DUP2 MSTORE PUSH1 0x20 ADD DUP1 PUSH2 0xACF PUSH1 0x26 SWAP2 CODECOPY PUSH1 0x40 ADD SWAP2 POP POP PUSH1 0x40 MLOAD DUP1 SWAP2 SUB SWAP1 REVERT JUMPDEST DUP1 PUSH20 0xFFFFFFFFFFFFFFFFFFFFFFFFFFFFFFFFFFFFFFFF AND PUSH1 0x0 DUP1 SWAP1 SLOAD SWAP1 PUSH2 0x100 EXP SWAP1 DIV PUSH20 0xFFFFFFFFFFFFFFFFFFFFFFFFFFFFFFFFFFFFFFFF AND PUSH20 0xFFFFFFFFFFFFFFFFFFFFFFFFFFFFFFFFFFFFFFFF AND PUSH32 0x8BE0079C531659141344CD1FD0A4F28419497F9722A3DAAFE3B4186F6B6457E0 PUSH1 0x40 MLOAD PUSH1 0x40 MLOAD DUP1 SWAP2 SUB SWAP1 LOG3 DUP1 PUSH1 0x0 DUP1 PUSH2 0x100 EXP DUP2 SLOAD DUP2 PUSH20 0xFFFFFFFFFFFFFFFFFFFFFFFFFFFFFFFFFFFFFFFF MUL NOT AND SWAP1 DUP4 PUSH20 0xFFFFFFFFFFFFFFFFFFFFFFFFFFFFFFFFFFFFFFFF AND MUL OR SWAP1 SSTORE POP POP JUMP JUMPDEST PUSH2 0x84F DUP3 PUSH20 0xFFFFFFFFFFFFFFFFFFFFFFFFFFFFFFFFFFFFFFFF AND PUSH2 0xA83 JUMP JUMPDEST ISZERO ISZERO PUSH2 0x8C3 JUMPI PUSH1 0x40 MLOAD PUSH32 0x8C379A000000000000000000000000000000000000000000000000000000000 DUP2 MSTORE PUSH1 0x4 ADD DUP1 DUP1 PUSH1 0x20 ADD DUP3 DUP2 SUB DUP3 MSTORE PUSH1 0x1F DUP2 MSTORE PUSH1 0x20 ADD DUP1 PUSH32 0x5361666545524332303A2063616C6C20746F206E6F6E2D636F6E747261637400 DUP2 MSTORE POP PUSH1 0x20 ADD SWAP2 POP POP PUSH1 0x40 MLOAD DUP1 SWAP2 SUB SWAP1 REVERT JUMPDEST PUSH1 0x0 PUSH1 0x60 DUP4 PUSH20 0xFFFFFFFFFFFFFFFFFFFFFFFFFFFFFFFFFFFFFFFF AND DUP4 PUSH1 0x40 MLOAD DUP1 DUP3 DUP1 MLOAD SWAP1 PUSH1 0x20 ADD SWAP1 DUP1 DUP4 DUP4 JUMPDEST PUSH1 0x20 DUP4 LT ISZERO ISZERO PUSH2 0x914 JUMPI DUP1 MLOAD DUP3 MSTORE PUSH1 0x20 DUP3 ADD SWAP2 POP PUSH1 0x20 DUP2 ADD SWAP1 POP PUSH1 0x20 DUP4 SUB SWAP3 POP PUSH2 0x8EF JUMP JUMPDEST PUSH1 0x1 DUP4 PUSH1 0x20 SUB PUSH2 0x100 EXP SUB DUP1 NOT DUP3 MLOAD AND DUP2 DUP5 MLOAD AND DUP1 DUP3 OR DUP6 MSTORE POP POP POP POP POP POP SWAP1 POP ADD SWAP2 POP POP PUSH1 0x0 PUSH1 0x40 MLOAD DUP1 DUP4 SUB DUP2 PUSH1 0x0 DUP7 GAS CALL SWAP2 POP POP RETURNDATASIZE DUP1 PUSH1 0x0 DUP2 EQ PUSH2 0x976 JUMPI PUSH1 0x40 MLOAD SWAP2 POP PUSH1 0x1F NOT PUSH1 0x3F RETURNDATASIZE ADD AND DUP3 ADD PUSH1 0x40 MSTORE RETURNDATASIZE DUP3 MSTORE RETURNDATASIZE PUSH1 0x0 PUSH1 0x20 DUP5 ADD RETURNDATACOPY PUSH2 0x97B JUMP JUMPDEST PUSH1 0x60 SWAP2 POP JUMPDEST POP SWAP2 POP SWAP2 POP DUP2 ISZERO ISZERO PUSH2 0x9F5 JUMPI PUSH1 0x40 MLOAD PUSH32 0x8C379A000000000000000000000000000000000000000000000000000000000 DUP2 MSTORE PUSH1 0x4 ADD DUP1 DUP1 PUSH1 0x20 ADD DUP3 DUP2 SUB DUP3 MSTORE PUSH1 0x20 DUP2 MSTORE PUSH1 0x20 ADD DUP1 PUSH32 0x5361666545524332303A206C6F772D6C6576656C2063616C6C206661696C6564 DUP2 MSTORE POP PUSH1 0x20 ADD SWAP2 POP POP PUSH1 0x40 MLOAD DUP1 SWAP2 SUB SWAP1 REVERT JUMPDEST PUSH1 0x0 DUP2 MLOAD GT ISZERO PUSH2 0xA7D JUMPI DUP1 DUP1 PUSH1 0x20 ADD SWAP1 MLOAD PUSH1 0x20 DUP2 LT ISZERO PUSH2 0xA14 JUMPI PUSH1 0x0 DUP1 REVERT JUMPDEST DUP2 ADD SWAP1 DUP1 DUP1 MLOAD SWAP1 PUSH1 0x20 ADD SWAP1 SWAP3 SWAP2 SWAP1 POP POP POP ISZERO ISZERO PUSH2 0xA7C JUMPI PUSH1 0x40 MLOAD PUSH32 0x8C379A000000000000000000000000000000000000000000000000000000000 DUP2 MSTORE PUSH1 0x4 ADD DUP1 DUP1 PUSH1 0x20 ADD DUP3 DUP2 SUB DUP3 MSTORE PUSH1 0x2A DUP2 MSTORE PUSH1 0x20 ADD DUP1 PUSH2 0xAF5 PUSH1 0x2A SWAP2 CODECOPY PUSH1 0x40 ADD SWAP2 POP POP PUSH1 0x40 MLOAD DUP1 SWAP2 SUB SWAP1 REVERT JUMPDEST JUMPDEST POP POP POP POP JUMP JUMPDEST PUSH1 0x0 DUP1 PUSH1 0x0 PUSH32 0xC5D2460186F7233C927E7DB2DCC703C0E500B653CA82273B7BFAD8045D85A470 PUSH1 0x0 SHL SWAP1 POP DUP4 EXTCODEHASH SWAP2 POP DUP1 DUP3 EQ ISZERO DUP1 ISZERO PUSH2 0xAC5 JUMPI POP PUSH1 0x0 DUP1 SHL DUP3 EQ ISZERO JUMPDEST SWAP3 POP POP POP SWAP2 SWAP1 POP JUMP INVALID 0x4f PUSH24 0x6E61626C653A206E6577206F776E65722069732074686520 PUSH27 0x65726F20616464726573735361666545524332303A204552433230 KECCAK256 PUSH16 0x7065726174696F6E20646964206E6F74 KECCAK256 PUSH20 0x756363656564A165627A7A72305820F3E9921EE8 LOG0 GT BALANCE 0xd3 0xa8 0xd6 SWAP16 GASLIMIT SWAP12 0x4a 0xb8 LOG1 0xbd SELFDESTRUCT BALANCE PUSH5 0x4854DBC93D SWAP9 PUSH10 0x596D9001002900000000 "
				},
				"gasEstimates": {
					"creation": {
						"codeDepositCost": "578000",
						"executionCost": "infinite",
						"totalCost": "infinite"
					},
					"external": {
						"isOwner()": "557",
						"owner()": "483",
						"renounceOwnership()": "22538",
						"transferOwnership(address)": "infinite",
						"withdraw(address)": "infinite"
					}
				},
				"methodIdentifiers": {
					"isOwner()": "8f32d59b",
					"owner()": "8da5cb5b",
					"renounceOwnership()": "715018a6",
					"transferOwnership(address)": "f2fde38b",
					"withdraw(address)": "51cff8d9"
				}
			},
			"userdoc": {
				"methods": {}
			}
		}
	}
}