{
	"data": {
		"bytecode": {
			"linkReferences": {},
			"object": "608060405234801561001057600080fd5b50336000806101000a81548173ffffffffffffffffffffffffffffffffffffffff021916908373ffffffffffffffffffffffffffffffffffffffff160217905550610104806100606000396000f3fe6080604052348015600f57600080fd5b506004361060325760003560e01c806383197ef01460375780638da5cb5b14603f575b600080fd5b603d6071565b005b604560aa565b604051808273ffffffffffffffffffffffffffffffffffffffff16815260200191505060405180910390f35b60008054906101000a900473ffffffffffffffffffffffffffffffffffffffff1673ffffffffffffffffffffffffffffffffffffffff16ff5b60008054906101000a900473ffffffffffffffffffffffffffffffffffffffff168156fea2646970667358221220bb5955126ddde022589376b12062b06eed03c4f82548daeb8411a1742847f0bd64736f6c63430007050033",
			"opcodes": "PUSH1 0x80 PUSH1 0x40 MSTORE CALLVALUE DUP1 ISZERO PUSH2 0x10 JUMPI PUSH1 0x0 DUP1 REVERT JUMPDEST POP CALLER PUSH1 0x0 DUP1 PUSH2 0x100 EXP DUP2 SLOAD DUP2 PUSH20 0xFFFFFFFFFFFFFFFFFFFFFFFFFFFFFFFFFFFFFFFF MUL NOT AND SWAP1 DUP4 PUSH20 0xFFFFFFFFFFFFFFFFFFFFFFFFFFFFFFFFFFFFFFFF AND MUL OR SWAP1 SSTORE POP PUSH2 0x104 DUP1 PUSH2 0x60 PUSH1 0x0 CODECOPY PUSH1 0x0 RETURN INVALID PUSH1 0x80 PUSH1 0x40 MSTORE CALLVALUE DUP1 ISZERO PUSH1 0xF JUMPI PUSH1 0x0 DUP1 REVERT JUMPDEST POP PUSH1 0x4 CALLDATASIZE LT PUSH1 0x32 JUMPI PUSH1 0x0 CALLDATALOAD PUSH1 0xE0 SHR DUP1 PUSH4 0x83197EF0 EQ PUSH1 0x37 JUMPI DUP1 PUSH4 0x8DA5CB5B EQ PUSH1 0x3F JUMPI JUMPDEST PUSH1 0x0 DUP1 REVERT JUMPDEST PUSH1 0x3D PUSH1 0x71 JUMP JUMPDEST STOP JUMPDEST PUSH1 0x45 PUSH1 0xAA JUMP JUMPDEST PUSH1 0x40 MLOAD DUP1 DUP3 PUSH20 0xFFFFFFFFFFFFFFFFFFFFFFFFFFFFFFFFFFFFFFFF AND DUP2 MSTORE PUSH1 0x20 ADD SWAP2 POP POP PUSH1 0x40 MLOAD DUP1 SWAP2 SUB SWAP1 RETURN JUMPDEST PUSH1 0x0 DUP1 SLOAD SWAP1 PUSH2 0x100 EXP SWAP1 DIV PUSH20 0xFFFFFFFFFFFFFFFFFFFFFFFFFFFFFFFFFFFFFFFF AND PUSH20 0xFFFFFFFFFFFFFFFFFFFFFFFFFFFFFFFFFFFFFFFF AND SELFDESTRUCT JUMPDEST PUSH1 0x0 DUP1 SLOAD SWAP1 PUSH2 0x100 EXP SWAP1 DIV PUSH20 0xFFFFFFFFFFFFFFFFFFFFFFFFFFFFFFFFFFFFFFFF AND DUP2 JUMP INVALID LOG2 PUSH5 0x6970667358 0x22 SLT KECCAK256 0xBB MSIZE SSTORE SLT PUSH14 0xDDE022589376B12062B06EED03C4 0xF8 0x25 0x48 0xDA 0xEB DUP5 GT LOG1 PUSH21 0x2847F0BD64736F6C63430007050033000000000000 "
		},
		"gasEstimates": {
			"creation": {
				"codeDepositCost": "52000",
				"executionCost": "20971",
				"totalCost": "72971"
			},
			"external": {
				"destroy()": "30955",
				"owner()": "1044"
			}
		},
		"methodIdentifiers": {
			"destroy()": "83197ef0",
			"owner()": "8da5cb5b"
		}
	},
	"abi": [
		{
			"inputs": [],
			"name": "destroy",
			"outputs": [],
			"stateMutability": "nonpayable",
			"type": "function"
		},
		{
			"inputs": [],
			"name": "owner",
			"outputs": [
				{
					"internalType": "address payable",
					"name": "",
					"type": "address"
				}
			],
			"stateMutability": "view",
			"type": "function"
		}
	]
}