{
	"": {
		"FundRaiser": {
			"abi": [
				{
					"constant": false,
					"inputs": [],
					"name": "withdraw",
					"outputs": [],
					"payable": true,
					"type": "function",
					"stateMutability": "payable"
				},
				{
					"constant": false,
					"inputs": [],
					"name": "contribute",
					"outputs": [],
					"payable": true,
					"type": "function",
					"stateMutability": "payable"
				}
			],
			"evm": {
				"bytecode": {
					"object": "606060405234610000575b610165806100186000396000f360606040526000357c0100000000000000000000000000000000000000000000000000000000900480633ccfd60b14610043578063d7bb99ba1461004d575b610000565b61004b610057565b005b61005561012b565b005b6000600060003373ffffffffffffffffffffffffffffffffffffffff16815260200190815260200160002054141561008e57610000565b3373ffffffffffffffffffffffffffffffffffffffff16600060003373ffffffffffffffffffffffffffffffffffffffff1681526020019081526020016000205460405180905060006040518083038185876185025a03f19250505015610123576000600060003373ffffffffffffffffffffffffffffffffffffffff16815260200190815260200160002081905550610128565b610000565b5b565b34600060003373ffffffffffffffffffffffffffffffffffffffff168152602001908152602001600020600082825401925050819055505b56",
					"opcodes": "PUSH1 0x60 PUSH1 0x40 MSTORE CALLVALUE PUSH2 0x0 JUMPI JUMPDEST PUSH2 0x165 DUP1 PUSH2 0x18 PUSH1 0x0 CODECOPY PUSH1 0x0 RETURN PUSH1 0x60 PUSH1 0x40 MSTORE PUSH1 0x0 CALLDATALOAD PUSH29 0x100000000000000000000000000000000000000000000000000000000 SWAP1 DIV DUP1 PUSH4 0x3CCFD60B EQ PUSH2 0x43 JUMPI DUP1 PUSH4 0xD7BB99BA EQ PUSH2 0x4D JUMPI JUMPDEST PUSH2 0x0 JUMP JUMPDEST PUSH2 0x4B PUSH2 0x57 JUMP JUMPDEST STOP JUMPDEST PUSH2 0x55 PUSH2 0x12B JUMP JUMPDEST STOP JUMPDEST PUSH1 0x0 PUSH1 0x0 PUSH1 0x0 CALLER PUSH20 0xFFFFFFFFFFFFFFFFFFFFFFFFFFFFFFFFFFFFFFFF AND DUP2 MSTORE PUSH1 0x20 ADD SWAP1 DUP2 MSTORE PUSH1 0x20 ADD PUSH1 0x0 SHA3 SLOAD EQ ISZERO PUSH2 0x8E JUMPI PUSH2 0x0 JUMP JUMPDEST CALLER PUSH20 0xFFFFFFFFFFFFFFFFFFFFFFFFFFFFFFFFFFFFFFFF AND PUSH1 0x0 PUSH1 0x0 CALLER PUSH20 0xFFFFFFFFFFFFFFFFFFFFFFFFFFFFFFFFFFFFFFFF AND DUP2 MSTORE PUSH1 0x20 ADD SWAP1 DUP2 MSTORE PUSH1 0x20 ADD PUSH1 0x0 SHA3 SLOAD PUSH1 0x40 MLOAD DUP1 SWAP1 POP PUSH1 0x0 PUSH1 0x40 MLOAD DUP1 DUP4 SUB DUP2 DUP6 DUP8 PUSH2 0x8502 GAS SUB CALL SWAP3 POP POP POP ISZERO PUSH2 0x123 JUMPI PUSH1 0x0 PUSH1 0x0 PUSH1 0x0 CALLER PUSH20 0xFFFFFFFFFFFFFFFFFFFFFFFFFFFFFFFFFFFFFFFF AND DUP2 MSTORE PUSH1 0x20 ADD SWAP1 DUP2 MSTORE PUSH1 0x20 ADD PUSH1 0x0 SHA3 DUP2 SWAP1 SSTORE POP PUSH2 0x128 JUMP JUMPDEST PUSH2 0x0 JUMP JUMPDEST JUMPDEST JUMP JUMPDEST CALLVALUE PUSH1 0x0 PUSH1 0x0 CALLER PUSH20 0xFFFFFFFFFFFFFFFFFFFFFFFFFFFFFFFFFFFFFFFF AND DUP2 MSTORE PUSH1 0x20 ADD SWAP1 DUP2 MSTORE PUSH1 0x20 ADD PUSH1 0x0 SHA3 PUSH1 0x0 DUP3 DUP3 SLOAD ADD SWAP3 POP POP DUP2 SWAP1 SSTORE POP JUMPDEST JUMP ",
					"linkReferences": {}
				},
				"methodIdentifiers": {
					"contribute()": "d7bb99ba",
					"withdraw()": "3ccfd60b"
				},
				"gasEstimates": {
					"creation": {
						"codeDepositCost": "71400",
						"executionCost": "115"
					},
					"internal": {},
					"external": {
						"contribute()": "20270",
						"withdraw()": "infinite"
					}
				}
			}
		}
	}
}