{
	"": {
		"FundRaiser": {
			"abi": [
				{
					"constant": false,
					"inputs": [],
					"name": "getBalances",
					"outputs": [],
					"payable": false,
					"type": "function",
					"stateMutability": "nonpayable"
				},
				{
					"constant": true,
					"inputs": [
						{
							"name": "",
							"type": "address"
						}
					],
					"name": "balances",
					"outputs": [
						{
							"name": "",
							"type": "uint256"
						}
					],
					"payable": false,
					"type": "function",
					"stateMutability": "view"
				},
				{
					"constant": false,
					"inputs": [],
					"name": "withdraw",
					"outputs": [],
					"payable": false,
					"type": "function",
					"stateMutability": "nonpayable"
				},
				{
					"constant": false,
					"inputs": [],
					"name": "contribute",
					"outputs": [],
					"payable": true,
					"type": "function",
					"stateMutability": "payable"
				}
			],
			"evm": {
				"bytecode": {
					"object": "606060405234610000575b6101f3806100186000396000f360606040526000357c010000000000000000000000000000000000000000000000000000000090048062113e081461005857806327e235e3146100675780633ccfd60b14610098578063d7bb99ba146100a7575b610000565b34610000576100656100b1565b005b346100005761008260048080359060200190919050506100cd565b6040518082815260200191505060405180910390f35b34610000576100a56100e5565b005b6100af6101b9565b005b3073ffffffffffffffffffffffffffffffffffffffff1631505b565b60006020528060005260406000206000915090505481565b6000600060003373ffffffffffffffffffffffffffffffffffffffff16815260200190815260200160002054141561011c57610000565b3373ffffffffffffffffffffffffffffffffffffffff16600060003373ffffffffffffffffffffffffffffffffffffffff1681526020019081526020016000205460405180905060006040518083038185876185025a03f192505050156101b1576000600060003373ffffffffffffffffffffffffffffffffffffffff168152602001908152602001600020819055506101b6565b610000565b5b565b34600060003373ffffffffffffffffffffffffffffffffffffffff168152602001908152602001600020600082825401925050819055505b56",
					"opcodes": "PUSH1 0x60 PUSH1 0x40 MSTORE CALLVALUE PUSH2 0x0 JUMPI JUMPDEST PUSH2 0x1F3 DUP1 PUSH2 0x18 PUSH1 0x0 CODECOPY PUSH1 0x0 RETURN PUSH1 0x60 PUSH1 0x40 MSTORE PUSH1 0x0 CALLDATALOAD PUSH29 0x100000000000000000000000000000000000000000000000000000000 SWAP1 DIV DUP1 PUSH3 0x113E08 EQ PUSH2 0x58 JUMPI DUP1 PUSH4 0x27E235E3 EQ PUSH2 0x67 JUMPI DUP1 PUSH4 0x3CCFD60B EQ PUSH2 0x98 JUMPI DUP1 PUSH4 0xD7BB99BA EQ PUSH2 0xA7 JUMPI JUMPDEST PUSH2 0x0 JUMP JUMPDEST CALLVALUE PUSH2 0x0 JUMPI PUSH2 0x65 PUSH2 0xB1 JUMP JUMPDEST STOP JUMPDEST CALLVALUE PUSH2 0x0 JUMPI PUSH2 0x82 PUSH1 0x4 DUP1 DUP1 CALLDATALOAD SWAP1 PUSH1 0x20 ADD SWAP1 SWAP2 SWAP1 POP POP PUSH2 0xCD JUMP JUMPDEST PUSH1 0x40 MLOAD DUP1 DUP3 DUP2 MSTORE PUSH1 0x20 ADD SWAP2 POP POP PUSH1 0x40 MLOAD DUP1 SWAP2 SUB SWAP1 RETURN JUMPDEST CALLVALUE PUSH2 0x0 JUMPI PUSH2 0xA5 PUSH2 0xE5 JUMP JUMPDEST STOP JUMPDEST PUSH2 0xAF PUSH2 0x1B9 JUMP JUMPDEST STOP JUMPDEST ADDRESS PUSH20 0xFFFFFFFFFFFFFFFFFFFFFFFFFFFFFFFFFFFFFFFF AND BALANCE POP JUMPDEST JUMP JUMPDEST PUSH1 0x0 PUSH1 0x20 MSTORE DUP1 PUSH1 0x0 MSTORE PUSH1 0x40 PUSH1 0x0 SHA3 PUSH1 0x0 SWAP2 POP SWAP1 POP SLOAD DUP2 JUMP JUMPDEST PUSH1 0x0 PUSH1 0x0 PUSH1 0x0 CALLER PUSH20 0xFFFFFFFFFFFFFFFFFFFFFFFFFFFFFFFFFFFFFFFF AND DUP2 MSTORE PUSH1 0x20 ADD SWAP1 DUP2 MSTORE PUSH1 0x20 ADD PUSH1 0x0 SHA3 SLOAD EQ ISZERO PUSH2 0x11C JUMPI PUSH2 0x0 JUMP JUMPDEST CALLER PUSH20 0xFFFFFFFFFFFFFFFFFFFFFFFFFFFFFFFFFFFFFFFF AND PUSH1 0x0 PUSH1 0x0 CALLER PUSH20 0xFFFFFFFFFFFFFFFFFFFFFFFFFFFFFFFFFFFFFFFF AND DUP2 MSTORE PUSH1 0x20 ADD SWAP1 DUP2 MSTORE PUSH1 0x20 ADD PUSH1 0x0 SHA3 SLOAD PUSH1 0x40 MLOAD DUP1 SWAP1 POP PUSH1 0x0 PUSH1 0x40 MLOAD DUP1 DUP4 SUB DUP2 DUP6 DUP8 PUSH2 0x8502 GAS SUB CALL SWAP3 POP POP POP ISZERO PUSH2 0x1B1 JUMPI PUSH1 0x0 PUSH1 0x0 PUSH1 0x0 CALLER PUSH20 0xFFFFFFFFFFFFFFFFFFFFFFFFFFFFFFFFFFFFFFFF AND DUP2 MSTORE PUSH1 0x20 ADD SWAP1 DUP2 MSTORE PUSH1 0x20 ADD PUSH1 0x0 SHA3 DUP2 SWAP1 SSTORE POP PUSH2 0x1B6 JUMP JUMPDEST PUSH2 0x0 JUMP JUMPDEST JUMPDEST JUMP JUMPDEST CALLVALUE PUSH1 0x0 PUSH1 0x0 CALLER PUSH20 0xFFFFFFFFFFFFFFFFFFFFFFFFFFFFFFFFFFFFFFFF AND DUP2 MSTORE PUSH1 0x20 ADD SWAP1 DUP2 MSTORE PUSH1 0x20 ADD PUSH1 0x0 SHA3 PUSH1 0x0 DUP3 DUP3 SLOAD ADD SWAP3 POP POP DUP2 SWAP1 SSTORE POP JUMPDEST JUMP ",
					"linkReferences": {}
				},
				"methodIdentifiers": {
					"balances(address)": "27e235e3",
					"contribute()": "d7bb99ba",
					"getBalances()": "00113e08",
					"withdraw()": "3ccfd60b"
				},
				"gasEstimates": {
					"creation": {
						"codeDepositCost": "99800",
						"executionCost": "139"
					},
					"internal": {},
					"external": {
						"balances(address)": "337",
						"contribute()": "20314",
						"getBalances()": "128",
						"withdraw()": "infinite"
					}
				}
			}
		}
	}
}