{
	"": {
		"FundRaiser": {
			"abi": [
				{
					"constant": true,
					"inputs": [
						{
							"name": "",
							"type": "address"
						}
					],
					"name": "balances",
					"outputs": [
						{
							"name": "",
							"type": "uint256"
						}
					],
					"payable": false,
					"type": "function",
					"stateMutability": "view"
				},
				{
					"constant": false,
					"inputs": [],
					"name": "withdraw",
					"outputs": [],
					"payable": false,
					"type": "function",
					"stateMutability": "nonpayable"
				},
				{
					"constant": false,
					"inputs": [],
					"name": "contribute",
					"outputs": [],
					"payable": true,
					"type": "function",
					"stateMutability": "payable"
				}
			],
			"evm": {
				"bytecode": {
					"object": "606060405234610000575b6101be806100186000396000f360606040526000357c01000000000000000000000000000000000000000000000000000000009004806327e235e31461004e5780633ccfd60b1461007f578063d7bb99ba1461008e575b610000565b34610000576100696004808035906020019091905050610098565b6040518082815260200191505060405180910390f35b346100005761008c6100b0565b005b610096610184565b005b60006020528060005260406000206000915090505481565b6000600060003373ffffffffffffffffffffffffffffffffffffffff1681526020019081526020016000205414156100e757610000565b3373ffffffffffffffffffffffffffffffffffffffff16600060003373ffffffffffffffffffffffffffffffffffffffff1681526020019081526020016000205460405180905060006040518083038185876185025a03f1925050501561017c576000600060003373ffffffffffffffffffffffffffffffffffffffff16815260200190815260200160002081905550610181565b610000565b5b565b34600060003373ffffffffffffffffffffffffffffffffffffffff168152602001908152602001600020600082825401925050819055505b56",
					"opcodes": "PUSH1 0x60 PUSH1 0x40 MSTORE CALLVALUE PUSH2 0x0 JUMPI JUMPDEST PUSH2 0x1BE DUP1 PUSH2 0x18 PUSH1 0x0 CODECOPY PUSH1 0x0 RETURN PUSH1 0x60 PUSH1 0x40 MSTORE PUSH1 0x0 CALLDATALOAD PUSH29 0x100000000000000000000000000000000000000000000000000000000 SWAP1 DIV DUP1 PUSH4 0x27E235E3 EQ PUSH2 0x4E JUMPI DUP1 PUSH4 0x3CCFD60B EQ PUSH2 0x7F JUMPI DUP1 PUSH4 0xD7BB99BA EQ PUSH2 0x8E JUMPI JUMPDEST PUSH2 0x0 JUMP JUMPDEST CALLVALUE PUSH2 0x0 JUMPI PUSH2 0x69 PUSH1 0x4 DUP1 DUP1 CALLDATALOAD SWAP1 PUSH1 0x20 ADD SWAP1 SWAP2 SWAP1 POP POP PUSH2 0x98 JUMP JUMPDEST PUSH1 0x40 MLOAD DUP1 DUP3 DUP2 MSTORE PUSH1 0x20 ADD SWAP2 POP POP PUSH1 0x40 MLOAD DUP1 SWAP2 SUB SWAP1 RETURN JUMPDEST CALLVALUE PUSH2 0x0 JUMPI PUSH2 0x8C PUSH2 0xB0 JUMP JUMPDEST STOP JUMPDEST PUSH2 0x96 PUSH2 0x184 JUMP JUMPDEST STOP JUMPDEST PUSH1 0x0 PUSH1 0x20 MSTORE DUP1 PUSH1 0x0 MSTORE PUSH1 0x40 PUSH1 0x0 SHA3 PUSH1 0x0 SWAP2 POP SWAP1 POP SLOAD DUP2 JUMP JUMPDEST PUSH1 0x0 PUSH1 0x0 PUSH1 0x0 CALLER PUSH20 0xFFFFFFFFFFFFFFFFFFFFFFFFFFFFFFFFFFFFFFFF AND DUP2 MSTORE PUSH1 0x20 ADD SWAP1 DUP2 MSTORE PUSH1 0x20 ADD PUSH1 0x0 SHA3 SLOAD EQ ISZERO PUSH2 0xE7 JUMPI PUSH2 0x0 JUMP JUMPDEST CALLER PUSH20 0xFFFFFFFFFFFFFFFFFFFFFFFFFFFFFFFFFFFFFFFF AND PUSH1 0x0 PUSH1 0x0 CALLER PUSH20 0xFFFFFFFFFFFFFFFFFFFFFFFFFFFFFFFFFFFFFFFF AND DUP2 MSTORE PUSH1 0x20 ADD SWAP1 DUP2 MSTORE PUSH1 0x20 ADD PUSH1 0x0 SHA3 SLOAD PUSH1 0x40 MLOAD DUP1 SWAP1 POP PUSH1 0x0 PUSH1 0x40 MLOAD DUP1 DUP4 SUB DUP2 DUP6 DUP8 PUSH2 0x8502 GAS SUB CALL SWAP3 POP POP POP ISZERO PUSH2 0x17C JUMPI PUSH1 0x0 PUSH1 0x0 PUSH1 0x0 CALLER PUSH20 0xFFFFFFFFFFFFFFFFFFFFFFFFFFFFFFFFFFFFFFFF AND DUP2 MSTORE PUSH1 0x20 ADD SWAP1 DUP2 MSTORE PUSH1 0x20 ADD PUSH1 0x0 SHA3 DUP2 SWAP1 SSTORE POP PUSH2 0x181 JUMP JUMPDEST PUSH2 0x0 JUMP JUMPDEST JUMPDEST JUMP JUMPDEST CALLVALUE PUSH1 0x0 PUSH1 0x0 CALLER PUSH20 0xFFFFFFFFFFFFFFFFFFFFFFFFFFFFFFFFFFFFFFFF AND DUP2 MSTORE PUSH1 0x20 ADD SWAP1 DUP2 MSTORE PUSH1 0x20 ADD PUSH1 0x0 SHA3 PUSH1 0x0 DUP3 DUP3 SLOAD ADD SWAP3 POP POP DUP2 SWAP1 SSTORE POP JUMPDEST JUMP ",
					"linkReferences": {}
				},
				"methodIdentifiers": {
					"balances(address)": "27e235e3",
					"contribute()": "d7bb99ba",
					"withdraw()": "3ccfd60b"
				},
				"gasEstimates": {
					"creation": {
						"codeDepositCost": "89200",
						"executionCost": "127"
					},
					"internal": {},
					"external": {
						"balances(address)": "315",
						"contribute()": "20292",
						"withdraw()": "infinite"
					}
				}
			}
		}
	}
}