{
	"data": {
		"bytecode": {
			"linkReferences": {},
			"object": "60806040523480156200001157600080fd5b506040516200150d3803806200150d8339818101604052810190620000379190620001d5565b80825110156200004657600080fd5b60005b8251811015620000e95760008382815181106200006b576200006a62000384565b5b60200260200101519080600181540180825580915050600190039060005260206000200160009091909190916101000a81548173ffffffffffffffffffffffffffffffffffffffff021916908373ffffffffffffffffffffffffffffffffffffffff1602179055508080620000e09062000307565b91505062000049565b508060018190555050506200043b565b6000620001106200010a8462000264565b6200023b565b90508083825260208201905082856020860282011115620001365762000135620003e7565b5b60005b858110156200016a57816200014f888262000174565b84526020840193506020830192505060018101905062000139565b5050509392505050565b600081519050620001858162000407565b92915050565b600082601f830112620001a357620001a2620003e2565b5b8151620001b5848260208601620000f9565b91505092915050565b600081519050620001cf8162000421565b92915050565b60008060408385031215620001ef57620001ee620003f1565b5b600083015167ffffffffffffffff81111562000210576200020f620003ec565b5b6200021e858286016200018b565b92505060206200023185828601620001be565b9150509250929050565b6000620002476200025a565b9050620002558282620002d1565b919050565b6000604051905090565b600067ffffffffffffffff821115620002825762000281620003b3565b5b602082029050602081019050919050565b6000620002a082620002a7565b9050919050565b600073ffffffffffffffffffffffffffffffffffffffff82169050919050565b6000819050919050565b620002dc82620003f6565b810181811067ffffffffffffffff82111715620002fe57620002fd620003b3565b5b80604052505050565b60006200031482620002c7565b91507fffffffffffffffffffffffffffffffffffffffffffffffffffffffffffffffff8214156200034a576200034962000355565b5b600182019050919050565b7f4e487b7100000000000000000000000000000000000000000000000000000000600052601160045260246000fd5b7f4e487b7100000000000000000000000000000000000000000000000000000000600052603260045260246000fd5b7f4e487b7100000000000000000000000000000000000000000000000000000000600052604160045260246000fd5b600080fd5b600080fd5b600080fd5b600080fd5b6000601f19601f8301169050919050565b620004128162000293565b81146200041e57600080fd5b50565b6200042c81620002c7565b81146200043857600080fd5b50565b6110c2806200044b6000396000f3fe6080604052600436106100705760003560e01c806369594cfa1161004e57806369594cfa1461010d57806384a372731461014c578063b759f95414610168578063d0e30db01461019157610070565b806312065fe0146100755780632919d6d8146100a05780632e1a7d4d146100dd575b600080fd5b34801561008157600080fd5b5061008a6101af565b6040516100979190610d92565b60405180910390f35b3480156100ac57600080fd5b506100c760048036038101906100c29190610c1d565b6101b7565b6040516100d49190610ce0565b60405180910390f35b6100f760048036038101906100f29190610c1d565b6101f6565b6040516101049190610d92565b60405180910390f35b34801561011957600080fd5b50610134600480360381019061012f9190610c1d565b6103a7565b60405161014393929190610cfb565b60405180910390f35b61016660048036038101906101619190610bdd565b610401565b005b34801561017457600080fd5b5061018f600480360381019061018a9190610c1d565b61065a565b005b6101996108b6565b6040516101a69190610d92565b60405180910390f35b600047905090565b600081815481106101c757600080fd5b906000526020600020016000915054906101000a900473ffffffffffffffffffffffffffffffffffffffff1681565b600060038054905082111561020a57600080fd5b6000600383815481106102205761021f610f3d565b5b906000526020600020906004020160000160009054906101000a900473ffffffffffffffffffffffffffffffffffffffff1690506003838154811061026857610267610f3d565b5b9060005260206000209060040201600101544710156102bc576040517f08c379a00000000000000000000000000000000000000000000000000000000081526004016102b390610d72565b60405180910390fd5b600383815481106102d0576102cf610f3d565b5b9060005260206000209060040201600301805490506001541115610329576040517f08c379a000000000000000000000000000000000000000000000000000000000815260040161032090610d32565b60405180910390fd5b6103328361090c565b8073ffffffffffffffffffffffffffffffffffffffff166108fc600385815481106103605761035f610f3d565b5b9060005260206000209060040201600101549081150290604051600060405180830381858888f1935050505015801561039d573d6000803e3d6000fd5b5047915050919050565b600381815481106103b757600080fd5b90600052602060002090600402016000915090508060000160009054906101000a900473ffffffffffffffffffffffffffffffffffffffff16908060010154908060020154905083565b6000805b600080549050811161049f576000818154811061042557610424610f3d565b5b9060005260206000200160009054906101000a900473ffffffffffffffffffffffffffffffffffffffff1673ffffffffffffffffffffffffffffffffffffffff163373ffffffffffffffffffffffffffffffffffffffff16141561048c576001915061049f565b808061049790610e96565b915050610405565b5060011515811515146104e7576040517f08c379a00000000000000000000000000000000000000000000000000000000081526004016104de90610d52565b60405180910390fd5b801561065557600360405180608001604052808573ffffffffffffffffffffffffffffffffffffffff168152602001848152602001600380549050815260200160028054806020026020016040519081016040528092919081815260200182805480156105a957602002820191906000526020600020905b8160009054906101000a900473ffffffffffffffffffffffffffffffffffffffff1673ffffffffffffffffffffffffffffffffffffffff168152602001906001019080831161055f575b5050505050815250908060018154018082558091505060019003906000526020600020906004020160009091909190915060008201518160000160006101000a81548173ffffffffffffffffffffffffffffffffffffffff021916908373ffffffffffffffffffffffffffffffffffffffff16021790555060208201518160010155604082015181600201556060820151816003019080519060200190610651929190610a99565b5050505b505050565b6000805b60008054905081116107dd5760005b6003848154811061068157610680610f3d565b5b90600052602060002090600402016003018054905081101561074e57600384815481106106b1576106b0610f3d565b5b906000526020600020906004020160030181815481106106d4576106d3610f3d565b5b9060005260206000200160009054906101000a900473ffffffffffffffffffffffffffffffffffffffff1673ffffffffffffffffffffffffffffffffffffffff163373ffffffffffffffffffffffffffffffffffffffff16141561073b576000925061074e565b808061074690610e96565b91505061066d565b506000818154811061076357610762610f3d565b5b9060005260206000200160009054906101000a900473ffffffffffffffffffffffffffffffffffffffff1673ffffffffffffffffffffffffffffffffffffffff163373ffffffffffffffffffffffffffffffffffffffff1614156107ca57600191506107dd565b80806107d590610e96565b91505061065e565b506001151581151514610825576040517f08c379a000000000000000000000000000000000000000000000000000000000815260040161081c90610d52565b60405180910390fd5b80156108b2576003828154811061083f5761083e610f3d565b5b9060005260206000209060040201600301339080600181540180825580915050600190039060005260206000200160009091909190916101000a81548173ffffffffffffffffffffffffffffffffffffffff021916908373ffffffffffffffffffffffffffffffffffffffff1602179055505b5050565b60003373ffffffffffffffffffffffffffffffffffffffff167f55b8d2fc1aaf27628691a3336b517d7b40bee36ba595a24e893d1e872afb82d1346040516108fe9190610d92565b60405180910390a247905090565b60008190505b60016003805490506109249190610e14565b811015610a2357600360018261093a9190610dbe565b8154811061094b5761094a610f3d565b5b90600052602060002090600402016003828154811061096d5761096c610f3d565b5b90600052602060002090600402016000820160009054906101000a900473ffffffffffffffffffffffffffffffffffffffff168160000160006101000a81548173ffffffffffffffffffffffffffffffffffffffff021916908373ffffffffffffffffffffffffffffffffffffffff16021790555060018201548160010155600282015481600201556003820181600301908054610a0c929190610b23565b509050508080610a1b90610e96565b915050610912565b506003805480610a3657610a35610f0e565b5b6001900381819060005260206000209060040201600080820160006101000a81549073ffffffffffffffffffffffffffffffffffffffff021916905560018201600090556002820160009055600382016000610a929190610b75565b5050905550565b828054828255906000526020600020908101928215610b12579160200282015b82811115610b115782518260006101000a81548173ffffffffffffffffffffffffffffffffffffffff021916908373ffffffffffffffffffffffffffffffffffffffff16021790555091602001919060010190610ab9565b5b509050610b1f9190610b96565b5090565b828054828255906000526020600020908101928215610b645760005260206000209182015b82811115610b63578254825591600101919060010190610b48565b5b509050610b719190610b96565b5090565b5080546000825590600052602060002090810190610b939190610b96565b50565b5b80821115610baf576000816000905550600101610b97565b5090565b600081359050610bc28161105e565b92915050565b600081359050610bd781611075565b92915050565b60008060408385031215610bf457610bf3610f6c565b5b6000610c0285828601610bb3565b9250506020610c1385828601610bc8565b9150509250929050565b600060208284031215610c3357610c32610f6c565b5b6000610c4184828501610bc8565b91505092915050565b610c5381610e5a565b82525050565b610c6281610e48565b82525050565b6000610c75602183610dad565b9150610c8082610f71565b604082019050919050565b6000610c98604583610dad565b9150610ca382610fc0565b606082019050919050565b6000610cbb601c83610dad565b9150610cc682611035565b602082019050919050565b610cda81610e8c565b82525050565b6000602082019050610cf56000830184610c59565b92915050565b6000606082019050610d106000830186610c4a565b610d1d6020830185610cd1565b610d2a6040830184610cd1565b949350505050565b60006020820190508181036000830152610d4b81610c68565b9050919050565b60006020820190508181036000830152610d6b81610c8b565b9050919050565b60006020820190508181036000830152610d8b81610cae565b9050919050565b6000602082019050610da76000830184610cd1565b92915050565b600082825260208201905092915050565b6000610dc982610e8c565b9150610dd483610e8c565b9250827fffffffffffffffffffffffffffffffffffffffffffffffffffffffffffffffff03821115610e0957610e08610edf565b5b828201905092915050565b6000610e1f82610e8c565b9150610e2a83610e8c565b925082821015610e3d57610e3c610edf565b5b828203905092915050565b6000610e5382610e6c565b9050919050565b6000610e6582610e6c565b9050919050565b600073ffffffffffffffffffffffffffffffffffffffff82169050919050565b6000819050919050565b6000610ea182610e8c565b91507fffffffffffffffffffffffffffffffffffffffffffffffffffffffffffffffff821415610ed457610ed3610edf565b5b600182019050919050565b7f4e487b7100000000000000000000000000000000000000000000000000000000600052601160045260246000fd5b7f4e487b7100000000000000000000000000000000000000000000000000000000600052603160045260246000fd5b7f4e487b7100000000000000000000000000000000000000000000000000000000600052603260045260246000fd5b600080fd5b7f596f7520646f206e6f74206861766520656e6f756768207369676e617475726560008201527f7300000000000000000000000000000000000000000000000000000000000000602082015250565b7f596f7520617265206e6f7420616c6c6f77656420746f207369676e207468697360008201527f207472616e73616374696f6e206f7220796f7520616c7265616479207369676e60208201527f6564206974000000000000000000000000000000000000000000000000000000604082015250565b7f596f7520646f206e6f74206861766520656e6f7567682066756e647300000000600082015250565b61106781610e5a565b811461107257600080fd5b50565b61107e81610e8c565b811461108957600080fd5b5056fea2646970667358221220d87874f6b333905fc9ed224ade7a4a36fed62c87f3fc903a17fe3ba04ece3ddf64736f6c63430008070033",
			"opcodes": "PUSH1 0x80 PUSH1 0x40 MSTORE CALLVALUE DUP1 ISZERO PUSH3 0x11 JUMPI PUSH1 0x0 DUP1 REVERT JUMPDEST POP PUSH1 0x40 MLOAD PUSH3 0x150D CODESIZE SUB DUP1 PUSH3 0x150D DUP4 CODECOPY DUP2 DUP2 ADD PUSH1 0x40 MSTORE DUP2 ADD SWAP1 PUSH3 0x37 SWAP2 SWAP1 PUSH3 0x1D5 JUMP JUMPDEST DUP1 DUP3 MLOAD LT ISZERO PUSH3 0x46 JUMPI PUSH1 0x0 DUP1 REVERT JUMPDEST PUSH1 0x0 JUMPDEST DUP3 MLOAD DUP2 LT ISZERO PUSH3 0xE9 JUMPI PUSH1 0x0 DUP4 DUP3 DUP2 MLOAD DUP2 LT PUSH3 0x6B JUMPI PUSH3 0x6A PUSH3 0x384 JUMP JUMPDEST JUMPDEST PUSH1 0x20 MUL PUSH1 0x20 ADD ADD MLOAD SWAP1 DUP1 PUSH1 0x1 DUP2 SLOAD ADD DUP1 DUP3 SSTORE DUP1 SWAP2 POP POP PUSH1 0x1 SWAP1 SUB SWAP1 PUSH1 0x0 MSTORE PUSH1 0x20 PUSH1 0x0 KECCAK256 ADD PUSH1 0x0 SWAP1 SWAP2 SWAP1 SWAP2 SWAP1 SWAP2 PUSH2 0x100 EXP DUP2 SLOAD DUP2 PUSH20 0xFFFFFFFFFFFFFFFFFFFFFFFFFFFFFFFFFFFFFFFF MUL NOT AND SWAP1 DUP4 PUSH20 0xFFFFFFFFFFFFFFFFFFFFFFFFFFFFFFFFFFFFFFFF AND MUL OR SWAP1 SSTORE POP DUP1 DUP1 PUSH3 0xE0 SWAP1 PUSH3 0x307 JUMP JUMPDEST SWAP2 POP POP PUSH3 0x49 JUMP JUMPDEST POP DUP1 PUSH1 0x1 DUP2 SWAP1 SSTORE POP POP POP PUSH3 0x43B JUMP JUMPDEST PUSH1 0x0 PUSH3 0x110 PUSH3 0x10A DUP5 PUSH3 0x264 JUMP JUMPDEST PUSH3 0x23B JUMP JUMPDEST SWAP1 POP DUP1 DUP4 DUP3 MSTORE PUSH1 0x20 DUP3 ADD SWAP1 POP DUP3 DUP6 PUSH1 0x20 DUP7 MUL DUP3 ADD GT ISZERO PUSH3 0x136 JUMPI PUSH3 0x135 PUSH3 0x3E7 JUMP JUMPDEST JUMPDEST PUSH1 0x0 JUMPDEST DUP6 DUP2 LT ISZERO PUSH3 0x16A JUMPI DUP2 PUSH3 0x14F DUP9 DUP3 PUSH3 0x174 JUMP JUMPDEST DUP5 MSTORE PUSH1 0x20 DUP5 ADD SWAP4 POP PUSH1 0x20 DUP4 ADD SWAP3 POP POP PUSH1 0x1 DUP2 ADD SWAP1 POP PUSH3 0x139 JUMP JUMPDEST POP POP POP SWAP4 SWAP3 POP POP POP JUMP JUMPDEST PUSH1 0x0 DUP2 MLOAD SWAP1 POP PUSH3 0x185 DUP2 PUSH3 0x407 JUMP JUMPDEST SWAP3 SWAP2 POP POP JUMP JUMPDEST PUSH1 0x0 DUP3 PUSH1 0x1F DUP4 ADD SLT PUSH3 0x1A3 JUMPI PUSH3 0x1A2 PUSH3 0x3E2 JUMP JUMPDEST JUMPDEST DUP2 MLOAD PUSH3 0x1B5 DUP5 DUP3 PUSH1 0x20 DUP7 ADD PUSH3 0xF9 JUMP JUMPDEST SWAP2 POP POP SWAP3 SWAP2 POP POP JUMP JUMPDEST PUSH1 0x0 DUP2 MLOAD SWAP1 POP PUSH3 0x1CF DUP2 PUSH3 0x421 JUMP JUMPDEST SWAP3 SWAP2 POP POP JUMP JUMPDEST PUSH1 0x0 DUP1 PUSH1 0x40 DUP4 DUP6 SUB SLT ISZERO PUSH3 0x1EF JUMPI PUSH3 0x1EE PUSH3 0x3F1 JUMP JUMPDEST JUMPDEST PUSH1 0x0 DUP4 ADD MLOAD PUSH8 0xFFFFFFFFFFFFFFFF DUP2 GT ISZERO PUSH3 0x210 JUMPI PUSH3 0x20F PUSH3 0x3EC JUMP JUMPDEST JUMPDEST PUSH3 0x21E DUP6 DUP3 DUP7 ADD PUSH3 0x18B JUMP JUMPDEST SWAP3 POP POP PUSH1 0x20 PUSH3 0x231 DUP6 DUP3 DUP7 ADD PUSH3 0x1BE JUMP JUMPDEST SWAP2 POP POP SWAP3 POP SWAP3 SWAP1 POP JUMP JUMPDEST PUSH1 0x0 PUSH3 0x247 PUSH3 0x25A JUMP JUMPDEST SWAP1 POP PUSH3 0x255 DUP3 DUP3 PUSH3 0x2D1 JUMP JUMPDEST SWAP2 SWAP1 POP JUMP JUMPDEST PUSH1 0x0 PUSH1 0x40 MLOAD SWAP1 POP SWAP1 JUMP JUMPDEST PUSH1 0x0 PUSH8 0xFFFFFFFFFFFFFFFF DUP3 GT ISZERO PUSH3 0x282 JUMPI PUSH3 0x281 PUSH3 0x3B3 JUMP JUMPDEST JUMPDEST PUSH1 0x20 DUP3 MUL SWAP1 POP PUSH1 0x20 DUP2 ADD SWAP1 POP SWAP2 SWAP1 POP JUMP JUMPDEST PUSH1 0x0 PUSH3 0x2A0 DUP3 PUSH3 0x2A7 JUMP JUMPDEST SWAP1 POP SWAP2 SWAP1 POP JUMP JUMPDEST PUSH1 0x0 PUSH20 0xFFFFFFFFFFFFFFFFFFFFFFFFFFFFFFFFFFFFFFFF DUP3 AND SWAP1 POP SWAP2 SWAP1 POP JUMP JUMPDEST PUSH1 0x0 DUP2 SWAP1 POP SWAP2 SWAP1 POP JUMP JUMPDEST PUSH3 0x2DC DUP3 PUSH3 0x3F6 JUMP JUMPDEST DUP2 ADD DUP2 DUP2 LT PUSH8 0xFFFFFFFFFFFFFFFF DUP3 GT OR ISZERO PUSH3 0x2FE JUMPI PUSH3 0x2FD PUSH3 0x3B3 JUMP JUMPDEST JUMPDEST DUP1 PUSH1 0x40 MSTORE POP POP POP JUMP JUMPDEST PUSH1 0x0 PUSH3 0x314 DUP3 PUSH3 0x2C7 JUMP JUMPDEST SWAP2 POP PUSH32 0xFFFFFFFFFFFFFFFFFFFFFFFFFFFFFFFFFFFFFFFFFFFFFFFFFFFFFFFFFFFFFFFF DUP3 EQ ISZERO PUSH3 0x34A JUMPI PUSH3 0x349 PUSH3 0x355 JUMP JUMPDEST JUMPDEST PUSH1 0x1 DUP3 ADD SWAP1 POP SWAP2 SWAP1 POP JUMP JUMPDEST PUSH32 0x4E487B7100000000000000000000000000000000000000000000000000000000 PUSH1 0x0 MSTORE PUSH1 0x11 PUSH1 0x4 MSTORE PUSH1 0x24 PUSH1 0x0 REVERT JUMPDEST PUSH32 0x4E487B7100000000000000000000000000000000000000000000000000000000 PUSH1 0x0 MSTORE PUSH1 0x32 PUSH1 0x4 MSTORE PUSH1 0x24 PUSH1 0x0 REVERT JUMPDEST PUSH32 0x4E487B7100000000000000000000000000000000000000000000000000000000 PUSH1 0x0 MSTORE PUSH1 0x41 PUSH1 0x4 MSTORE PUSH1 0x24 PUSH1 0x0 REVERT JUMPDEST PUSH1 0x0 DUP1 REVERT JUMPDEST PUSH1 0x0 DUP1 REVERT JUMPDEST PUSH1 0x0 DUP1 REVERT JUMPDEST PUSH1 0x0 DUP1 REVERT JUMPDEST PUSH1 0x0 PUSH1 0x1F NOT PUSH1 0x1F DUP4 ADD AND SWAP1 POP SWAP2 SWAP1 POP JUMP JUMPDEST PUSH3 0x412 DUP2 PUSH3 0x293 JUMP JUMPDEST DUP2 EQ PUSH3 0x41E JUMPI PUSH1 0x0 DUP1 REVERT JUMPDEST POP JUMP JUMPDEST PUSH3 0x42C DUP2 PUSH3 0x2C7 JUMP JUMPDEST DUP2 EQ PUSH3 0x438 JUMPI PUSH1 0x0 DUP1 REVERT JUMPDEST POP JUMP JUMPDEST PUSH2 0x10C2 DUP1 PUSH3 0x44B PUSH1 0x0 CODECOPY PUSH1 0x0 RETURN INVALID PUSH1 0x80 PUSH1 0x40 MSTORE PUSH1 0x4 CALLDATASIZE LT PUSH2 0x70 JUMPI PUSH1 0x0 CALLDATALOAD PUSH1 0xE0 SHR DUP1 PUSH4 0x69594CFA GT PUSH2 0x4E JUMPI DUP1 PUSH4 0x69594CFA EQ PUSH2 0x10D JUMPI DUP1 PUSH4 0x84A37273 EQ PUSH2 0x14C JUMPI DUP1 PUSH4 0xB759F954 EQ PUSH2 0x168 JUMPI DUP1 PUSH4 0xD0E30DB0 EQ PUSH2 0x191 JUMPI PUSH2 0x70 JUMP JUMPDEST DUP1 PUSH4 0x12065FE0 EQ PUSH2 0x75 JUMPI DUP1 PUSH4 0x2919D6D8 EQ PUSH2 0xA0 JUMPI DUP1 PUSH4 0x2E1A7D4D EQ PUSH2 0xDD JUMPI JUMPDEST PUSH1 0x0 DUP1 REVERT JUMPDEST CALLVALUE DUP1 ISZERO PUSH2 0x81 JUMPI PUSH1 0x0 DUP1 REVERT JUMPDEST POP PUSH2 0x8A PUSH2 0x1AF JUMP JUMPDEST PUSH1 0x40 MLOAD PUSH2 0x97 SWAP2 SWAP1 PUSH2 0xD92 JUMP JUMPDEST PUSH1 0x40 MLOAD DUP1 SWAP2 SUB SWAP1 RETURN JUMPDEST CALLVALUE DUP1 ISZERO PUSH2 0xAC JUMPI PUSH1 0x0 DUP1 REVERT JUMPDEST POP PUSH2 0xC7 PUSH1 0x4 DUP1 CALLDATASIZE SUB DUP2 ADD SWAP1 PUSH2 0xC2 SWAP2 SWAP1 PUSH2 0xC1D JUMP JUMPDEST PUSH2 0x1B7 JUMP JUMPDEST PUSH1 0x40 MLOAD PUSH2 0xD4 SWAP2 SWAP1 PUSH2 0xCE0 JUMP JUMPDEST PUSH1 0x40 MLOAD DUP1 SWAP2 SUB SWAP1 RETURN JUMPDEST PUSH2 0xF7 PUSH1 0x4 DUP1 CALLDATASIZE SUB DUP2 ADD SWAP1 PUSH2 0xF2 SWAP2 SWAP1 PUSH2 0xC1D JUMP JUMPDEST PUSH2 0x1F6 JUMP JUMPDEST PUSH1 0x40 MLOAD PUSH2 0x104 SWAP2 SWAP1 PUSH2 0xD92 JUMP JUMPDEST PUSH1 0x40 MLOAD DUP1 SWAP2 SUB SWAP1 RETURN JUMPDEST CALLVALUE DUP1 ISZERO PUSH2 0x119 JUMPI PUSH1 0x0 DUP1 REVERT JUMPDEST POP PUSH2 0x134 PUSH1 0x4 DUP1 CALLDATASIZE SUB DUP2 ADD SWAP1 PUSH2 0x12F SWAP2 SWAP1 PUSH2 0xC1D JUMP JUMPDEST PUSH2 0x3A7 JUMP JUMPDEST PUSH1 0x40 MLOAD PUSH2 0x143 SWAP4 SWAP3 SWAP2 SWAP1 PUSH2 0xCFB JUMP JUMPDEST PUSH1 0x40 MLOAD DUP1 SWAP2 SUB SWAP1 RETURN JUMPDEST PUSH2 0x166 PUSH1 0x4 DUP1 CALLDATASIZE SUB DUP2 ADD SWAP1 PUSH2 0x161 SWAP2 SWAP1 PUSH2 0xBDD JUMP JUMPDEST PUSH2 0x401 JUMP JUMPDEST STOP JUMPDEST CALLVALUE DUP1 ISZERO PUSH2 0x174 JUMPI PUSH1 0x0 DUP1 REVERT JUMPDEST POP PUSH2 0x18F PUSH1 0x4 DUP1 CALLDATASIZE SUB DUP2 ADD SWAP1 PUSH2 0x18A SWAP2 SWAP1 PUSH2 0xC1D JUMP JUMPDEST PUSH2 0x65A JUMP JUMPDEST STOP JUMPDEST PUSH2 0x199 PUSH2 0x8B6 JUMP JUMPDEST PUSH1 0x40 MLOAD PUSH2 0x1A6 SWAP2 SWAP1 PUSH2 0xD92 JUMP JUMPDEST PUSH1 0x40 MLOAD DUP1 SWAP2 SUB SWAP1 RETURN JUMPDEST PUSH1 0x0 SELFBALANCE SWAP1 POP SWAP1 JUMP JUMPDEST PUSH1 0x0 DUP2 DUP2 SLOAD DUP2 LT PUSH2 0x1C7 JUMPI PUSH1 0x0 DUP1 REVERT JUMPDEST SWAP1 PUSH1 0x0 MSTORE PUSH1 0x20 PUSH1 0x0 KECCAK256 ADD PUSH1 0x0 SWAP2 POP SLOAD SWAP1 PUSH2 0x100 EXP SWAP1 DIV PUSH20 0xFFFFFFFFFFFFFFFFFFFFFFFFFFFFFFFFFFFFFFFF AND DUP2 JUMP JUMPDEST PUSH1 0x0 PUSH1 0x3 DUP1 SLOAD SWAP1 POP DUP3 GT ISZERO PUSH2 0x20A JUMPI PUSH1 0x0 DUP1 REVERT JUMPDEST PUSH1 0x0 PUSH1 0x3 DUP4 DUP2 SLOAD DUP2 LT PUSH2 0x220 JUMPI PUSH2 0x21F PUSH2 0xF3D JUMP JUMPDEST JUMPDEST SWAP1 PUSH1 0x0 MSTORE PUSH1 0x20 PUSH1 0x0 KECCAK256 SWAP1 PUSH1 0x4 MUL ADD PUSH1 0x0 ADD PUSH1 0x0 SWAP1 SLOAD SWAP1 PUSH2 0x100 EXP SWAP1 DIV PUSH20 0xFFFFFFFFFFFFFFFFFFFFFFFFFFFFFFFFFFFFFFFF AND SWAP1 POP PUSH1 0x3 DUP4 DUP2 SLOAD DUP2 LT PUSH2 0x268 JUMPI PUSH2 0x267 PUSH2 0xF3D JUMP JUMPDEST JUMPDEST SWAP1 PUSH1 0x0 MSTORE PUSH1 0x20 PUSH1 0x0 KECCAK256 SWAP1 PUSH1 0x4 MUL ADD PUSH1 0x1 ADD SLOAD SELFBALANCE LT ISZERO PUSH2 0x2BC JUMPI PUSH1 0x40 MLOAD PUSH32 0x8C379A000000000000000000000000000000000000000000000000000000000 DUP2 MSTORE PUSH1 0x4 ADD PUSH2 0x2B3 SWAP1 PUSH2 0xD72 JUMP JUMPDEST PUSH1 0x40 MLOAD DUP1 SWAP2 SUB SWAP1 REVERT JUMPDEST PUSH1 0x3 DUP4 DUP2 SLOAD DUP2 LT PUSH2 0x2D0 JUMPI PUSH2 0x2CF PUSH2 0xF3D JUMP JUMPDEST JUMPDEST SWAP1 PUSH1 0x0 MSTORE PUSH1 0x20 PUSH1 0x0 KECCAK256 SWAP1 PUSH1 0x4 MUL ADD PUSH1 0x3 ADD DUP1 SLOAD SWAP1 POP PUSH1 0x1 SLOAD GT ISZERO PUSH2 0x329 JUMPI PUSH1 0x40 MLOAD PUSH32 0x8C379A000000000000000000000000000000000000000000000000000000000 DUP2 MSTORE PUSH1 0x4 ADD PUSH2 0x320 SWAP1 PUSH2 0xD32 JUMP JUMPDEST PUSH1 0x40 MLOAD DUP1 SWAP2 SUB SWAP1 REVERT JUMPDEST PUSH2 0x332 DUP4 PUSH2 0x90C JUMP JUMPDEST DUP1 PUSH20 0xFFFFFFFFFFFFFFFFFFFFFFFFFFFFFFFFFFFFFFFF AND PUSH2 0x8FC PUSH1 0x3 DUP6 DUP2 SLOAD DUP2 LT PUSH2 0x360 JUMPI PUSH2 0x35F PUSH2 0xF3D JUMP JUMPDEST JUMPDEST SWAP1 PUSH1 0x0 MSTORE PUSH1 0x20 PUSH1 0x0 KECCAK256 SWAP1 PUSH1 0x4 MUL ADD PUSH1 0x1 ADD SLOAD SWAP1 DUP2 ISZERO MUL SWAP1 PUSH1 0x40 MLOAD PUSH1 0x0 PUSH1 0x40 MLOAD DUP1 DUP4 SUB DUP2 DUP6 DUP9 DUP9 CALL SWAP4 POP POP POP POP ISZERO DUP1 ISZERO PUSH2 0x39D JUMPI RETURNDATASIZE PUSH1 0x0 DUP1 RETURNDATACOPY RETURNDATASIZE PUSH1 0x0 REVERT JUMPDEST POP SELFBALANCE SWAP2 POP POP SWAP2 SWAP1 POP JUMP JUMPDEST PUSH1 0x3 DUP2 DUP2 SLOAD DUP2 LT PUSH2 0x3B7 JUMPI PUSH1 0x0 DUP1 REVERT JUMPDEST SWAP1 PUSH1 0x0 MSTORE PUSH1 0x20 PUSH1 0x0 KECCAK256 SWAP1 PUSH1 0x4 MUL ADD PUSH1 0x0 SWAP2 POP SWAP1 POP DUP1 PUSH1 0x0 ADD PUSH1 0x0 SWAP1 SLOAD SWAP1 PUSH2 0x100 EXP SWAP1 DIV PUSH20 0xFFFFFFFFFFFFFFFFFFFFFFFFFFFFFFFFFFFFFFFF AND SWAP1 DUP1 PUSH1 0x1 ADD SLOAD SWAP1 DUP1 PUSH1 0x2 ADD SLOAD SWAP1 POP DUP4 JUMP JUMPDEST PUSH1 0x0 DUP1 JUMPDEST PUSH1 0x0 DUP1 SLOAD SWAP1 POP DUP2 GT PUSH2 0x49F JUMPI PUSH1 0x0 DUP2 DUP2 SLOAD DUP2 LT PUSH2 0x425 JUMPI PUSH2 0x424 PUSH2 0xF3D JUMP JUMPDEST JUMPDEST SWAP1 PUSH1 0x0 MSTORE PUSH1 0x20 PUSH1 0x0 KECCAK256 ADD PUSH1 0x0 SWAP1 SLOAD SWAP1 PUSH2 0x100 EXP SWAP1 DIV PUSH20 0xFFFFFFFFFFFFFFFFFFFFFFFFFFFFFFFFFFFFFFFF AND PUSH20 0xFFFFFFFFFFFFFFFFFFFFFFFFFFFFFFFFFFFFFFFF AND CALLER PUSH20 0xFFFFFFFFFFFFFFFFFFFFFFFFFFFFFFFFFFFFFFFF AND EQ ISZERO PUSH2 0x48C JUMPI PUSH1 0x1 SWAP2 POP PUSH2 0x49F JUMP JUMPDEST DUP1 DUP1 PUSH2 0x497 SWAP1 PUSH2 0xE96 JUMP JUMPDEST SWAP2 POP POP PUSH2 0x405 JUMP JUMPDEST POP PUSH1 0x1 ISZERO ISZERO DUP2 ISZERO ISZERO EQ PUSH2 0x4E7 JUMPI PUSH1 0x40 MLOAD PUSH32 0x8C379A000000000000000000000000000000000000000000000000000000000 DUP2 MSTORE PUSH1 0x4 ADD PUSH2 0x4DE SWAP1 PUSH2 0xD52 JUMP JUMPDEST PUSH1 0x40 MLOAD DUP1 SWAP2 SUB SWAP1 REVERT JUMPDEST DUP1 ISZERO PUSH2 0x655 JUMPI PUSH1 0x3 PUSH1 0x40 MLOAD DUP1 PUSH1 0x80 ADD PUSH1 0x40 MSTORE DUP1 DUP6 PUSH20 0xFFFFFFFFFFFFFFFFFFFFFFFFFFFFFFFFFFFFFFFF AND DUP2 MSTORE PUSH1 0x20 ADD DUP5 DUP2 MSTORE PUSH1 0x20 ADD PUSH1 0x3 DUP1 SLOAD SWAP1 POP DUP2 MSTORE PUSH1 0x20 ADD PUSH1 0x2 DUP1 SLOAD DUP1 PUSH1 0x20 MUL PUSH1 0x20 ADD PUSH1 0x40 MLOAD SWAP1 DUP2 ADD PUSH1 0x40 MSTORE DUP1 SWAP3 SWAP2 SWAP1 DUP2 DUP2 MSTORE PUSH1 0x20 ADD DUP3 DUP1 SLOAD DUP1 ISZERO PUSH2 0x5A9 JUMPI PUSH1 0x20 MUL DUP3 ADD SWAP2 SWAP1 PUSH1 0x0 MSTORE PUSH1 0x20 PUSH1 0x0 KECCAK256 SWAP1 JUMPDEST DUP2 PUSH1 0x0 SWAP1 SLOAD SWAP1 PUSH2 0x100 EXP SWAP1 DIV PUSH20 0xFFFFFFFFFFFFFFFFFFFFFFFFFFFFFFFFFFFFFFFF AND PUSH20 0xFFFFFFFFFFFFFFFFFFFFFFFFFFFFFFFFFFFFFFFF AND DUP2 MSTORE PUSH1 0x20 ADD SWAP1 PUSH1 0x1 ADD SWAP1 DUP1 DUP4 GT PUSH2 0x55F JUMPI JUMPDEST POP POP POP POP POP DUP2 MSTORE POP SWAP1 DUP1 PUSH1 0x1 DUP2 SLOAD ADD DUP1 DUP3 SSTORE DUP1 SWAP2 POP POP PUSH1 0x1 SWAP1 SUB SWAP1 PUSH1 0x0 MSTORE PUSH1 0x20 PUSH1 0x0 KECCAK256 SWAP1 PUSH1 0x4 MUL ADD PUSH1 0x0 SWAP1 SWAP2 SWAP1 SWAP2 SWAP1 SWAP2 POP PUSH1 0x0 DUP3 ADD MLOAD DUP2 PUSH1 0x0 ADD PUSH1 0x0 PUSH2 0x100 EXP DUP2 SLOAD DUP2 PUSH20 0xFFFFFFFFFFFFFFFFFFFFFFFFFFFFFFFFFFFFFFFF MUL NOT AND SWAP1 DUP4 PUSH20 0xFFFFFFFFFFFFFFFFFFFFFFFFFFFFFFFFFFFFFFFF AND MUL OR SWAP1 SSTORE POP PUSH1 0x20 DUP3 ADD MLOAD DUP2 PUSH1 0x1 ADD SSTORE PUSH1 0x40 DUP3 ADD MLOAD DUP2 PUSH1 0x2 ADD SSTORE PUSH1 0x60 DUP3 ADD MLOAD DUP2 PUSH1 0x3 ADD SWAP1 DUP1 MLOAD SWAP1 PUSH1 0x20 ADD SWAP1 PUSH2 0x651 SWAP3 SWAP2 SWAP1 PUSH2 0xA99 JUMP JUMPDEST POP POP POP JUMPDEST POP POP POP JUMP JUMPDEST PUSH1 0x0 DUP1 JUMPDEST PUSH1 0x0 DUP1 SLOAD SWAP1 POP DUP2 GT PUSH2 0x7DD JUMPI PUSH1 0x0 JUMPDEST PUSH1 0x3 DUP5 DUP2 SLOAD DUP2 LT PUSH2 0x681 JUMPI PUSH2 0x680 PUSH2 0xF3D JUMP JUMPDEST JUMPDEST SWAP1 PUSH1 0x0 MSTORE PUSH1 0x20 PUSH1 0x0 KECCAK256 SWAP1 PUSH1 0x4 MUL ADD PUSH1 0x3 ADD DUP1 SLOAD SWAP1 POP DUP2 LT ISZERO PUSH2 0x74E JUMPI PUSH1 0x3 DUP5 DUP2 SLOAD DUP2 LT PUSH2 0x6B1 JUMPI PUSH2 0x6B0 PUSH2 0xF3D JUMP JUMPDEST JUMPDEST SWAP1 PUSH1 0x0 MSTORE PUSH1 0x20 PUSH1 0x0 KECCAK256 SWAP1 PUSH1 0x4 MUL ADD PUSH1 0x3 ADD DUP2 DUP2 SLOAD DUP2 LT PUSH2 0x6D4 JUMPI PUSH2 0x6D3 PUSH2 0xF3D JUMP JUMPDEST JUMPDEST SWAP1 PUSH1 0x0 MSTORE PUSH1 0x20 PUSH1 0x0 KECCAK256 ADD PUSH1 0x0 SWAP1 SLOAD SWAP1 PUSH2 0x100 EXP SWAP1 DIV PUSH20 0xFFFFFFFFFFFFFFFFFFFFFFFFFFFFFFFFFFFFFFFF AND PUSH20 0xFFFFFFFFFFFFFFFFFFFFFFFFFFFFFFFFFFFFFFFF AND CALLER PUSH20 0xFFFFFFFFFFFFFFFFFFFFFFFFFFFFFFFFFFFFFFFF AND EQ ISZERO PUSH2 0x73B JUMPI PUSH1 0x0 SWAP3 POP PUSH2 0x74E JUMP JUMPDEST DUP1 DUP1 PUSH2 0x746 SWAP1 PUSH2 0xE96 JUMP JUMPDEST SWAP2 POP POP PUSH2 0x66D JUMP JUMPDEST POP PUSH1 0x0 DUP2 DUP2 SLOAD DUP2 LT PUSH2 0x763 JUMPI PUSH2 0x762 PUSH2 0xF3D JUMP JUMPDEST JUMPDEST SWAP1 PUSH1 0x0 MSTORE PUSH1 0x20 PUSH1 0x0 KECCAK256 ADD PUSH1 0x0 SWAP1 SLOAD SWAP1 PUSH2 0x100 EXP SWAP1 DIV PUSH20 0xFFFFFFFFFFFFFFFFFFFFFFFFFFFFFFFFFFFFFFFF AND PUSH20 0xFFFFFFFFFFFFFFFFFFFFFFFFFFFFFFFFFFFFFFFF AND CALLER PUSH20 0xFFFFFFFFFFFFFFFFFFFFFFFFFFFFFFFFFFFFFFFF AND EQ ISZERO PUSH2 0x7CA JUMPI PUSH1 0x1 SWAP2 POP PUSH2 0x7DD JUMP JUMPDEST DUP1 DUP1 PUSH2 0x7D5 SWAP1 PUSH2 0xE96 JUMP JUMPDEST SWAP2 POP POP PUSH2 0x65E JUMP JUMPDEST POP PUSH1 0x1 ISZERO ISZERO DUP2 ISZERO ISZERO EQ PUSH2 0x825 JUMPI PUSH1 0x40 MLOAD PUSH32 0x8C379A000000000000000000000000000000000000000000000000000000000 DUP2 MSTORE PUSH1 0x4 ADD PUSH2 0x81C SWAP1 PUSH2 0xD52 JUMP JUMPDEST PUSH1 0x40 MLOAD DUP1 SWAP2 SUB SWAP1 REVERT JUMPDEST DUP1 ISZERO PUSH2 0x8B2 JUMPI PUSH1 0x3 DUP3 DUP2 SLOAD DUP2 LT PUSH2 0x83F JUMPI PUSH2 0x83E PUSH2 0xF3D JUMP JUMPDEST JUMPDEST SWAP1 PUSH1 0x0 MSTORE PUSH1 0x20 PUSH1 0x0 KECCAK256 SWAP1 PUSH1 0x4 MUL ADD PUSH1 0x3 ADD CALLER SWAP1 DUP1 PUSH1 0x1 DUP2 SLOAD ADD DUP1 DUP3 SSTORE DUP1 SWAP2 POP POP PUSH1 0x1 SWAP1 SUB SWAP1 PUSH1 0x0 MSTORE PUSH1 0x20 PUSH1 0x0 KECCAK256 ADD PUSH1 0x0 SWAP1 SWAP2 SWAP1 SWAP2 SWAP1 SWAP2 PUSH2 0x100 EXP DUP2 SLOAD DUP2 PUSH20 0xFFFFFFFFFFFFFFFFFFFFFFFFFFFFFFFFFFFFFFFF MUL NOT AND SWAP1 DUP4 PUSH20 0xFFFFFFFFFFFFFFFFFFFFFFFFFFFFFFFFFFFFFFFF AND MUL OR SWAP1 SSTORE POP JUMPDEST POP POP JUMP JUMPDEST PUSH1 0x0 CALLER PUSH20 0xFFFFFFFFFFFFFFFFFFFFFFFFFFFFFFFFFFFFFFFF AND PUSH32 0x55B8D2FC1AAF27628691A3336B517D7B40BEE36BA595A24E893D1E872AFB82D1 CALLVALUE PUSH1 0x40 MLOAD PUSH2 0x8FE SWAP2 SWAP1 PUSH2 0xD92 JUMP JUMPDEST PUSH1 0x40 MLOAD DUP1 SWAP2 SUB SWAP1 LOG2 SELFBALANCE SWAP1 POP SWAP1 JUMP JUMPDEST PUSH1 0x0 DUP2 SWAP1 POP JUMPDEST PUSH1 0x1 PUSH1 0x3 DUP1 SLOAD SWAP1 POP PUSH2 0x924 SWAP2 SWAP1 PUSH2 0xE14 JUMP JUMPDEST DUP2 LT ISZERO PUSH2 0xA23 JUMPI PUSH1 0x3 PUSH1 0x1 DUP3 PUSH2 0x93A SWAP2 SWAP1 PUSH2 0xDBE JUMP JUMPDEST DUP2 SLOAD DUP2 LT PUSH2 0x94B JUMPI PUSH2 0x94A PUSH2 0xF3D JUMP JUMPDEST JUMPDEST SWAP1 PUSH1 0x0 MSTORE PUSH1 0x20 PUSH1 0x0 KECCAK256 SWAP1 PUSH1 0x4 MUL ADD PUSH1 0x3 DUP3 DUP2 SLOAD DUP2 LT PUSH2 0x96D JUMPI PUSH2 0x96C PUSH2 0xF3D JUMP JUMPDEST JUMPDEST SWAP1 PUSH1 0x0 MSTORE PUSH1 0x20 PUSH1 0x0 KECCAK256 SWAP1 PUSH1 0x4 MUL ADD PUSH1 0x0 DUP3 ADD PUSH1 0x0 SWAP1 SLOAD SWAP1 PUSH2 0x100 EXP SWAP1 DIV PUSH20 0xFFFFFFFFFFFFFFFFFFFFFFFFFFFFFFFFFFFFFFFF AND DUP2 PUSH1 0x0 ADD PUSH1 0x0 PUSH2 0x100 EXP DUP2 SLOAD DUP2 PUSH20 0xFFFFFFFFFFFFFFFFFFFFFFFFFFFFFFFFFFFFFFFF MUL NOT AND SWAP1 DUP4 PUSH20 0xFFFFFFFFFFFFFFFFFFFFFFFFFFFFFFFFFFFFFFFF AND MUL OR SWAP1 SSTORE POP PUSH1 0x1 DUP3 ADD SLOAD DUP2 PUSH1 0x1 ADD SSTORE PUSH1 0x2 DUP3 ADD SLOAD DUP2 PUSH1 0x2 ADD SSTORE PUSH1 0x3 DUP3 ADD DUP2 PUSH1 0x3 ADD SWAP1 DUP1 SLOAD PUSH2 0xA0C SWAP3 SWAP2 SWAP1 PUSH2 0xB23 JUMP JUMPDEST POP SWAP1 POP POP DUP1 DUP1 PUSH2 0xA1B SWAP1 PUSH2 0xE96 JUMP JUMPDEST SWAP2 POP POP PUSH2 0x912 JUMP JUMPDEST POP PUSH1 0x3 DUP1 SLOAD DUP1 PUSH2 0xA36 JUMPI PUSH2 0xA35 PUSH2 0xF0E JUMP JUMPDEST JUMPDEST PUSH1 0x1 SWAP1 SUB DUP2 DUP2 SWAP1 PUSH1 0x0 MSTORE PUSH1 0x20 PUSH1 0x0 KECCAK256 SWAP1 PUSH1 0x4 MUL ADD PUSH1 0x0 DUP1 DUP3 ADD PUSH1 0x0 PUSH2 0x100 EXP DUP2 SLOAD SWAP1 PUSH20 0xFFFFFFFFFFFFFFFFFFFFFFFFFFFFFFFFFFFFFFFF MUL NOT AND SWAP1 SSTORE PUSH1 0x1 DUP3 ADD PUSH1 0x0 SWAP1 SSTORE PUSH1 0x2 DUP3 ADD PUSH1 0x0 SWAP1 SSTORE PUSH1 0x3 DUP3 ADD PUSH1 0x0 PUSH2 0xA92 SWAP2 SWAP1 PUSH2 0xB75 JUMP JUMPDEST POP POP SWAP1 SSTORE POP JUMP JUMPDEST DUP3 DUP1 SLOAD DUP3 DUP3 SSTORE SWAP1 PUSH1 0x0 MSTORE PUSH1 0x20 PUSH1 0x0 KECCAK256 SWAP1 DUP2 ADD SWAP3 DUP3 ISZERO PUSH2 0xB12 JUMPI SWAP2 PUSH1 0x20 MUL DUP3 ADD JUMPDEST DUP3 DUP2 GT ISZERO PUSH2 0xB11 JUMPI DUP3 MLOAD DUP3 PUSH1 0x0 PUSH2 0x100 EXP DUP2 SLOAD DUP2 PUSH20 0xFFFFFFFFFFFFFFFFFFFFFFFFFFFFFFFFFFFFFFFF MUL NOT AND SWAP1 DUP4 PUSH20 0xFFFFFFFFFFFFFFFFFFFFFFFFFFFFFFFFFFFFFFFF AND MUL OR SWAP1 SSTORE POP SWAP2 PUSH1 0x20 ADD SWAP2 SWAP1 PUSH1 0x1 ADD SWAP1 PUSH2 0xAB9 JUMP JUMPDEST JUMPDEST POP SWAP1 POP PUSH2 0xB1F SWAP2 SWAP1 PUSH2 0xB96 JUMP JUMPDEST POP SWAP1 JUMP JUMPDEST DUP3 DUP1 SLOAD DUP3 DUP3 SSTORE SWAP1 PUSH1 0x0 MSTORE PUSH1 0x20 PUSH1 0x0 KECCAK256 SWAP1 DUP2 ADD SWAP3 DUP3 ISZERO PUSH2 0xB64 JUMPI PUSH1 0x0 MSTORE PUSH1 0x20 PUSH1 0x0 KECCAK256 SWAP2 DUP3 ADD JUMPDEST DUP3 DUP2 GT ISZERO PUSH2 0xB63 JUMPI DUP3 SLOAD DUP3 SSTORE SWAP2 PUSH1 0x1 ADD SWAP2 SWAP1 PUSH1 0x1 ADD SWAP1 PUSH2 0xB48 JUMP JUMPDEST JUMPDEST POP SWAP1 POP PUSH2 0xB71 SWAP2 SWAP1 PUSH2 0xB96 JUMP JUMPDEST POP SWAP1 JUMP JUMPDEST POP DUP1 SLOAD PUSH1 0x0 DUP3 SSTORE SWAP1 PUSH1 0x0 MSTORE PUSH1 0x20 PUSH1 0x0 KECCAK256 SWAP1 DUP2 ADD SWAP1 PUSH2 0xB93 SWAP2 SWAP1 PUSH2 0xB96 JUMP JUMPDEST POP JUMP JUMPDEST JUMPDEST DUP1 DUP3 GT ISZERO PUSH2 0xBAF JUMPI PUSH1 0x0 DUP2 PUSH1 0x0 SWAP1 SSTORE POP PUSH1 0x1 ADD PUSH2 0xB97 JUMP JUMPDEST POP SWAP1 JUMP JUMPDEST PUSH1 0x0 DUP2 CALLDATALOAD SWAP1 POP PUSH2 0xBC2 DUP2 PUSH2 0x105E JUMP JUMPDEST SWAP3 SWAP2 POP POP JUMP JUMPDEST PUSH1 0x0 DUP2 CALLDATALOAD SWAP1 POP PUSH2 0xBD7 DUP2 PUSH2 0x1075 JUMP JUMPDEST SWAP3 SWAP2 POP POP JUMP JUMPDEST PUSH1 0x0 DUP1 PUSH1 0x40 DUP4 DUP6 SUB SLT ISZERO PUSH2 0xBF4 JUMPI PUSH2 0xBF3 PUSH2 0xF6C JUMP JUMPDEST JUMPDEST PUSH1 0x0 PUSH2 0xC02 DUP6 DUP3 DUP7 ADD PUSH2 0xBB3 JUMP JUMPDEST SWAP3 POP POP PUSH1 0x20 PUSH2 0xC13 DUP6 DUP3 DUP7 ADD PUSH2 0xBC8 JUMP JUMPDEST SWAP2 POP POP SWAP3 POP SWAP3 SWAP1 POP JUMP JUMPDEST PUSH1 0x0 PUSH1 0x20 DUP3 DUP5 SUB SLT ISZERO PUSH2 0xC33 JUMPI PUSH2 0xC32 PUSH2 0xF6C JUMP JUMPDEST JUMPDEST PUSH1 0x0 PUSH2 0xC41 DUP5 DUP3 DUP6 ADD PUSH2 0xBC8 JUMP JUMPDEST SWAP2 POP POP SWAP3 SWAP2 POP POP JUMP JUMPDEST PUSH2 0xC53 DUP2 PUSH2 0xE5A JUMP JUMPDEST DUP3 MSTORE POP POP JUMP JUMPDEST PUSH2 0xC62 DUP2 PUSH2 0xE48 JUMP JUMPDEST DUP3 MSTORE POP POP JUMP JUMPDEST PUSH1 0x0 PUSH2 0xC75 PUSH1 0x21 DUP4 PUSH2 0xDAD JUMP JUMPDEST SWAP2 POP PUSH2 0xC80 DUP3 PUSH2 0xF71 JUMP JUMPDEST PUSH1 0x40 DUP3 ADD SWAP1 POP SWAP2 SWAP1 POP JUMP JUMPDEST PUSH1 0x0 PUSH2 0xC98 PUSH1 0x45 DUP4 PUSH2 0xDAD JUMP JUMPDEST SWAP2 POP PUSH2 0xCA3 DUP3 PUSH2 0xFC0 JUMP JUMPDEST PUSH1 0x60 DUP3 ADD SWAP1 POP SWAP2 SWAP1 POP JUMP JUMPDEST PUSH1 0x0 PUSH2 0xCBB PUSH1 0x1C DUP4 PUSH2 0xDAD JUMP JUMPDEST SWAP2 POP PUSH2 0xCC6 DUP3 PUSH2 0x1035 JUMP JUMPDEST PUSH1 0x20 DUP3 ADD SWAP1 POP SWAP2 SWAP1 POP JUMP JUMPDEST PUSH2 0xCDA DUP2 PUSH2 0xE8C JUMP JUMPDEST DUP3 MSTORE POP POP JUMP JUMPDEST PUSH1 0x0 PUSH1 0x20 DUP3 ADD SWAP1 POP PUSH2 0xCF5 PUSH1 0x0 DUP4 ADD DUP5 PUSH2 0xC59 JUMP JUMPDEST SWAP3 SWAP2 POP POP JUMP JUMPDEST PUSH1 0x0 PUSH1 0x60 DUP3 ADD SWAP1 POP PUSH2 0xD10 PUSH1 0x0 DUP4 ADD DUP7 PUSH2 0xC4A JUMP JUMPDEST PUSH2 0xD1D PUSH1 0x20 DUP4 ADD DUP6 PUSH2 0xCD1 JUMP JUMPDEST PUSH2 0xD2A PUSH1 0x40 DUP4 ADD DUP5 PUSH2 0xCD1 JUMP JUMPDEST SWAP5 SWAP4 POP POP POP POP JUMP JUMPDEST PUSH1 0x0 PUSH1 0x20 DUP3 ADD SWAP1 POP DUP2 DUP2 SUB PUSH1 0x0 DUP4 ADD MSTORE PUSH2 0xD4B DUP2 PUSH2 0xC68 JUMP JUMPDEST SWAP1 POP SWAP2 SWAP1 POP JUMP JUMPDEST PUSH1 0x0 PUSH1 0x20 DUP3 ADD SWAP1 POP DUP2 DUP2 SUB PUSH1 0x0 DUP4 ADD MSTORE PUSH2 0xD6B DUP2 PUSH2 0xC8B JUMP JUMPDEST SWAP1 POP SWAP2 SWAP1 POP JUMP JUMPDEST PUSH1 0x0 PUSH1 0x20 DUP3 ADD SWAP1 POP DUP2 DUP2 SUB PUSH1 0x0 DUP4 ADD MSTORE PUSH2 0xD8B DUP2 PUSH2 0xCAE JUMP JUMPDEST SWAP1 POP SWAP2 SWAP1 POP JUMP JUMPDEST PUSH1 0x0 PUSH1 0x20 DUP3 ADD SWAP1 POP PUSH2 0xDA7 PUSH1 0x0 DUP4 ADD DUP5 PUSH2 0xCD1 JUMP JUMPDEST SWAP3 SWAP2 POP POP JUMP JUMPDEST PUSH1 0x0 DUP3 DUP3 MSTORE PUSH1 0x20 DUP3 ADD SWAP1 POP SWAP3 SWAP2 POP POP JUMP JUMPDEST PUSH1 0x0 PUSH2 0xDC9 DUP3 PUSH2 0xE8C JUMP JUMPDEST SWAP2 POP PUSH2 0xDD4 DUP4 PUSH2 0xE8C JUMP JUMPDEST SWAP3 POP DUP3 PUSH32 0xFFFFFFFFFFFFFFFFFFFFFFFFFFFFFFFFFFFFFFFFFFFFFFFFFFFFFFFFFFFFFFFF SUB DUP3 GT ISZERO PUSH2 0xE09 JUMPI PUSH2 0xE08 PUSH2 0xEDF JUMP JUMPDEST JUMPDEST DUP3 DUP3 ADD SWAP1 POP SWAP3 SWAP2 POP POP JUMP JUMPDEST PUSH1 0x0 PUSH2 0xE1F DUP3 PUSH2 0xE8C JUMP JUMPDEST SWAP2 POP PUSH2 0xE2A DUP4 PUSH2 0xE8C JUMP JUMPDEST SWAP3 POP DUP3 DUP3 LT ISZERO PUSH2 0xE3D JUMPI PUSH2 0xE3C PUSH2 0xEDF JUMP JUMPDEST JUMPDEST DUP3 DUP3 SUB SWAP1 POP SWAP3 SWAP2 POP POP JUMP JUMPDEST PUSH1 0x0 PUSH2 0xE53 DUP3 PUSH2 0xE6C JUMP JUMPDEST SWAP1 POP SWAP2 SWAP1 POP JUMP JUMPDEST PUSH1 0x0 PUSH2 0xE65 DUP3 PUSH2 0xE6C JUMP JUMPDEST SWAP1 POP SWAP2 SWAP1 POP JUMP JUMPDEST PUSH1 0x0 PUSH20 0xFFFFFFFFFFFFFFFFFFFFFFFFFFFFFFFFFFFFFFFF DUP3 AND SWAP1 POP SWAP2 SWAP1 POP JUMP JUMPDEST PUSH1 0x0 DUP2 SWAP1 POP SWAP2 SWAP1 POP JUMP JUMPDEST PUSH1 0x0 PUSH2 0xEA1 DUP3 PUSH2 0xE8C JUMP JUMPDEST SWAP2 POP PUSH32 0xFFFFFFFFFFFFFFFFFFFFFFFFFFFFFFFFFFFFFFFFFFFFFFFFFFFFFFFFFFFFFFFF DUP3 EQ ISZERO PUSH2 0xED4 JUMPI PUSH2 0xED3 PUSH2 0xEDF JUMP JUMPDEST JUMPDEST PUSH1 0x1 DUP3 ADD SWAP1 POP SWAP2 SWAP1 POP JUMP JUMPDEST PUSH32 0x4E487B7100000000000000000000000000000000000000000000000000000000 PUSH1 0x0 MSTORE PUSH1 0x11 PUSH1 0x4 MSTORE PUSH1 0x24 PUSH1 0x0 REVERT JUMPDEST PUSH32 0x4E487B7100000000000000000000000000000000000000000000000000000000 PUSH1 0x0 MSTORE PUSH1 0x31 PUSH1 0x4 MSTORE PUSH1 0x24 PUSH1 0x0 REVERT JUMPDEST PUSH32 0x4E487B7100000000000000000000000000000000000000000000000000000000 PUSH1 0x0 MSTORE PUSH1 0x32 PUSH1 0x4 MSTORE PUSH1 0x24 PUSH1 0x0 REVERT JUMPDEST PUSH1 0x0 DUP1 REVERT JUMPDEST PUSH32 0x596F7520646F206E6F74206861766520656E6F756768207369676E6174757265 PUSH1 0x0 DUP3 ADD MSTORE PUSH32 0x7300000000000000000000000000000000000000000000000000000000000000 PUSH1 0x20 DUP3 ADD MSTORE POP JUMP JUMPDEST PUSH32 0x596F7520617265206E6F7420616C6C6F77656420746F207369676E2074686973 PUSH1 0x0 DUP3 ADD MSTORE PUSH32 0x207472616E73616374696F6E206F7220796F7520616C7265616479207369676E PUSH1 0x20 DUP3 ADD MSTORE PUSH32 0x6564206974000000000000000000000000000000000000000000000000000000 PUSH1 0x40 DUP3 ADD MSTORE POP JUMP JUMPDEST PUSH32 0x596F7520646F206E6F74206861766520656E6F7567682066756E647300000000 PUSH1 0x0 DUP3 ADD MSTORE POP JUMP JUMPDEST PUSH2 0x1067 DUP2 PUSH2 0xE5A JUMP JUMPDEST DUP2 EQ PUSH2 0x1072 JUMPI PUSH1 0x0 DUP1 REVERT JUMPDEST POP JUMP JUMPDEST PUSH2 0x107E DUP2 PUSH2 0xE8C JUMP JUMPDEST DUP2 EQ PUSH2 0x1089 JUMPI PUSH1 0x0 DUP1 REVERT JUMPDEST POP JUMP INVALID LOG2 PUSH5 0x6970667358 0x22 SLT KECCAK256 0xD8 PUSH25 0x74F6B333905FC9ED224ADE7A4A36FED62C87F3FC903A17FE3B LOG0 0x4E 0xCE RETURNDATASIZE 0xDF PUSH5 0x736F6C6343 STOP ADDMOD SMOD STOP CALLER "
		},
		"gasEstimates": {
			"creation": {
				"codeDepositCost": "858000",
				"executionCost": "infinite",
				"totalCost": "infinite"
			},
			"external": {
				"addTransaction(address,uint256)": "infinite",
				"addressesToSign(uint256)": "4979",
				"approve(uint256)": "infinite",
				"deposit()": "infinite",
				"getBalance()": "340",
				"transactionLog(uint256)": "infinite",
				"withdraw(uint256)": "infinite"
			},
			"internal": {
				"removeTransaction(uint256)": "infinite"
			}
		},
		"methodIdentifiers": {
			"addTransaction(address,uint256)": "84a37273",
			"addressesToSign(uint256)": "2919d6d8",
			"approve(uint256)": "b759f954",
			"deposit()": "d0e30db0",
			"getBalance()": "12065fe0",
			"transactionLog(uint256)": "69594cfa",
			"withdraw(uint256)": "2e1a7d4d"
		}
	},
	"abi": [
		{
			"inputs": [
				{
					"internalType": "address[]",
					"name": "addresses",
					"type": "address[]"
				},
				{
					"internalType": "uint256",
					"name": "nrOfApprovals",
					"type": "uint256"
				}
			],
			"stateMutability": "nonpayable",
			"type": "constructor"
		},
		{
			"anonymous": false,
			"inputs": [
				{
					"indexed": false,
					"internalType": "uint256",
					"name": "amount",
					"type": "uint256"
				},
				{
					"indexed": true,
					"internalType": "address",
					"name": "depositedTo",
					"type": "address"
				}
			],
			"name": "depositDone",
			"type": "event"
		},
		{
			"inputs": [
				{
					"internalType": "address payable",
					"name": "_to",
					"type": "address"
				},
				{
					"internalType": "uint256",
					"name": "_amount",
					"type": "uint256"
				}
			],
			"name": "addTransaction",
			"outputs": [],
			"stateMutability": "payable",
			"type": "function"
		},
		{
			"inputs": [
				{
					"internalType": "uint256",
					"name": "",
					"type": "uint256"
				}
			],
			"name": "addressesToSign",
			"outputs": [
				{
					"internalType": "address",
					"name": "",
					"type": "address"
				}
			],
			"stateMutability": "view",
			"type": "function"
		},
		{
			"inputs": [
				{
					"internalType": "uint256",
					"name": "txId",
					"type": "uint256"
				}
			],
			"name": "approve",
			"outputs": [],
			"stateMutability": "nonpayable",
			"type": "function"
		},
		{
			"inputs": [],
			"name": "deposit",
			"outputs": [
				{
					"internalType": "uint256",
					"name": "",
					"type": "uint256"
				}
			],
			"stateMutability": "payable",
			"type": "function"
		},
		{
			"inputs": [],
			"name": "getBalance",
			"outputs": [
				{
					"internalType": "uint256",
					"name": "",
					"type": "uint256"
				}
			],
			"stateMutability": "view",
			"type": "function"
		},
		{
			"inputs": [
				{
					"internalType": "uint256",
					"name": "",
					"type": "uint256"
				}
			],
			"name": "transactionLog",
			"outputs": [
				{
					"internalType": "address payable",
					"name": "_to",
					"type": "address"
				},
				{
					"internalType": "uint256",
					"name": "_amount",
					"type": "uint256"
				},
				{
					"internalType": "uint256",
					"name": "_txId",
					"type": "uint256"
				}
			],
			"stateMutability": "view",
			"type": "function"
		},
		{
			"inputs": [
				{
					"internalType": "uint256",
					"name": "txId",
					"type": "uint256"
				}
			],
			"name": "withdraw",
			"outputs": [
				{
					"internalType": "uint256",
					"name": "",
					"type": "uint256"
				}
			],
			"stateMutability": "payable",
			"type": "function"
		}
	]
}