{
	"data": {
		"bytecode": {
			"linkReferences": {},
			"object": "608060405234801561001057600080fd5b50610725806100206000396000f3fe608060405234801561001057600080fd5b50600436106100575760003560e01c806314887c581461005c57806318d6676c1461008c57806319b24684146100bd5780635d1b45b5146100ed578063d599fdd41461010b575b600080fd5b610076600480360381019061007191906104ad565b61013b565b60405161008391906105e0565b60405180910390f35b6100a660048036038101906100a19190610512565b610191565b6040516100b49291906105b7565b60405180910390f35b6100d760048036038101906100d2919061053b565b6101e5565b6040516100e491906105e0565b60405180910390f35b6100f56102f7565b60405161010291906105fb565b60405180910390f35b610125600480360381019061012091906104d6565b610303565b60405161013291906105fb565b60405180910390f35b6000600160008373ffffffffffffffffffffffffffffffffffffffff1673ffffffffffffffffffffffffffffffffffffffff16815260200190815260200160002060009054906101000a900460ff169050919050565b600081815481106101a157600080fd5b90600052602060002090600202016000915090508060000160009054906101000a900473ffffffffffffffffffffffffffffffffffffffff16908060010154905082565b60006101f08361013b565b6101f957600080fd5b8273ffffffffffffffffffffffffffffffffffffffff166000858154811061024a577f4e487b7100000000000000000000000000000000000000000000000000000000600052603260045260246000fd5b906000526020600020906002020160000160009054906101000a900473ffffffffffffffffffffffffffffffffffffffff1673ffffffffffffffffffffffffffffffffffffffff161461029c57600080fd5b81600085815481106102d7577f4e487b7100000000000000000000000000000000000000000000000000000000600052603260045260246000fd5b906000526020600020906002020160010181905550600190509392505050565b60008080549050905090565b600061030e8361013b565b1561031857600080fd5b610320610453565b83816000019073ffffffffffffffffffffffffffffffffffffffff16908173ffffffffffffffffffffffffffffffffffffffff16815250508281602001818152505060018060008673ffffffffffffffffffffffffffffffffffffffff1673ffffffffffffffffffffffffffffffffffffffff16815260200190815260200160002060006101000a81548160ff021916908315150217905550600081908060018154018082558091505060019003906000526020600020906002020160009091909190915060008201518160000160006101000a81548173ffffffffffffffffffffffffffffffffffffffff021916908373ffffffffffffffffffffffffffffffffffffffff160217905550602082015181600101555050600160008054905061044a9190610616565b91505092915050565b6040518060400160405280600073ffffffffffffffffffffffffffffffffffffffff168152602001600081525090565b600081359050610492816106c1565b92915050565b6000813590506104a7816106d8565b92915050565b6000602082840312156104bf57600080fd5b60006104cd84828501610483565b91505092915050565b600080604083850312156104e957600080fd5b60006104f785828601610483565b925050602061050885828601610498565b9150509250929050565b60006020828403121561052457600080fd5b600061053284828501610498565b91505092915050565b60008060006060848603121561055057600080fd5b600061055e86828701610498565b935050602061056f86828701610483565b925050604061058086828701610498565b9150509250925092565b6105938161064a565b82525050565b6105a28161065c565b82525050565b6105b181610688565b82525050565b60006040820190506105cc600083018561058a565b6105d960208301846105a8565b9392505050565b60006020820190506105f56000830184610599565b92915050565b600060208201905061061060008301846105a8565b92915050565b600061062182610688565b915061062c83610688565b92508282101561063f5761063e610692565b5b828203905092915050565b600061065582610668565b9050919050565b60008115159050919050565b600073ffffffffffffffffffffffffffffffffffffffff82169050919050565b6000819050919050565b7f4e487b7100000000000000000000000000000000000000000000000000000000600052601160045260246000fd5b6106ca8161064a565b81146106d557600080fd5b50565b6106e181610688565b81146106ec57600080fd5b5056fea26469706673582212207065039dfc6a7aa3f70c094fd6fcba38c63cb60ddb1949fd7c3e798d9fec6bd664736f6c63430008000033",
			"opcodes": "PUSH1 0x80 PUSH1 0x40 MSTORE CALLVALUE DUP1 ISZERO PUSH2 0x10 JUMPI PUSH1 0x0 DUP1 REVERT JUMPDEST POP PUSH2 0x725 DUP1 PUSH2 0x20 PUSH1 0x0 CODECOPY PUSH1 0x0 RETURN INVALID PUSH1 0x80 PUSH1 0x40 MSTORE CALLVALUE DUP1 ISZERO PUSH2 0x10 JUMPI PUSH1 0x0 DUP1 REVERT JUMPDEST POP PUSH1 0x4 CALLDATASIZE LT PUSH2 0x57 JUMPI PUSH1 0x0 CALLDATALOAD PUSH1 0xE0 SHR DUP1 PUSH4 0x14887C58 EQ PUSH2 0x5C JUMPI DUP1 PUSH4 0x18D6676C EQ PUSH2 0x8C JUMPI DUP1 PUSH4 0x19B24684 EQ PUSH2 0xBD JUMPI DUP1 PUSH4 0x5D1B45B5 EQ PUSH2 0xED JUMPI DUP1 PUSH4 0xD599FDD4 EQ PUSH2 0x10B JUMPI JUMPDEST PUSH1 0x0 DUP1 REVERT JUMPDEST PUSH2 0x76 PUSH1 0x4 DUP1 CALLDATASIZE SUB DUP2 ADD SWAP1 PUSH2 0x71 SWAP2 SWAP1 PUSH2 0x4AD JUMP JUMPDEST PUSH2 0x13B JUMP JUMPDEST PUSH1 0x40 MLOAD PUSH2 0x83 SWAP2 SWAP1 PUSH2 0x5E0 JUMP JUMPDEST PUSH1 0x40 MLOAD DUP1 SWAP2 SUB SWAP1 RETURN JUMPDEST PUSH2 0xA6 PUSH1 0x4 DUP1 CALLDATASIZE SUB DUP2 ADD SWAP1 PUSH2 0xA1 SWAP2 SWAP1 PUSH2 0x512 JUMP JUMPDEST PUSH2 0x191 JUMP JUMPDEST PUSH1 0x40 MLOAD PUSH2 0xB4 SWAP3 SWAP2 SWAP1 PUSH2 0x5B7 JUMP JUMPDEST PUSH1 0x40 MLOAD DUP1 SWAP2 SUB SWAP1 RETURN JUMPDEST PUSH2 0xD7 PUSH1 0x4 DUP1 CALLDATASIZE SUB DUP2 ADD SWAP1 PUSH2 0xD2 SWAP2 SWAP1 PUSH2 0x53B JUMP JUMPDEST PUSH2 0x1E5 JUMP JUMPDEST PUSH1 0x40 MLOAD PUSH2 0xE4 SWAP2 SWAP1 PUSH2 0x5E0 JUMP JUMPDEST PUSH1 0x40 MLOAD DUP1 SWAP2 SUB SWAP1 RETURN JUMPDEST PUSH2 0xF5 PUSH2 0x2F7 JUMP JUMPDEST PUSH1 0x40 MLOAD PUSH2 0x102 SWAP2 SWAP1 PUSH2 0x5FB JUMP JUMPDEST PUSH1 0x40 MLOAD DUP1 SWAP2 SUB SWAP1 RETURN JUMPDEST PUSH2 0x125 PUSH1 0x4 DUP1 CALLDATASIZE SUB DUP2 ADD SWAP1 PUSH2 0x120 SWAP2 SWAP1 PUSH2 0x4D6 JUMP JUMPDEST PUSH2 0x303 JUMP JUMPDEST PUSH1 0x40 MLOAD PUSH2 0x132 SWAP2 SWAP1 PUSH2 0x5FB JUMP JUMPDEST PUSH1 0x40 MLOAD DUP1 SWAP2 SUB SWAP1 RETURN JUMPDEST PUSH1 0x0 PUSH1 0x1 PUSH1 0x0 DUP4 PUSH20 0xFFFFFFFFFFFFFFFFFFFFFFFFFFFFFFFFFFFFFFFF AND PUSH20 0xFFFFFFFFFFFFFFFFFFFFFFFFFFFFFFFFFFFFFFFF AND DUP2 MSTORE PUSH1 0x20 ADD SWAP1 DUP2 MSTORE PUSH1 0x20 ADD PUSH1 0x0 KECCAK256 PUSH1 0x0 SWAP1 SLOAD SWAP1 PUSH2 0x100 EXP SWAP1 DIV PUSH1 0xFF AND SWAP1 POP SWAP2 SWAP1 POP JUMP JUMPDEST PUSH1 0x0 DUP2 DUP2 SLOAD DUP2 LT PUSH2 0x1A1 JUMPI PUSH1 0x0 DUP1 REVERT JUMPDEST SWAP1 PUSH1 0x0 MSTORE PUSH1 0x20 PUSH1 0x0 KECCAK256 SWAP1 PUSH1 0x2 MUL ADD PUSH1 0x0 SWAP2 POP SWAP1 POP DUP1 PUSH1 0x0 ADD PUSH1 0x0 SWAP1 SLOAD SWAP1 PUSH2 0x100 EXP SWAP1 DIV PUSH20 0xFFFFFFFFFFFFFFFFFFFFFFFFFFFFFFFFFFFFFFFF AND SWAP1 DUP1 PUSH1 0x1 ADD SLOAD SWAP1 POP DUP3 JUMP JUMPDEST PUSH1 0x0 PUSH2 0x1F0 DUP4 PUSH2 0x13B JUMP JUMPDEST PUSH2 0x1F9 JUMPI PUSH1 0x0 DUP1 REVERT JUMPDEST DUP3 PUSH20 0xFFFFFFFFFFFFFFFFFFFFFFFFFFFFFFFFFFFFFFFF AND PUSH1 0x0 DUP6 DUP2 SLOAD DUP2 LT PUSH2 0x24A JUMPI PUSH32 0x4E487B7100000000000000000000000000000000000000000000000000000000 PUSH1 0x0 MSTORE PUSH1 0x32 PUSH1 0x4 MSTORE PUSH1 0x24 PUSH1 0x0 REVERT JUMPDEST SWAP1 PUSH1 0x0 MSTORE PUSH1 0x20 PUSH1 0x0 KECCAK256 SWAP1 PUSH1 0x2 MUL ADD PUSH1 0x0 ADD PUSH1 0x0 SWAP1 SLOAD SWAP1 PUSH2 0x100 EXP SWAP1 DIV PUSH20 0xFFFFFFFFFFFFFFFFFFFFFFFFFFFFFFFFFFFFFFFF AND PUSH20 0xFFFFFFFFFFFFFFFFFFFFFFFFFFFFFFFFFFFFFFFF AND EQ PUSH2 0x29C JUMPI PUSH1 0x0 DUP1 REVERT JUMPDEST DUP2 PUSH1 0x0 DUP6 DUP2 SLOAD DUP2 LT PUSH2 0x2D7 JUMPI PUSH32 0x4E487B7100000000000000000000000000000000000000000000000000000000 PUSH1 0x0 MSTORE PUSH1 0x32 PUSH1 0x4 MSTORE PUSH1 0x24 PUSH1 0x0 REVERT JUMPDEST SWAP1 PUSH1 0x0 MSTORE PUSH1 0x20 PUSH1 0x0 KECCAK256 SWAP1 PUSH1 0x2 MUL ADD PUSH1 0x1 ADD DUP2 SWAP1 SSTORE POP PUSH1 0x1 SWAP1 POP SWAP4 SWAP3 POP POP POP JUMP JUMPDEST PUSH1 0x0 DUP1 DUP1 SLOAD SWAP1 POP SWAP1 POP SWAP1 JUMP JUMPDEST PUSH1 0x0 PUSH2 0x30E DUP4 PUSH2 0x13B JUMP JUMPDEST ISZERO PUSH2 0x318 JUMPI PUSH1 0x0 DUP1 REVERT JUMPDEST PUSH2 0x320 PUSH2 0x453 JUMP JUMPDEST DUP4 DUP2 PUSH1 0x0 ADD SWAP1 PUSH20 0xFFFFFFFFFFFFFFFFFFFFFFFFFFFFFFFFFFFFFFFF AND SWAP1 DUP2 PUSH20 0xFFFFFFFFFFFFFFFFFFFFFFFFFFFFFFFFFFFFFFFF AND DUP2 MSTORE POP POP DUP3 DUP2 PUSH1 0x20 ADD DUP2 DUP2 MSTORE POP POP PUSH1 0x1 DUP1 PUSH1 0x0 DUP7 PUSH20 0xFFFFFFFFFFFFFFFFFFFFFFFFFFFFFFFFFFFFFFFF AND PUSH20 0xFFFFFFFFFFFFFFFFFFFFFFFFFFFFFFFFFFFFFFFF AND DUP2 MSTORE PUSH1 0x20 ADD SWAP1 DUP2 MSTORE PUSH1 0x20 ADD PUSH1 0x0 KECCAK256 PUSH1 0x0 PUSH2 0x100 EXP DUP2 SLOAD DUP2 PUSH1 0xFF MUL NOT AND SWAP1 DUP4 ISZERO ISZERO MUL OR SWAP1 SSTORE POP PUSH1 0x0 DUP2 SWAP1 DUP1 PUSH1 0x1 DUP2 SLOAD ADD DUP1 DUP3 SSTORE DUP1 SWAP2 POP POP PUSH1 0x1 SWAP1 SUB SWAP1 PUSH1 0x0 MSTORE PUSH1 0x20 PUSH1 0x0 KECCAK256 SWAP1 PUSH1 0x2 MUL ADD PUSH1 0x0 SWAP1 SWAP2 SWAP1 SWAP2 SWAP1 SWAP2 POP PUSH1 0x0 DUP3 ADD MLOAD DUP2 PUSH1 0x0 ADD PUSH1 0x0 PUSH2 0x100 EXP DUP2 SLOAD DUP2 PUSH20 0xFFFFFFFFFFFFFFFFFFFFFFFFFFFFFFFFFFFFFFFF MUL NOT AND SWAP1 DUP4 PUSH20 0xFFFFFFFFFFFFFFFFFFFFFFFFFFFFFFFFFFFFFFFF AND MUL OR SWAP1 SSTORE POP PUSH1 0x20 DUP3 ADD MLOAD DUP2 PUSH1 0x1 ADD SSTORE POP POP PUSH1 0x1 PUSH1 0x0 DUP1 SLOAD SWAP1 POP PUSH2 0x44A SWAP2 SWAP1 PUSH2 0x616 JUMP JUMPDEST SWAP2 POP POP SWAP3 SWAP2 POP POP JUMP JUMPDEST PUSH1 0x40 MLOAD DUP1 PUSH1 0x40 ADD PUSH1 0x40 MSTORE DUP1 PUSH1 0x0 PUSH20 0xFFFFFFFFFFFFFFFFFFFFFFFFFFFFFFFFFFFFFFFF AND DUP2 MSTORE PUSH1 0x20 ADD PUSH1 0x0 DUP2 MSTORE POP SWAP1 JUMP JUMPDEST PUSH1 0x0 DUP2 CALLDATALOAD SWAP1 POP PUSH2 0x492 DUP2 PUSH2 0x6C1 JUMP JUMPDEST SWAP3 SWAP2 POP POP JUMP JUMPDEST PUSH1 0x0 DUP2 CALLDATALOAD SWAP1 POP PUSH2 0x4A7 DUP2 PUSH2 0x6D8 JUMP JUMPDEST SWAP3 SWAP2 POP POP JUMP JUMPDEST PUSH1 0x0 PUSH1 0x20 DUP3 DUP5 SUB SLT ISZERO PUSH2 0x4BF JUMPI PUSH1 0x0 DUP1 REVERT JUMPDEST PUSH1 0x0 PUSH2 0x4CD DUP5 DUP3 DUP6 ADD PUSH2 0x483 JUMP JUMPDEST SWAP2 POP POP SWAP3 SWAP2 POP POP JUMP JUMPDEST PUSH1 0x0 DUP1 PUSH1 0x40 DUP4 DUP6 SUB SLT ISZERO PUSH2 0x4E9 JUMPI PUSH1 0x0 DUP1 REVERT JUMPDEST PUSH1 0x0 PUSH2 0x4F7 DUP6 DUP3 DUP7 ADD PUSH2 0x483 JUMP JUMPDEST SWAP3 POP POP PUSH1 0x20 PUSH2 0x508 DUP6 DUP3 DUP7 ADD PUSH2 0x498 JUMP JUMPDEST SWAP2 POP POP SWAP3 POP SWAP3 SWAP1 POP JUMP JUMPDEST PUSH1 0x0 PUSH1 0x20 DUP3 DUP5 SUB SLT ISZERO PUSH2 0x524 JUMPI PUSH1 0x0 DUP1 REVERT JUMPDEST PUSH1 0x0 PUSH2 0x532 DUP5 DUP3 DUP6 ADD PUSH2 0x498 JUMP JUMPDEST SWAP2 POP POP SWAP3 SWAP2 POP POP JUMP JUMPDEST PUSH1 0x0 DUP1 PUSH1 0x0 PUSH1 0x60 DUP5 DUP7 SUB SLT ISZERO PUSH2 0x550 JUMPI PUSH1 0x0 DUP1 REVERT JUMPDEST PUSH1 0x0 PUSH2 0x55E DUP7 DUP3 DUP8 ADD PUSH2 0x498 JUMP JUMPDEST SWAP4 POP POP PUSH1 0x20 PUSH2 0x56F DUP7 DUP3 DUP8 ADD PUSH2 0x483 JUMP JUMPDEST SWAP3 POP POP PUSH1 0x40 PUSH2 0x580 DUP7 DUP3 DUP8 ADD PUSH2 0x498 JUMP JUMPDEST SWAP2 POP POP SWAP3 POP SWAP3 POP SWAP3 JUMP JUMPDEST PUSH2 0x593 DUP2 PUSH2 0x64A JUMP JUMPDEST DUP3 MSTORE POP POP JUMP JUMPDEST PUSH2 0x5A2 DUP2 PUSH2 0x65C JUMP JUMPDEST DUP3 MSTORE POP POP JUMP JUMPDEST PUSH2 0x5B1 DUP2 PUSH2 0x688 JUMP JUMPDEST DUP3 MSTORE POP POP JUMP JUMPDEST PUSH1 0x0 PUSH1 0x40 DUP3 ADD SWAP1 POP PUSH2 0x5CC PUSH1 0x0 DUP4 ADD DUP6 PUSH2 0x58A JUMP JUMPDEST PUSH2 0x5D9 PUSH1 0x20 DUP4 ADD DUP5 PUSH2 0x5A8 JUMP JUMPDEST SWAP4 SWAP3 POP POP POP JUMP JUMPDEST PUSH1 0x0 PUSH1 0x20 DUP3 ADD SWAP1 POP PUSH2 0x5F5 PUSH1 0x0 DUP4 ADD DUP5 PUSH2 0x599 JUMP JUMPDEST SWAP3 SWAP2 POP POP JUMP JUMPDEST PUSH1 0x0 PUSH1 0x20 DUP3 ADD SWAP1 POP PUSH2 0x610 PUSH1 0x0 DUP4 ADD DUP5 PUSH2 0x5A8 JUMP JUMPDEST SWAP3 SWAP2 POP POP JUMP JUMPDEST PUSH1 0x0 PUSH2 0x621 DUP3 PUSH2 0x688 JUMP JUMPDEST SWAP2 POP PUSH2 0x62C DUP4 PUSH2 0x688 JUMP JUMPDEST SWAP3 POP DUP3 DUP3 LT ISZERO PUSH2 0x63F JUMPI PUSH2 0x63E PUSH2 0x692 JUMP JUMPDEST JUMPDEST DUP3 DUP3 SUB SWAP1 POP SWAP3 SWAP2 POP POP JUMP JUMPDEST PUSH1 0x0 PUSH2 0x655 DUP3 PUSH2 0x668 JUMP JUMPDEST SWAP1 POP SWAP2 SWAP1 POP JUMP JUMPDEST PUSH1 0x0 DUP2 ISZERO ISZERO SWAP1 POP SWAP2 SWAP1 POP JUMP JUMPDEST PUSH1 0x0 PUSH20 0xFFFFFFFFFFFFFFFFFFFFFFFFFFFFFFFFFFFFFFFF DUP3 AND SWAP1 POP SWAP2 SWAP1 POP JUMP JUMPDEST PUSH1 0x0 DUP2 SWAP1 POP SWAP2 SWAP1 POP JUMP JUMPDEST PUSH32 0x4E487B7100000000000000000000000000000000000000000000000000000000 PUSH1 0x0 MSTORE PUSH1 0x11 PUSH1 0x4 MSTORE PUSH1 0x24 PUSH1 0x0 REVERT JUMPDEST PUSH2 0x6CA DUP2 PUSH2 0x64A JUMP JUMPDEST DUP2 EQ PUSH2 0x6D5 JUMPI PUSH1 0x0 DUP1 REVERT JUMPDEST POP JUMP JUMPDEST PUSH2 0x6E1 DUP2 PUSH2 0x688 JUMP JUMPDEST DUP2 EQ PUSH2 0x6EC JUMPI PUSH1 0x0 DUP1 REVERT JUMPDEST POP JUMP INVALID LOG2 PUSH5 0x6970667358 0x22 SLT KECCAK256 PUSH17 0x65039DFC6A7AA3F70C094FD6FCBA38C63C 0xB6 0xD 0xDB NOT 0x49 REVERT PUSH29 0x3E798D9FEC6BD664736F6C634300080000330000000000000000000000 "
		},
		"gasEstimates": {
			"creation": {
				"codeDepositCost": "365800",
				"executionCost": "405",
				"totalCost": "366205"
			},
			"external": {
				"entityStructs(uint256)": "infinite",
				"getEntityCount()": "1189",
				"isEntity(address)": "1561",
				"newEntity(address,uint256)": "infinite",
				"updateEntity(uint256,address,uint256)": "infinite"
			}
		},
		"methodIdentifiers": {
			"entityStructs(uint256)": "18d6676c",
			"getEntityCount()": "5d1b45b5",
			"isEntity(address)": "14887c58",
			"newEntity(address,uint256)": "d599fdd4",
			"updateEntity(uint256,address,uint256)": "19b24684"
		}
	},
	"abi": [
		{
			"inputs": [
				{
					"internalType": "uint256",
					"name": "",
					"type": "uint256"
				}
			],
			"name": "entityStructs",
			"outputs": [
				{
					"internalType": "address",
					"name": "entityAddress",
					"type": "address"
				},
				{
					"internalType": "uint256",
					"name": "entityData",
					"type": "uint256"
				}
			],
			"stateMutability": "view",
			"type": "function"
		},
		{
			"inputs": [],
			"name": "getEntityCount",
			"outputs": [
				{
					"internalType": "uint256",
					"name": "entityCount",
					"type": "uint256"
				}
			],
			"stateMutability": "view",
			"type": "function"
		},
		{
			"inputs": [
				{
					"internalType": "address",
					"name": "entityAddress",
					"type": "address"
				}
			],
			"name": "isEntity",
			"outputs": [
				{
					"internalType": "bool",
					"name": "isIndeed",
					"type": "bool"
				}
			],
			"stateMutability": "view",
			"type": "function"
		},
		{
			"inputs": [
				{
					"internalType": "address",
					"name": "entityAddress",
					"type": "address"
				},
				{
					"internalType": "uint256",
					"name": "entityData",
					"type": "uint256"
				}
			],
			"name": "newEntity",
			"outputs": [
				{
					"internalType": "uint256",
					"name": "rowNumber",
					"type": "uint256"
				}
			],
			"stateMutability": "nonpayable",
			"type": "function"
		},
		{
			"inputs": [
				{
					"internalType": "uint256",
					"name": "rowNumber",
					"type": "uint256"
				},
				{
					"internalType": "address",
					"name": "entityAddress",
					"type": "address"
				},
				{
					"internalType": "uint256",
					"name": "entityData",
					"type": "uint256"
				}
			],
			"name": "updateEntity",
			"outputs": [
				{
					"internalType": "bool",
					"name": "success",
					"type": "bool"
				}
			],
			"stateMutability": "nonpayable",
			"type": "function"
		}
	]
}