{
	"data": {
		"bytecode": {
			"linkReferences": {},
			"object": "608060405234801561001057600080fd5b506102be806100206000396000f3fe608060405234801561001057600080fd5b50600436106100365760003560e01c80634fe453b21461003b57806386a3b06a1461006b575b600080fd5b610055600480360381019061005091906101ba565b61009b565b60405161006291906101f3565b60405180910390f35b61008560048036038101906100809190610190565b6100ce565b60405161009291906101f3565b60405180910390f35b60008054826000600a81106100ac57fe5b602002018181525050816000600a81106100c257fe5b60200201519050919050565b6000816000600a81106100dd57fe5b60200201359050919050565b6000819050826020600a028201111561010157600080fd5b92915050565b600082601f83011261011857600080fd5b600a61012b6101268261023f565b61020e565b9150818385602084028201111561014157600080fd5b60005b838110156101715781610157888261017b565b845260208401935060208301925050600181019050610144565b5050505092915050565b60008135905061018a81610271565b92915050565b600061014082840312156101a357600080fd5b60006101b1848285016100e9565b91505092915050565b600061014082840312156101cd57600080fd5b60006101db84828501610107565b91505092915050565b6101ed81610265565b82525050565b600060208201905061020860008301846101e4565b92915050565b6000604051905081810181811067ffffffffffffffff821117156102355761023461026f565b5b8060405250919050565b600067ffffffffffffffff82111561025a5761025961026f565b5b602082029050919050565b6000819050919050565bfe5b61027a81610265565b811461028557600080fd5b5056fea2646970667358221220befce2ce4ff0872e72a9b618cbd9fec1dd02148f0d2a5e352fb1870a816ea90664736f6c63430007050033",
			"opcodes": "PUSH1 0x80 PUSH1 0x40 MSTORE CALLVALUE DUP1 ISZERO PUSH2 0x10 JUMPI PUSH1 0x0 DUP1 REVERT JUMPDEST POP PUSH2 0x2BE DUP1 PUSH2 0x20 PUSH1 0x0 CODECOPY PUSH1 0x0 RETURN INVALID PUSH1 0x80 PUSH1 0x40 MSTORE CALLVALUE DUP1 ISZERO PUSH2 0x10 JUMPI PUSH1 0x0 DUP1 REVERT JUMPDEST POP PUSH1 0x4 CALLDATASIZE LT PUSH2 0x36 JUMPI PUSH1 0x0 CALLDATALOAD PUSH1 0xE0 SHR DUP1 PUSH4 0x4FE453B2 EQ PUSH2 0x3B JUMPI DUP1 PUSH4 0x86A3B06A EQ PUSH2 0x6B JUMPI JUMPDEST PUSH1 0x0 DUP1 REVERT JUMPDEST PUSH2 0x55 PUSH1 0x4 DUP1 CALLDATASIZE SUB DUP2 ADD SWAP1 PUSH2 0x50 SWAP2 SWAP1 PUSH2 0x1BA JUMP JUMPDEST PUSH2 0x9B JUMP JUMPDEST PUSH1 0x40 MLOAD PUSH2 0x62 SWAP2 SWAP1 PUSH2 0x1F3 JUMP JUMPDEST PUSH1 0x40 MLOAD DUP1 SWAP2 SUB SWAP1 RETURN JUMPDEST PUSH2 0x85 PUSH1 0x4 DUP1 CALLDATASIZE SUB DUP2 ADD SWAP1 PUSH2 0x80 SWAP2 SWAP1 PUSH2 0x190 JUMP JUMPDEST PUSH2 0xCE JUMP JUMPDEST PUSH1 0x40 MLOAD PUSH2 0x92 SWAP2 SWAP1 PUSH2 0x1F3 JUMP JUMPDEST PUSH1 0x40 MLOAD DUP1 SWAP2 SUB SWAP1 RETURN JUMPDEST PUSH1 0x0 DUP1 SLOAD DUP3 PUSH1 0x0 PUSH1 0xA DUP2 LT PUSH2 0xAC JUMPI INVALID JUMPDEST PUSH1 0x20 MUL ADD DUP2 DUP2 MSTORE POP POP DUP2 PUSH1 0x0 PUSH1 0xA DUP2 LT PUSH2 0xC2 JUMPI INVALID JUMPDEST PUSH1 0x20 MUL ADD MLOAD SWAP1 POP SWAP2 SWAP1 POP JUMP JUMPDEST PUSH1 0x0 DUP2 PUSH1 0x0 PUSH1 0xA DUP2 LT PUSH2 0xDD JUMPI INVALID JUMPDEST PUSH1 0x20 MUL ADD CALLDATALOAD SWAP1 POP SWAP2 SWAP1 POP JUMP JUMPDEST PUSH1 0x0 DUP2 SWAP1 POP DUP3 PUSH1 0x20 PUSH1 0xA MUL DUP3 ADD GT ISZERO PUSH2 0x101 JUMPI PUSH1 0x0 DUP1 REVERT JUMPDEST SWAP3 SWAP2 POP POP JUMP JUMPDEST PUSH1 0x0 DUP3 PUSH1 0x1F DUP4 ADD SLT PUSH2 0x118 JUMPI PUSH1 0x0 DUP1 REVERT JUMPDEST PUSH1 0xA PUSH2 0x12B PUSH2 0x126 DUP3 PUSH2 0x23F JUMP JUMPDEST PUSH2 0x20E JUMP JUMPDEST SWAP2 POP DUP2 DUP4 DUP6 PUSH1 0x20 DUP5 MUL DUP3 ADD GT ISZERO PUSH2 0x141 JUMPI PUSH1 0x0 DUP1 REVERT JUMPDEST PUSH1 0x0 JUMPDEST DUP4 DUP2 LT ISZERO PUSH2 0x171 JUMPI DUP2 PUSH2 0x157 DUP9 DUP3 PUSH2 0x17B JUMP JUMPDEST DUP5 MSTORE PUSH1 0x20 DUP5 ADD SWAP4 POP PUSH1 0x20 DUP4 ADD SWAP3 POP POP PUSH1 0x1 DUP2 ADD SWAP1 POP PUSH2 0x144 JUMP JUMPDEST POP POP POP POP SWAP3 SWAP2 POP POP JUMP JUMPDEST PUSH1 0x0 DUP2 CALLDATALOAD SWAP1 POP PUSH2 0x18A DUP2 PUSH2 0x271 JUMP JUMPDEST SWAP3 SWAP2 POP POP JUMP JUMPDEST PUSH1 0x0 PUSH2 0x140 DUP3 DUP5 SUB SLT ISZERO PUSH2 0x1A3 JUMPI PUSH1 0x0 DUP1 REVERT JUMPDEST PUSH1 0x0 PUSH2 0x1B1 DUP5 DUP3 DUP6 ADD PUSH2 0xE9 JUMP JUMPDEST SWAP2 POP POP SWAP3 SWAP2 POP POP JUMP JUMPDEST PUSH1 0x0 PUSH2 0x140 DUP3 DUP5 SUB SLT ISZERO PUSH2 0x1CD JUMPI PUSH1 0x0 DUP1 REVERT JUMPDEST PUSH1 0x0 PUSH2 0x1DB DUP5 DUP3 DUP6 ADD PUSH2 0x107 JUMP JUMPDEST SWAP2 POP POP SWAP3 SWAP2 POP POP JUMP JUMPDEST PUSH2 0x1ED DUP2 PUSH2 0x265 JUMP JUMPDEST DUP3 MSTORE POP POP JUMP JUMPDEST PUSH1 0x0 PUSH1 0x20 DUP3 ADD SWAP1 POP PUSH2 0x208 PUSH1 0x0 DUP4 ADD DUP5 PUSH2 0x1E4 JUMP JUMPDEST SWAP3 SWAP2 POP POP JUMP JUMPDEST PUSH1 0x0 PUSH1 0x40 MLOAD SWAP1 POP DUP2 DUP2 ADD DUP2 DUP2 LT PUSH8 0xFFFFFFFFFFFFFFFF DUP3 GT OR ISZERO PUSH2 0x235 JUMPI PUSH2 0x234 PUSH2 0x26F JUMP JUMPDEST JUMPDEST DUP1 PUSH1 0x40 MSTORE POP SWAP2 SWAP1 POP JUMP JUMPDEST PUSH1 0x0 PUSH8 0xFFFFFFFFFFFFFFFF DUP3 GT ISZERO PUSH2 0x25A JUMPI PUSH2 0x259 PUSH2 0x26F JUMP JUMPDEST JUMPDEST PUSH1 0x20 DUP3 MUL SWAP1 POP SWAP2 SWAP1 POP JUMP JUMPDEST PUSH1 0x0 DUP2 SWAP1 POP SWAP2 SWAP1 POP JUMP JUMPDEST INVALID JUMPDEST PUSH2 0x27A DUP2 PUSH2 0x265 JUMP JUMPDEST DUP2 EQ PUSH2 0x285 JUMPI PUSH1 0x0 DUP1 REVERT JUMPDEST POP JUMP INVALID LOG2 PUSH5 0x6970667358 0x22 SLT KECCAK256 0xBE 0xFC 0xE2 0xCE 0x4F CREATE DUP8 0x2E PUSH19 0xA9B618CBD9FEC1DD02148F0D2A5E352FB1870A DUP2 PUSH15 0xA90664736F6C634300070500330000 "
		},
		"gasEstimates": {
			"creation": {
				"codeDepositCost": "140400",
				"executionCost": "183",
				"totalCost": "140583"
			},
			"external": {
				"testExternal(uint256[10])": "584",
				"testPublic(uint256[10])": "infinite"
			}
		},
		"methodIdentifiers": {
			"testExternal(uint256[10])": "86a3b06a",
			"testPublic(uint256[10])": "4fe453b2"
		}
	},
	"abi": [
		{
			"inputs": [
				{
					"internalType": "uint256[10]",
					"name": "numbers",
					"type": "uint256[10]"
				}
			],
			"name": "testExternal",
			"outputs": [
				{
					"internalType": "uint256",
					"name": "",
					"type": "uint256"
				}
			],
			"stateMutability": "pure",
			"type": "function"
		},
		{
			"inputs": [
				{
					"internalType": "uint256[10]",
					"name": "numbers",
					"type": "uint256[10]"
				}
			],
			"name": "testPublic",
			"outputs": [
				{
					"internalType": "uint256",
					"name": "",
					"type": "uint256"
				}
			],
			"stateMutability": "view",
			"type": "function"
		}
	]
}