{
	"20_proxyContracts/proxyFunc.sol": {
		"ProxyFunc": {
			"abi": [
				{
					"inputs": [
						{
							"internalType": "address",
							"name": "_currentAddress",
							"type": "address"
						}
					],
					"stateMutability": "nonpayable",
					"type": "constructor"
				},
				{
					"inputs": [],
					"name": "currentAddress",
					"outputs": [
						{
							"internalType": "address",
							"name": "",
							"type": "address"
						}
					],
					"stateMutability": "view",
					"type": "function"
				},
				{
					"inputs": [],
					"name": "get_func_proxy_storage",
					"outputs": [
						{
							"internalType": "bool",
							"name": "",
							"type": "bool"
						},
						{
							"internalType": "bytes",
							"name": "",
							"type": "bytes"
						}
					],
					"stateMutability": "nonpayable",
					"type": "function"
				},
				{
					"inputs": [
						{
							"internalType": "uint256",
							"name": "_value",
							"type": "uint256"
						}
					],
					"name": "set_func_proxy_storage",
					"outputs": [
						{
							"internalType": "bool",
							"name": "",
							"type": "bool"
						},
						{
							"internalType": "bytes",
							"name": "",
							"type": "bytes"
						}
					],
					"stateMutability": "nonpayable",
					"type": "function"
				},
				{
					"inputs": [
						{
							"internalType": "address",
							"name": "_currentAddress",
							"type": "address"
						}
					],
					"name": "upgrade",
					"outputs": [],
					"stateMutability": "nonpayable",
					"type": "function"
				}
			],
			"devdoc": {
				"kind": "dev",
				"methods": {},
				"version": 1
			},
			"evm": {
				"assembly": "    /* \"20_proxyContracts/proxyFunc.sol\":88:1411  contract ProxyFunc is Storage {... */\n  mstore(0x40, 0x80)\n    /* \"20_proxyContracts/proxyFunc.sol\":622:708  constructor(address _currentAddress) {... */\n  callvalue\n  dup1\n  iszero\n  tag_1\n  jumpi\n  0x00\n  dup1\n  revert\ntag_1:\n  pop\n  mload(0x40)\n  sub(codesize, bytecodeSize)\n  dup1\n  bytecodeSize\n  dup4\n  codecopy\n  dup2\n  dup2\n  add\n  0x40\n  mstore\n  dup2\n  add\n  swap1\n  tag_2\n  swap2\n  swap1\n  tag_3\n  jump\t// in\ntag_2:\n    /* \"20_proxyContracts/proxyFunc.sol\":686:701  _currentAddress */\n  dup1\n    /* \"20_proxyContracts/proxyFunc.sol\":669:683  currentAddress */\n  0x01\n  0x00\n    /* \"20_proxyContracts/proxyFunc.sol\":669:701  currentAddress = _currentAddress */\n  0x0100\n  exp\n  dup2\n  sload\n  dup2\n  0xffffffffffffffffffffffffffffffffffffffff\n  mul\n  not\n  and\n  swap1\n  dup4\n  0xffffffffffffffffffffffffffffffffffffffff\n  and\n  mul\n  or\n  swap1\n  sstore\n  pop\n    /* \"20_proxyContracts/proxyFunc.sol\":622:708  constructor(address _currentAddress) {... */\n  pop\n    /* \"20_proxyContracts/proxyFunc.sol\":88:1411  contract ProxyFunc is Storage {... */\n  jump(tag_6)\n    /* \"#utility.yul\":7:150   */\ntag_8:\n  0x00\n    /* \"#utility.yul\":95:101   */\n  dup2\n    /* \"#utility.yul\":89:102   */\n  mload\n    /* \"#utility.yul\":80:102   */\n  swap1\n  pop\n    /* \"#utility.yul\":111:144   */\n  tag_10\n    /* \"#utility.yul\":138:143   */\n  dup2\n    /* \"#utility.yul\":111:144   */\n  tag_11\n  jump\t// in\ntag_10:\n    /* \"#utility.yul\":70:150   */\n  swap3\n  swap2\n  pop\n  pop\n  jump\t// out\n    /* \"#utility.yul\":156:440   */\ntag_3:\n  0x00\n    /* \"#utility.yul\":275:277   */\n  0x20\n    /* \"#utility.yul\":263:272   */\n  dup3\n    /* \"#utility.yul\":254:261   */\n  dup5\n    /* \"#utility.yul\":250:273   */\n  sub\n    /* \"#utility.yul\":246:278   */\n  slt\n    /* \"#utility.yul\":243:245   */\n  iszero\n  tag_13\n  jumpi\n    /* \"#utility.yul\":291:292   */\n  0x00\n    /* \"#utility.yul\":288:289   */\n  dup1\n    /* \"#utility.yul\":281:293   */\n  revert\n    /* \"#utility.yul\":243:245   */\ntag_13:\n    /* \"#utility.yul\":334:335   */\n  0x00\n    /* \"#utility.yul\":359:423   */\n  tag_14\n    /* \"#utility.yul\":415:422   */\n  dup5\n    /* \"#utility.yul\":406:412   */\n  dup3\n    /* \"#utility.yul\":395:404   */\n  dup6\n    /* \"#utility.yul\":391:413   */\n  add\n    /* \"#utility.yul\":359:423   */\n  tag_8\n  jump\t// in\ntag_14:\n    /* \"#utility.yul\":349:423   */\n  swap2\n  pop\n    /* \"#utility.yul\":305:433   */\n  pop\n    /* \"#utility.yul\":233:440   */\n  swap3\n  swap2\n  pop\n  pop\n  jump\t// out\n    /* \"#utility.yul\":446:542   */\ntag_15:\n  0x00\n    /* \"#utility.yul\":512:536   */\n  tag_17\n    /* \"#utility.yul\":530:535   */\n  dup3\n    /* \"#utility.yul\":512:536   */\n  tag_18\n  jump\t// in\ntag_17:\n    /* \"#utility.yul\":501:536   */\n  swap1\n  pop\n    /* \"#utility.yul\":491:542   */\n  swap2\n  swap1\n  pop\n  jump\t// out\n    /* \"#utility.yul\":548:674   */\ntag_18:\n  0x00\n    /* \"#utility.yul\":625:667   */\n  0xffffffffffffffffffffffffffffffffffffffff\n    /* \"#utility.yul\":618:623   */\n  dup3\n    /* \"#utility.yul\":614:668   */\n  and\n    /* \"#utility.yul\":603:668   */\n  swap1\n  pop\n    /* \"#utility.yul\":593:674   */\n  swap2\n  swap1\n  pop\n  jump\t// out\n    /* \"#utility.yul\":680:802   */\ntag_11:\n    /* \"#utility.yul\":753:777   */\n  tag_21\n    /* \"#utility.yul\":771:776   */\n  dup2\n    /* \"#utility.yul\":753:777   */\n  tag_15\n  jump\t// in\ntag_21:\n    /* \"#utility.yul\":746:751   */\n  dup2\n    /* \"#utility.yul\":743:778   */\n  eq\n    /* \"#utility.yul\":733:735   */\n  tag_22\n  jumpi\n    /* \"#utility.yul\":792:793   */\n  0x00\n    /* \"#utility.yul\":789:790   */\n  dup1\n    /* \"#utility.yul\":782:794   */\n  revert\n    /* \"#utility.yul\":733:735   */\ntag_22:\n    /* \"#utility.yul\":723:802   */\n  pop\n  jump\t// out\n    /* \"20_proxyContracts/proxyFunc.sol\":88:1411  contract ProxyFunc is Storage {... */\ntag_6:\n  dataSize(sub_0)\n  dup1\n  dataOffset(sub_0)\n  0x00\n  codecopy\n  0x00\n  return\nstop\n\nsub_0: assembly {\n        /* \"20_proxyContracts/proxyFunc.sol\":88:1411  contract ProxyFunc is Storage {... */\n      mstore(0x40, 0x80)\n      callvalue\n      dup1\n      iszero\n      tag_1\n      jumpi\n      0x00\n      dup1\n      revert\n    tag_1:\n      pop\n      jumpi(tag_2, lt(calldatasize, 0x04))\n      shr(0xe0, calldataload(0x00))\n      dup1\n      0x0900f010\n      eq\n      tag_3\n      jumpi\n      dup1\n      0x1d22a359\n      eq\n      tag_4\n      jumpi\n      dup1\n      0x81bf4718\n      eq\n      tag_5\n      jumpi\n      dup1\n      0xe81bfa4c\n      eq\n      tag_6\n      jumpi\n    tag_2:\n      0x00\n      dup1\n      revert\n        /* \"20_proxyContracts/proxyFunc.sol\":714:812  function upgrade(address _currentAddress) public {... */\n    tag_3:\n      tag_7\n      0x04\n      dup1\n      calldatasize\n      sub\n      dup2\n      add\n      swap1\n      tag_8\n      swap2\n      swap1\n      tag_9\n      jump\t// in\n    tag_8:\n      tag_10\n      jump\t// in\n    tag_7:\n      stop\n        /* \"20_proxyContracts/proxyFunc.sol\":1069:1409  function set_func_proxy_storage(uint256 _value)... */\n    tag_4:\n      tag_11\n      0x04\n      dup1\n      calldatasize\n      sub\n      dup2\n      add\n      swap1\n      tag_12\n      swap2\n      swap1\n      tag_13\n      jump\t// in\n    tag_12:\n      tag_14\n      jump\t// in\n    tag_11:\n      mload(0x40)\n      tag_15\n      swap3\n      swap2\n      swap1\n      tag_16\n      jump\t// in\n    tag_15:\n      mload(0x40)\n      dup1\n      swap2\n      sub\n      swap1\n      return\n        /* \"20_proxyContracts/proxyFunc.sol\":586:615  address public currentAddress */\n    tag_5:\n      tag_17\n      tag_18\n      jump\t// in\n    tag_17:\n      mload(0x40)\n      tag_19\n      swap2\n      swap1\n      tag_20\n      jump\t// in\n    tag_19:\n      mload(0x40)\n      dup1\n      swap2\n      sub\n      swap1\n      return\n        /* \"20_proxyContracts/proxyFunc.sol\":818:1063  function get_func_proxy_storage() public returns (bool, bytes memory) {... */\n    tag_6:\n      tag_21\n      tag_22\n      jump\t// in\n    tag_21:\n      mload(0x40)\n      tag_23\n      swap3\n      swap2\n      swap1\n      tag_16\n      jump\t// in\n    tag_23:\n      mload(0x40)\n      dup1\n      swap2\n      sub\n      swap1\n      return\n        /* \"20_proxyContracts/proxyFunc.sol\":714:812  function upgrade(address _currentAddress) public {... */\n    tag_10:\n        /* \"20_proxyContracts/proxyFunc.sol\":790:805  _currentAddress */\n      dup1\n        /* \"20_proxyContracts/proxyFunc.sol\":773:787  currentAddress */\n      0x01\n      0x00\n        /* \"20_proxyContracts/proxyFunc.sol\":773:805  currentAddress = _currentAddress */\n      0x0100\n      exp\n      dup2\n      sload\n      dup2\n      0xffffffffffffffffffffffffffffffffffffffff\n      mul\n      not\n      and\n      swap1\n      dup4\n      0xffffffffffffffffffffffffffffffffffffffff\n      and\n      mul\n      or\n      swap1\n      sstore\n      pop\n        /* \"20_proxyContracts/proxyFunc.sol\":714:812  function upgrade(address _currentAddress) public {... */\n      pop\n      jump\t// out\n        /* \"20_proxyContracts/proxyFunc.sol\":1069:1409  function set_func_proxy_storage(uint256 _value)... */\n    tag_14:\n        /* \"20_proxyContracts/proxyFunc.sol\":1149:1153  bool */\n      0x00\n        /* \"20_proxyContracts/proxyFunc.sol\":1155:1167  bytes memory */\n      0x60\n        /* \"20_proxyContracts/proxyFunc.sol\":1184:1192  bool res */\n      0x00\n        /* \"20_proxyContracts/proxyFunc.sol\":1194:1211  bytes memory data */\n      dup1\n        /* \"20_proxyContracts/proxyFunc.sol\":1215:1229  currentAddress */\n      0x01\n      0x00\n      swap1\n      sload\n      swap1\n      0x0100\n      exp\n      swap1\n      div\n      0xffffffffffffffffffffffffffffffffffffffff\n      and\n        /* \"20_proxyContracts/proxyFunc.sol\":1215:1242  currentAddress.delegatecall */\n      0xffffffffffffffffffffffffffffffffffffffff\n      and\n        /* \"20_proxyContracts/proxyFunc.sol\":1344:1350  _value */\n      dup6\n        /* \"20_proxyContracts/proxyFunc.sol\":1256:1364  abi.encodeWithSignature(... */\n      add(0x24, mload(0x40))\n      tag_26\n      swap2\n      swap1\n      tag_27\n      jump\t// in\n    tag_26:\n      mload(0x40)\n      0x20\n      dup2\n      dup4\n      sub\n      sub\n      dup2\n      mstore\n      swap1\n      0x40\n      mstore\n      and(not(0xffffffffffffffffffffffffffffffffffffffffffffffffffffffff), 0x0b54675a00000000000000000000000000000000000000000000000000000000)\n      0x20\n      dup3\n      add\n      dup1\n      mload\n      0xffffffffffffffffffffffffffffffffffffffffffffffffffffffff\n      dup4\n      dup2\n      dup4\n      and\n      or\n      dup4\n      mstore\n      pop\n      pop\n      pop\n      pop\n        /* \"20_proxyContracts/proxyFunc.sol\":1215:1374  currentAddress.delegatecall(... */\n      mload(0x40)\n      tag_28\n      swap2\n      swap1\n      tag_29\n      jump\t// in\n    tag_28:\n      0x00\n      mload(0x40)\n      dup1\n      dup4\n      sub\n      dup2\n      dup6\n      gas\n      delegatecall\n      swap2\n      pop\n      pop\n      returndatasize\n      dup1\n      0x00\n      dup2\n      eq\n      tag_32\n      jumpi\n      mload(0x40)\n      swap2\n      pop\n      and(add(returndatasize, 0x3f), not(0x1f))\n      dup3\n      add\n      0x40\n      mstore\n      returndatasize\n      dup3\n      mstore\n      returndatasize\n      0x00\n      0x20\n      dup5\n      add\n      returndatacopy\n      jump(tag_31)\n    tag_32:\n      0x60\n      swap2\n      pop\n    tag_31:\n      pop\n        /* \"20_proxyContracts/proxyFunc.sol\":1183:1374  (bool res, bytes memory data) = currentAddress.delegatecall(... */\n      swap2\n      pop\n      swap2\n      pop\n        /* \"20_proxyContracts/proxyFunc.sol\":1392:1395  res */\n      dup2\n        /* \"20_proxyContracts/proxyFunc.sol\":1397:1401  data */\n      dup2\n        /* \"20_proxyContracts/proxyFunc.sol\":1384:1402  return (res, data) */\n      swap4\n      pop\n      swap4\n      pop\n      pop\n      pop\n        /* \"20_proxyContracts/proxyFunc.sol\":1069:1409  function set_func_proxy_storage(uint256 _value)... */\n      swap2\n      pop\n      swap2\n      jump\t// out\n        /* \"20_proxyContracts/proxyFunc.sol\":586:615  address public currentAddress */\n    tag_18:\n      0x01\n      0x00\n      swap1\n      sload\n      swap1\n      0x0100\n      exp\n      swap1\n      div\n      0xffffffffffffffffffffffffffffffffffffffff\n      and\n      dup2\n      jump\t// out\n        /* \"20_proxyContracts/proxyFunc.sol\":818:1063  function get_func_proxy_storage() public returns (bool, bytes memory) {... */\n    tag_22:\n        /* \"20_proxyContracts/proxyFunc.sol\":868:872  bool */\n      0x00\n        /* \"20_proxyContracts/proxyFunc.sol\":874:886  bytes memory */\n      0x60\n        /* \"20_proxyContracts/proxyFunc.sol\":899:907  bool res */\n      0x00\n        /* \"20_proxyContracts/proxyFunc.sol\":909:926  bytes memory data */\n      dup1\n        /* \"20_proxyContracts/proxyFunc.sol\":930:944  currentAddress */\n      0x01\n      0x00\n      swap1\n      sload\n      swap1\n      0x0100\n      exp\n      swap1\n      div\n      0xffffffffffffffffffffffffffffffffffffffff\n      and\n        /* \"20_proxyContracts/proxyFunc.sol\":930:957  currentAddress.delegatecall */\n      0xffffffffffffffffffffffffffffffffffffffff\n      and\n        /* \"20_proxyContracts/proxyFunc.sol\":971:1018  abi.encodeWithSignature((\"get_func_storage()\")) */\n      add(0x24, mload(0x40))\n      mload(0x40)\n      0x20\n      dup2\n      dup4\n      sub\n      sub\n      dup2\n      mstore\n      swap1\n      0x40\n      mstore\n      and(not(0xffffffffffffffffffffffffffffffffffffffffffffffffffffffff), 0x10ebf68800000000000000000000000000000000000000000000000000000000)\n      0x20\n      dup3\n      add\n      dup1\n      mload\n      0xffffffffffffffffffffffffffffffffffffffffffffffffffffffff\n      dup4\n      dup2\n      dup4\n      and\n      or\n      dup4\n      mstore\n      pop\n      pop\n      pop\n      pop\n        /* \"20_proxyContracts/proxyFunc.sol\":930:1028  currentAddress.delegatecall(... */\n      mload(0x40)\n      tag_34\n      swap2\n      swap1\n      tag_29\n      jump\t// in\n    tag_34:\n      0x00\n      mload(0x40)\n      dup1\n      dup4\n      sub\n      dup2\n      dup6\n      gas\n      delegatecall\n      swap2\n      pop\n      pop\n      returndatasize\n      dup1\n      0x00\n      dup2\n      eq\n      tag_37\n      jumpi\n      mload(0x40)\n      swap2\n      pop\n      and(add(returndatasize, 0x3f), not(0x1f))\n      dup3\n      add\n      0x40\n      mstore\n      returndatasize\n      dup3\n      mstore\n      returndatasize\n      0x00\n      0x20\n      dup5\n      add\n      returndatacopy\n      jump(tag_36)\n    tag_37:\n      0x60\n      swap2\n      pop\n    tag_36:\n      pop\n        /* \"20_proxyContracts/proxyFunc.sol\":898:1028  (bool res, bytes memory data) = currentAddress.delegatecall(... */\n      swap2\n      pop\n      swap2\n      pop\n        /* \"20_proxyContracts/proxyFunc.sol\":1046:1049  res */\n      dup2\n        /* \"20_proxyContracts/proxyFunc.sol\":1051:1055  data */\n      dup2\n        /* \"20_proxyContracts/proxyFunc.sol\":1038:1056  return (res, data) */\n      swap4\n      pop\n      swap4\n      pop\n      pop\n      pop\n        /* \"20_proxyContracts/proxyFunc.sol\":818:1063  function get_func_proxy_storage() public returns (bool, bytes memory) {... */\n      swap1\n      swap2\n      jump\t// out\n        /* \"#utility.yul\":7:146   */\n    tag_39:\n      0x00\n        /* \"#utility.yul\":91:97   */\n      dup2\n        /* \"#utility.yul\":78:98   */\n      calldataload\n        /* \"#utility.yul\":69:98   */\n      swap1\n      pop\n        /* \"#utility.yul\":107:140   */\n      tag_41\n        /* \"#utility.yul\":134:139   */\n      dup2\n        /* \"#utility.yul\":107:140   */\n      tag_42\n      jump\t// in\n    tag_41:\n        /* \"#utility.yul\":59:146   */\n      swap3\n      swap2\n      pop\n      pop\n      jump\t// out\n        /* \"#utility.yul\":152:291   */\n    tag_43:\n      0x00\n        /* \"#utility.yul\":236:242   */\n      dup2\n        /* \"#utility.yul\":223:243   */\n      calldataload\n        /* \"#utility.yul\":214:243   */\n      swap1\n      pop\n        /* \"#utility.yul\":252:285   */\n      tag_45\n        /* \"#utility.yul\":279:284   */\n      dup2\n        /* \"#utility.yul\":252:285   */\n      tag_46\n      jump\t// in\n    tag_45:\n        /* \"#utility.yul\":204:291   */\n      swap3\n      swap2\n      pop\n      pop\n      jump\t// out\n        /* \"#utility.yul\":297:559   */\n    tag_9:\n      0x00\n        /* \"#utility.yul\":405:407   */\n      0x20\n        /* \"#utility.yul\":393:402   */\n      dup3\n        /* \"#utility.yul\":384:391   */\n      dup5\n        /* \"#utility.yul\":380:403   */\n      sub\n        /* \"#utility.yul\":376:408   */\n      slt\n        /* \"#utility.yul\":373:375   */\n      iszero\n      tag_48\n      jumpi\n        /* \"#utility.yul\":421:422   */\n      0x00\n        /* \"#utility.yul\":418:419   */\n      dup1\n        /* \"#utility.yul\":411:423   */\n      revert\n        /* \"#utility.yul\":373:375   */\n    tag_48:\n        /* \"#utility.yul\":464:465   */\n      0x00\n        /* \"#utility.yul\":489:542   */\n      tag_49\n        /* \"#utility.yul\":534:541   */\n      dup5\n        /* \"#utility.yul\":525:531   */\n      dup3\n        /* \"#utility.yul\":514:523   */\n      dup6\n        /* \"#utility.yul\":510:532   */\n      add\n        /* \"#utility.yul\":489:542   */\n      tag_39\n      jump\t// in\n    tag_49:\n        /* \"#utility.yul\":479:542   */\n      swap2\n      pop\n        /* \"#utility.yul\":435:552   */\n      pop\n        /* \"#utility.yul\":363:559   */\n      swap3\n      swap2\n      pop\n      pop\n      jump\t// out\n        /* \"#utility.yul\":565:827   */\n    tag_13:\n      0x00\n        /* \"#utility.yul\":673:675   */\n      0x20\n        /* \"#utility.yul\":661:670   */\n      dup3\n        /* \"#utility.yul\":652:659   */\n      dup5\n        /* \"#utility.yul\":648:671   */\n      sub\n        /* \"#utility.yul\":644:676   */\n      slt\n        /* \"#utility.yul\":641:643   */\n      iszero\n      tag_51\n      jumpi\n        /* \"#utility.yul\":689:690   */\n      0x00\n        /* \"#utility.yul\":686:687   */\n      dup1\n        /* \"#utility.yul\":679:691   */\n      revert\n        /* \"#utility.yul\":641:643   */\n    tag_51:\n        /* \"#utility.yul\":732:733   */\n      0x00\n        /* \"#utility.yul\":757:810   */\n      tag_52\n        /* \"#utility.yul\":802:809   */\n      dup5\n        /* \"#utility.yul\":793:799   */\n      dup3\n        /* \"#utility.yul\":782:791   */\n      dup6\n        /* \"#utility.yul\":778:800   */\n      add\n        /* \"#utility.yul\":757:810   */\n      tag_43\n      jump\t// in\n    tag_52:\n        /* \"#utility.yul\":747:810   */\n      swap2\n      pop\n        /* \"#utility.yul\":703:820   */\n      pop\n        /* \"#utility.yul\":631:827   */\n      swap3\n      swap2\n      pop\n      pop\n      jump\t// out\n        /* \"#utility.yul\":833:951   */\n    tag_53:\n        /* \"#utility.yul\":920:944   */\n      tag_55\n        /* \"#utility.yul\":938:943   */\n      dup2\n        /* \"#utility.yul\":920:944   */\n      tag_56\n      jump\t// in\n    tag_55:\n        /* \"#utility.yul\":915:918   */\n      dup3\n        /* \"#utility.yul\":908:945   */\n      mstore\n        /* \"#utility.yul\":898:951   */\n      pop\n      pop\n      jump\t// out\n        /* \"#utility.yul\":957:1066   */\n    tag_57:\n        /* \"#utility.yul\":1038:1059   */\n      tag_59\n        /* \"#utility.yul\":1053:1058   */\n      dup2\n        /* \"#utility.yul\":1038:1059   */\n      tag_60\n      jump\t// in\n    tag_59:\n        /* \"#utility.yul\":1033:1036   */\n      dup3\n        /* \"#utility.yul\":1026:1060   */\n      mstore\n        /* \"#utility.yul\":1016:1066   */\n      pop\n      pop\n      jump\t// out\n        /* \"#utility.yul\":1072:1432   */\n    tag_61:\n      0x00\n        /* \"#utility.yul\":1186:1224   */\n      tag_63\n        /* \"#utility.yul\":1218:1223   */\n      dup3\n        /* \"#utility.yul\":1186:1224   */\n      tag_64\n      jump\t// in\n    tag_63:\n        /* \"#utility.yul\":1240:1310   */\n      tag_65\n        /* \"#utility.yul\":1303:1309   */\n      dup2\n        /* \"#utility.yul\":1298:1301   */\n      dup6\n        /* \"#utility.yul\":1240:1310   */\n      tag_66\n      jump\t// in\n    tag_65:\n        /* \"#utility.yul\":1233:1310   */\n      swap4\n      pop\n        /* \"#utility.yul\":1319:1371   */\n      tag_67\n        /* \"#utility.yul\":1364:1370   */\n      dup2\n        /* \"#utility.yul\":1359:1362   */\n      dup6\n        /* \"#utility.yul\":1352:1356   */\n      0x20\n        /* \"#utility.yul\":1345:1350   */\n      dup7\n        /* \"#utility.yul\":1341:1357   */\n      add\n        /* \"#utility.yul\":1319:1371   */\n      tag_68\n      jump\t// in\n    tag_67:\n        /* \"#utility.yul\":1396:1425   */\n      tag_69\n        /* \"#utility.yul\":1418:1424   */\n      dup2\n        /* \"#utility.yul\":1396:1425   */\n      tag_70\n      jump\t// in\n    tag_69:\n        /* \"#utility.yul\":1391:1394   */\n      dup5\n        /* \"#utility.yul\":1387:1426   */\n      add\n        /* \"#utility.yul\":1380:1426   */\n      swap2\n      pop\n        /* \"#utility.yul\":1162:1432   */\n      pop\n      swap3\n      swap2\n      pop\n      pop\n      jump\t// out\n        /* \"#utility.yul\":1438:1811   */\n    tag_71:\n      0x00\n        /* \"#utility.yul\":1570:1608   */\n      tag_73\n        /* \"#utility.yul\":1602:1607   */\n      dup3\n        /* \"#utility.yul\":1570:1608   */\n      tag_64\n      jump\t// in\n    tag_73:\n        /* \"#utility.yul\":1624:1712   */\n      tag_74\n        /* \"#utility.yul\":1705:1711   */\n      dup2\n        /* \"#utility.yul\":1700:1703   */\n      dup6\n        /* \"#utility.yul\":1624:1712   */\n      tag_75\n      jump\t// in\n    tag_74:\n        /* \"#utility.yul\":1617:1712   */\n      swap4\n      pop\n        /* \"#utility.yul\":1721:1773   */\n      tag_76\n        /* \"#utility.yul\":1766:1772   */\n      dup2\n        /* \"#utility.yul\":1761:1764   */\n      dup6\n        /* \"#utility.yul\":1754:1758   */\n      0x20\n        /* \"#utility.yul\":1747:1752   */\n      dup7\n        /* \"#utility.yul\":1743:1759   */\n      add\n        /* \"#utility.yul\":1721:1773   */\n      tag_68\n      jump\t// in\n    tag_76:\n        /* \"#utility.yul\":1798:1804   */\n      dup1\n        /* \"#utility.yul\":1793:1796   */\n      dup5\n        /* \"#utility.yul\":1789:1805   */\n      add\n        /* \"#utility.yul\":1782:1805   */\n      swap2\n      pop\n        /* \"#utility.yul\":1546:1811   */\n      pop\n      swap3\n      swap2\n      pop\n      pop\n      jump\t// out\n        /* \"#utility.yul\":1817:1935   */\n    tag_77:\n        /* \"#utility.yul\":1904:1928   */\n      tag_79\n        /* \"#utility.yul\":1922:1927   */\n      dup2\n        /* \"#utility.yul\":1904:1928   */\n      tag_80\n      jump\t// in\n    tag_79:\n        /* \"#utility.yul\":1899:1902   */\n      dup3\n        /* \"#utility.yul\":1892:1929   */\n      mstore\n        /* \"#utility.yul\":1882:1935   */\n      pop\n      pop\n      jump\t// out\n        /* \"#utility.yul\":1941:2212   */\n    tag_29:\n      0x00\n        /* \"#utility.yul\":2093:2186   */\n      tag_82\n        /* \"#utility.yul\":2182:2185   */\n      dup3\n        /* \"#utility.yul\":2173:2179   */\n      dup5\n        /* \"#utility.yul\":2093:2186   */\n      tag_71\n      jump\t// in\n    tag_82:\n        /* \"#utility.yul\":2086:2186   */\n      swap2\n      pop\n        /* \"#utility.yul\":2203:2206   */\n      dup2\n        /* \"#utility.yul\":2196:2206   */\n      swap1\n      pop\n        /* \"#utility.yul\":2075:2212   */\n      swap3\n      swap2\n      pop\n      pop\n      jump\t// out\n        /* \"#utility.yul\":2218:2440   */\n    tag_20:\n      0x00\n        /* \"#utility.yul\":2349:2351   */\n      0x20\n        /* \"#utility.yul\":2338:2347   */\n      dup3\n        /* \"#utility.yul\":2334:2352   */\n      add\n        /* \"#utility.yul\":2326:2352   */\n      swap1\n      pop\n        /* \"#utility.yul\":2362:2433   */\n      tag_84\n        /* \"#utility.yul\":2430:2431   */\n      0x00\n        /* \"#utility.yul\":2419:2428   */\n      dup4\n        /* \"#utility.yul\":2415:2432   */\n      add\n        /* \"#utility.yul\":2406:2412   */\n      dup5\n        /* \"#utility.yul\":2362:2433   */\n      tag_53\n      jump\t// in\n    tag_84:\n        /* \"#utility.yul\":2316:2440   */\n      swap3\n      swap2\n      pop\n      pop\n      jump\t// out\n        /* \"#utility.yul\":2446:2853   */\n    tag_16:\n      0x00\n        /* \"#utility.yul\":2617:2619   */\n      0x40\n        /* \"#utility.yul\":2606:2615   */\n      dup3\n        /* \"#utility.yul\":2602:2620   */\n      add\n        /* \"#utility.yul\":2594:2620   */\n      swap1\n      pop\n        /* \"#utility.yul\":2630:2695   */\n      tag_86\n        /* \"#utility.yul\":2692:2693   */\n      0x00\n        /* \"#utility.yul\":2681:2690   */\n      dup4\n        /* \"#utility.yul\":2677:2694   */\n      add\n        /* \"#utility.yul\":2668:2674   */\n      dup6\n        /* \"#utility.yul\":2630:2695   */\n      tag_57\n      jump\t// in\n    tag_86:\n        /* \"#utility.yul\":2742:2751   */\n      dup2\n        /* \"#utility.yul\":2736:2740   */\n      dup2\n        /* \"#utility.yul\":2732:2752   */\n      sub\n        /* \"#utility.yul\":2727:2729   */\n      0x20\n        /* \"#utility.yul\":2716:2725   */\n      dup4\n        /* \"#utility.yul\":2712:2730   */\n      add\n        /* \"#utility.yul\":2705:2753   */\n      mstore\n        /* \"#utility.yul\":2770:2846   */\n      tag_87\n        /* \"#utility.yul\":2841:2845   */\n      dup2\n        /* \"#utility.yul\":2832:2838   */\n      dup5\n        /* \"#utility.yul\":2770:2846   */\n      tag_61\n      jump\t// in\n    tag_87:\n        /* \"#utility.yul\":2762:2846   */\n      swap1\n      pop\n        /* \"#utility.yul\":2584:2853   */\n      swap4\n      swap3\n      pop\n      pop\n      pop\n      jump\t// out\n        /* \"#utility.yul\":2859:3081   */\n    tag_27:\n      0x00\n        /* \"#utility.yul\":2990:2992   */\n      0x20\n        /* \"#utility.yul\":2979:2988   */\n      dup3\n        /* \"#utility.yul\":2975:2993   */\n      add\n        /* \"#utility.yul\":2967:2993   */\n      swap1\n      pop\n        /* \"#utility.yul\":3003:3074   */\n      tag_89\n        /* \"#utility.yul\":3071:3072   */\n      0x00\n        /* \"#utility.yul\":3060:3069   */\n      dup4\n        /* \"#utility.yul\":3056:3073   */\n      add\n        /* \"#utility.yul\":3047:3053   */\n      dup5\n        /* \"#utility.yul\":3003:3074   */\n      tag_77\n      jump\t// in\n    tag_89:\n        /* \"#utility.yul\":2957:3081   */\n      swap3\n      swap2\n      pop\n      pop\n      jump\t// out\n        /* \"#utility.yul\":3087:3185   */\n    tag_64:\n      0x00\n        /* \"#utility.yul\":3172:3177   */\n      dup2\n        /* \"#utility.yul\":3166:3178   */\n      mload\n        /* \"#utility.yul\":3156:3178   */\n      swap1\n      pop\n        /* \"#utility.yul\":3145:3185   */\n      swap2\n      swap1\n      pop\n      jump\t// out\n        /* \"#utility.yul\":3191:3359   */\n    tag_66:\n      0x00\n        /* \"#utility.yul\":3308:3314   */\n      dup3\n        /* \"#utility.yul\":3303:3306   */\n      dup3\n        /* \"#utility.yul\":3296:3315   */\n      mstore\n        /* \"#utility.yul\":3348:3352   */\n      0x20\n        /* \"#utility.yul\":3343:3346   */\n      dup3\n        /* \"#utility.yul\":3339:3353   */\n      add\n        /* \"#utility.yul\":3324:3353   */\n      swap1\n      pop\n        /* \"#utility.yul\":3286:3359   */\n      swap3\n      swap2\n      pop\n      pop\n      jump\t// out\n        /* \"#utility.yul\":3365:3512   */\n    tag_75:\n      0x00\n        /* \"#utility.yul\":3503:3506   */\n      dup2\n        /* \"#utility.yul\":3488:3506   */\n      swap1\n      pop\n        /* \"#utility.yul\":3478:3512   */\n      swap3\n      swap2\n      pop\n      pop\n      jump\t// out\n        /* \"#utility.yul\":3518:3614   */\n    tag_56:\n      0x00\n        /* \"#utility.yul\":3584:3608   */\n      tag_94\n        /* \"#utility.yul\":3602:3607   */\n      dup3\n        /* \"#utility.yul\":3584:3608   */\n      tag_95\n      jump\t// in\n    tag_94:\n        /* \"#utility.yul\":3573:3608   */\n      swap1\n      pop\n        /* \"#utility.yul\":3563:3614   */\n      swap2\n      swap1\n      pop\n      jump\t// out\n        /* \"#utility.yul\":3620:3710   */\n    tag_60:\n      0x00\n        /* \"#utility.yul\":3697:3702   */\n      dup2\n        /* \"#utility.yul\":3690:3703   */\n      iszero\n        /* \"#utility.yul\":3683:3704   */\n      iszero\n        /* \"#utility.yul\":3672:3704   */\n      swap1\n      pop\n        /* \"#utility.yul\":3662:3710   */\n      swap2\n      swap1\n      pop\n      jump\t// out\n        /* \"#utility.yul\":3716:3842   */\n    tag_95:\n      0x00\n        /* \"#utility.yul\":3793:3835   */\n      0xffffffffffffffffffffffffffffffffffffffff\n        /* \"#utility.yul\":3786:3791   */\n      dup3\n        /* \"#utility.yul\":3782:3836   */\n      and\n        /* \"#utility.yul\":3771:3836   */\n      swap1\n      pop\n        /* \"#utility.yul\":3761:3842   */\n      swap2\n      swap1\n      pop\n      jump\t// out\n        /* \"#utility.yul\":3848:3925   */\n    tag_80:\n      0x00\n        /* \"#utility.yul\":3914:3919   */\n      dup2\n        /* \"#utility.yul\":3903:3919   */\n      swap1\n      pop\n        /* \"#utility.yul\":3893:3925   */\n      swap2\n      swap1\n      pop\n      jump\t// out\n        /* \"#utility.yul\":3931:4238   */\n    tag_68:\n        /* \"#utility.yul\":3999:4000   */\n      0x00\n        /* \"#utility.yul\":4009:4122   */\n    tag_100:\n        /* \"#utility.yul\":4023:4029   */\n      dup4\n        /* \"#utility.yul\":4020:4021   */\n      dup2\n        /* \"#utility.yul\":4017:4030   */\n      lt\n        /* \"#utility.yul\":4009:4122   */\n      iszero\n      tag_102\n      jumpi\n        /* \"#utility.yul\":4108:4109   */\n      dup1\n        /* \"#utility.yul\":4103:4106   */\n      dup3\n        /* \"#utility.yul\":4099:4110   */\n      add\n        /* \"#utility.yul\":4093:4111   */\n      mload\n        /* \"#utility.yul\":4089:4090   */\n      dup2\n        /* \"#utility.yul\":4084:4087   */\n      dup5\n        /* \"#utility.yul\":4080:4091   */\n      add\n        /* \"#utility.yul\":4073:4112   */\n      mstore\n        /* \"#utility.yul\":4045:4047   */\n      0x20\n        /* \"#utility.yul\":4042:4043   */\n      dup2\n        /* \"#utility.yul\":4038:4048   */\n      add\n        /* \"#utility.yul\":4033:4048   */\n      swap1\n      pop\n        /* \"#utility.yul\":4009:4122   */\n      jump(tag_100)\n    tag_102:\n        /* \"#utility.yul\":4140:4146   */\n      dup4\n        /* \"#utility.yul\":4137:4138   */\n      dup2\n        /* \"#utility.yul\":4134:4147   */\n      gt\n        /* \"#utility.yul\":4131:4133   */\n      iszero\n      tag_103\n      jumpi\n        /* \"#utility.yul\":4220:4221   */\n      0x00\n        /* \"#utility.yul\":4211:4217   */\n      dup5\n        /* \"#utility.yul\":4206:4209   */\n      dup5\n        /* \"#utility.yul\":4202:4218   */\n      add\n        /* \"#utility.yul\":4195:4222   */\n      mstore\n        /* \"#utility.yul\":4131:4133   */\n    tag_103:\n        /* \"#utility.yul\":3980:4238   */\n      pop\n      pop\n      pop\n      pop\n      jump\t// out\n        /* \"#utility.yul\":4244:4346   */\n    tag_70:\n      0x00\n        /* \"#utility.yul\":4336:4338   */\n      0x1f\n        /* \"#utility.yul\":4332:4339   */\n      not\n        /* \"#utility.yul\":4327:4329   */\n      0x1f\n        /* \"#utility.yul\":4320:4325   */\n      dup4\n        /* \"#utility.yul\":4316:4330   */\n      add\n        /* \"#utility.yul\":4312:4340   */\n      and\n        /* \"#utility.yul\":4302:4340   */\n      swap1\n      pop\n        /* \"#utility.yul\":4292:4346   */\n      swap2\n      swap1\n      pop\n      jump\t// out\n        /* \"#utility.yul\":4352:4474   */\n    tag_42:\n        /* \"#utility.yul\":4425:4449   */\n      tag_106\n        /* \"#utility.yul\":4443:4448   */\n      dup2\n        /* \"#utility.yul\":4425:4449   */\n      tag_56\n      jump\t// in\n    tag_106:\n        /* \"#utility.yul\":4418:4423   */\n      dup2\n        /* \"#utility.yul\":4415:4450   */\n      eq\n        /* \"#utility.yul\":4405:4407   */\n      tag_107\n      jumpi\n        /* \"#utility.yul\":4464:4465   */\n      0x00\n        /* \"#utility.yul\":4461:4462   */\n      dup1\n        /* \"#utility.yul\":4454:4466   */\n      revert\n        /* \"#utility.yul\":4405:4407   */\n    tag_107:\n        /* \"#utility.yul\":4395:4474   */\n      pop\n      jump\t// out\n        /* \"#utility.yul\":4480:4602   */\n    tag_46:\n        /* \"#utility.yul\":4553:4577   */\n      tag_109\n        /* \"#utility.yul\":4571:4576   */\n      dup2\n        /* \"#utility.yul\":4553:4577   */\n      tag_80\n      jump\t// in\n    tag_109:\n        /* \"#utility.yul\":4546:4551   */\n      dup2\n        /* \"#utility.yul\":4543:4578   */\n      eq\n        /* \"#utility.yul\":4533:4535   */\n      tag_110\n      jumpi\n        /* \"#utility.yul\":4592:4593   */\n      0x00\n        /* \"#utility.yul\":4589:4590   */\n      dup1\n        /* \"#utility.yul\":4582:4594   */\n      revert\n        /* \"#utility.yul\":4533:4535   */\n    tag_110:\n        /* \"#utility.yul\":4523:4602   */\n      pop\n      jump\t// out\n\n    auxdata: 0xa2646970667358221220e7336cbb278ba59ad7837da3ba3633ebd0ed8405cdb030fa32a0d1e0ed49a64864736f6c63430008000033\n}\n",
				"bytecode": {
					"linkReferences": {},
					"object": "608060405234801561001057600080fd5b506040516107493803806107498339818101604052810190610032919061008e565b80600160006101000a81548173ffffffffffffffffffffffffffffffffffffffff021916908373ffffffffffffffffffffffffffffffffffffffff16021790555050610100565b600081519050610088816100e9565b92915050565b6000602082840312156100a057600080fd5b60006100ae84828501610079565b91505092915050565b60006100c2826100c9565b9050919050565b600073ffffffffffffffffffffffffffffffffffffffff82169050919050565b6100f2816100b7565b81146100fd57600080fd5b50565b61063a8061010f6000396000f3fe608060405234801561001057600080fd5b506004361061004c5760003560e01c80630900f010146100515780631d22a3591461006d57806381bf47181461009e578063e81bfa4c146100bc575b600080fd5b61006b600480360381019061006691906103bd565b6100db565b005b610087600480360381019061008291906103e6565b61011f565b6040516100959291906104d8565b60405180910390f35b6100a661024c565b6040516100b391906104bd565b60405180910390f35b6100c4610272565b6040516100d29291906104d8565b60405180910390f35b80600160006101000a81548173ffffffffffffffffffffffffffffffffffffffff021916908373ffffffffffffffffffffffffffffffffffffffff16021790555050565b60006060600080600160009054906101000a900473ffffffffffffffffffffffffffffffffffffffff1673ffffffffffffffffffffffffffffffffffffffff16856040516024016101709190610508565b6040516020818303038152906040527f0b54675a000000000000000000000000000000000000000000000000000000007bffffffffffffffffffffffffffffffffffffffffffffffffffffffff19166020820180517bffffffffffffffffffffffffffffffffffffffffffffffffffffffff83818316178352505050506040516101fa91906104a6565b600060405180830381855af49150503d8060008114610235576040519150601f19603f3d011682016040523d82523d6000602084013e61023a565b606091505b50915091508181935093505050915091565b600160009054906101000a900473ffffffffffffffffffffffffffffffffffffffff1681565b60006060600080600160009054906101000a900473ffffffffffffffffffffffffffffffffffffffff1673ffffffffffffffffffffffffffffffffffffffff166040516024016040516020818303038152906040527f10ebf688000000000000000000000000000000000000000000000000000000007bffffffffffffffffffffffffffffffffffffffffffffffffffffffff19166020820180517bffffffffffffffffffffffffffffffffffffffffffffffffffffffff838183161783525050505060405161034291906104a6565b600060405180830381855af49150503d806000811461037d576040519150601f19603f3d011682016040523d82523d6000602084013e610382565b606091505b509150915081819350935050509091565b6000813590506103a2816105d6565b92915050565b6000813590506103b7816105ed565b92915050565b6000602082840312156103cf57600080fd5b60006103dd84828501610393565b91505092915050565b6000602082840312156103f857600080fd5b6000610406848285016103a8565b91505092915050565b6104188161054a565b82525050565b6104278161055c565b82525050565b600061043882610523565b610442818561052e565b9350610452818560208601610592565b61045b816105c5565b840191505092915050565b600061047182610523565b61047b818561053f565b935061048b818560208601610592565b80840191505092915050565b6104a081610588565b82525050565b60006104b28284610466565b915081905092915050565b60006020820190506104d2600083018461040f565b92915050565b60006040820190506104ed600083018561041e565b81810360208301526104ff818461042d565b90509392505050565b600060208201905061051d6000830184610497565b92915050565b600081519050919050565b600082825260208201905092915050565b600081905092915050565b600061055582610568565b9050919050565b60008115159050919050565b600073ffffffffffffffffffffffffffffffffffffffff82169050919050565b6000819050919050565b60005b838110156105b0578082015181840152602081019050610595565b838111156105bf576000848401525b50505050565b6000601f19601f8301169050919050565b6105df8161054a565b81146105ea57600080fd5b50565b6105f681610588565b811461060157600080fd5b5056fea2646970667358221220e7336cbb278ba59ad7837da3ba3633ebd0ed8405cdb030fa32a0d1e0ed49a64864736f6c63430008000033",
					"opcodes": "PUSH1 0x80 PUSH1 0x40 MSTORE CALLVALUE DUP1 ISZERO PUSH2 0x10 JUMPI PUSH1 0x0 DUP1 REVERT JUMPDEST POP PUSH1 0x40 MLOAD PUSH2 0x749 CODESIZE SUB DUP1 PUSH2 0x749 DUP4 CODECOPY DUP2 DUP2 ADD PUSH1 0x40 MSTORE DUP2 ADD SWAP1 PUSH2 0x32 SWAP2 SWAP1 PUSH2 0x8E JUMP JUMPDEST DUP1 PUSH1 0x1 PUSH1 0x0 PUSH2 0x100 EXP DUP2 SLOAD DUP2 PUSH20 0xFFFFFFFFFFFFFFFFFFFFFFFFFFFFFFFFFFFFFFFF MUL NOT AND SWAP1 DUP4 PUSH20 0xFFFFFFFFFFFFFFFFFFFFFFFFFFFFFFFFFFFFFFFF AND MUL OR SWAP1 SSTORE POP POP PUSH2 0x100 JUMP JUMPDEST PUSH1 0x0 DUP2 MLOAD SWAP1 POP PUSH2 0x88 DUP2 PUSH2 0xE9 JUMP JUMPDEST SWAP3 SWAP2 POP POP JUMP JUMPDEST PUSH1 0x0 PUSH1 0x20 DUP3 DUP5 SUB SLT ISZERO PUSH2 0xA0 JUMPI PUSH1 0x0 DUP1 REVERT JUMPDEST PUSH1 0x0 PUSH2 0xAE DUP5 DUP3 DUP6 ADD PUSH2 0x79 JUMP JUMPDEST SWAP2 POP POP SWAP3 SWAP2 POP POP JUMP JUMPDEST PUSH1 0x0 PUSH2 0xC2 DUP3 PUSH2 0xC9 JUMP JUMPDEST SWAP1 POP SWAP2 SWAP1 POP JUMP JUMPDEST PUSH1 0x0 PUSH20 0xFFFFFFFFFFFFFFFFFFFFFFFFFFFFFFFFFFFFFFFF DUP3 AND SWAP1 POP SWAP2 SWAP1 POP JUMP JUMPDEST PUSH2 0xF2 DUP2 PUSH2 0xB7 JUMP JUMPDEST DUP2 EQ PUSH2 0xFD JUMPI PUSH1 0x0 DUP1 REVERT JUMPDEST POP JUMP JUMPDEST PUSH2 0x63A DUP1 PUSH2 0x10F PUSH1 0x0 CODECOPY PUSH1 0x0 RETURN INVALID PUSH1 0x80 PUSH1 0x40 MSTORE CALLVALUE DUP1 ISZERO PUSH2 0x10 JUMPI PUSH1 0x0 DUP1 REVERT JUMPDEST POP PUSH1 0x4 CALLDATASIZE LT PUSH2 0x4C JUMPI PUSH1 0x0 CALLDATALOAD PUSH1 0xE0 SHR DUP1 PUSH4 0x900F010 EQ PUSH2 0x51 JUMPI DUP1 PUSH4 0x1D22A359 EQ PUSH2 0x6D JUMPI DUP1 PUSH4 0x81BF4718 EQ PUSH2 0x9E JUMPI DUP1 PUSH4 0xE81BFA4C EQ PUSH2 0xBC JUMPI JUMPDEST PUSH1 0x0 DUP1 REVERT JUMPDEST PUSH2 0x6B PUSH1 0x4 DUP1 CALLDATASIZE SUB DUP2 ADD SWAP1 PUSH2 0x66 SWAP2 SWAP1 PUSH2 0x3BD JUMP JUMPDEST PUSH2 0xDB JUMP JUMPDEST STOP JUMPDEST PUSH2 0x87 PUSH1 0x4 DUP1 CALLDATASIZE SUB DUP2 ADD SWAP1 PUSH2 0x82 SWAP2 SWAP1 PUSH2 0x3E6 JUMP JUMPDEST PUSH2 0x11F JUMP JUMPDEST PUSH1 0x40 MLOAD PUSH2 0x95 SWAP3 SWAP2 SWAP1 PUSH2 0x4D8 JUMP JUMPDEST PUSH1 0x40 MLOAD DUP1 SWAP2 SUB SWAP1 RETURN JUMPDEST PUSH2 0xA6 PUSH2 0x24C JUMP JUMPDEST PUSH1 0x40 MLOAD PUSH2 0xB3 SWAP2 SWAP1 PUSH2 0x4BD JUMP JUMPDEST PUSH1 0x40 MLOAD DUP1 SWAP2 SUB SWAP1 RETURN JUMPDEST PUSH2 0xC4 PUSH2 0x272 JUMP JUMPDEST PUSH1 0x40 MLOAD PUSH2 0xD2 SWAP3 SWAP2 SWAP1 PUSH2 0x4D8 JUMP JUMPDEST PUSH1 0x40 MLOAD DUP1 SWAP2 SUB SWAP1 RETURN JUMPDEST DUP1 PUSH1 0x1 PUSH1 0x0 PUSH2 0x100 EXP DUP2 SLOAD DUP2 PUSH20 0xFFFFFFFFFFFFFFFFFFFFFFFFFFFFFFFFFFFFFFFF MUL NOT AND SWAP1 DUP4 PUSH20 0xFFFFFFFFFFFFFFFFFFFFFFFFFFFFFFFFFFFFFFFF AND MUL OR SWAP1 SSTORE POP POP JUMP JUMPDEST PUSH1 0x0 PUSH1 0x60 PUSH1 0x0 DUP1 PUSH1 0x1 PUSH1 0x0 SWAP1 SLOAD SWAP1 PUSH2 0x100 EXP SWAP1 DIV PUSH20 0xFFFFFFFFFFFFFFFFFFFFFFFFFFFFFFFFFFFFFFFF AND PUSH20 0xFFFFFFFFFFFFFFFFFFFFFFFFFFFFFFFFFFFFFFFF AND DUP6 PUSH1 0x40 MLOAD PUSH1 0x24 ADD PUSH2 0x170 SWAP2 SWAP1 PUSH2 0x508 JUMP JUMPDEST PUSH1 0x40 MLOAD PUSH1 0x20 DUP2 DUP4 SUB SUB DUP2 MSTORE SWAP1 PUSH1 0x40 MSTORE PUSH32 0xB54675A00000000000000000000000000000000000000000000000000000000 PUSH28 0xFFFFFFFFFFFFFFFFFFFFFFFFFFFFFFFFFFFFFFFFFFFFFFFFFFFFFFFF NOT AND PUSH1 0x20 DUP3 ADD DUP1 MLOAD PUSH28 0xFFFFFFFFFFFFFFFFFFFFFFFFFFFFFFFFFFFFFFFFFFFFFFFFFFFFFFFF DUP4 DUP2 DUP4 AND OR DUP4 MSTORE POP POP POP POP PUSH1 0x40 MLOAD PUSH2 0x1FA SWAP2 SWAP1 PUSH2 0x4A6 JUMP JUMPDEST PUSH1 0x0 PUSH1 0x40 MLOAD DUP1 DUP4 SUB DUP2 DUP6 GAS DELEGATECALL SWAP2 POP POP RETURNDATASIZE DUP1 PUSH1 0x0 DUP2 EQ PUSH2 0x235 JUMPI PUSH1 0x40 MLOAD SWAP2 POP PUSH1 0x1F NOT PUSH1 0x3F RETURNDATASIZE ADD AND DUP3 ADD PUSH1 0x40 MSTORE RETURNDATASIZE DUP3 MSTORE RETURNDATASIZE PUSH1 0x0 PUSH1 0x20 DUP5 ADD RETURNDATACOPY PUSH2 0x23A JUMP JUMPDEST PUSH1 0x60 SWAP2 POP JUMPDEST POP SWAP2 POP SWAP2 POP DUP2 DUP2 SWAP4 POP SWAP4 POP POP POP SWAP2 POP SWAP2 JUMP JUMPDEST PUSH1 0x1 PUSH1 0x0 SWAP1 SLOAD SWAP1 PUSH2 0x100 EXP SWAP1 DIV PUSH20 0xFFFFFFFFFFFFFFFFFFFFFFFFFFFFFFFFFFFFFFFF AND DUP2 JUMP JUMPDEST PUSH1 0x0 PUSH1 0x60 PUSH1 0x0 DUP1 PUSH1 0x1 PUSH1 0x0 SWAP1 SLOAD SWAP1 PUSH2 0x100 EXP SWAP1 DIV PUSH20 0xFFFFFFFFFFFFFFFFFFFFFFFFFFFFFFFFFFFFFFFF AND PUSH20 0xFFFFFFFFFFFFFFFFFFFFFFFFFFFFFFFFFFFFFFFF AND PUSH1 0x40 MLOAD PUSH1 0x24 ADD PUSH1 0x40 MLOAD PUSH1 0x20 DUP2 DUP4 SUB SUB DUP2 MSTORE SWAP1 PUSH1 0x40 MSTORE PUSH32 0x10EBF68800000000000000000000000000000000000000000000000000000000 PUSH28 0xFFFFFFFFFFFFFFFFFFFFFFFFFFFFFFFFFFFFFFFFFFFFFFFFFFFFFFFF NOT AND PUSH1 0x20 DUP3 ADD DUP1 MLOAD PUSH28 0xFFFFFFFFFFFFFFFFFFFFFFFFFFFFFFFFFFFFFFFFFFFFFFFFFFFFFFFF DUP4 DUP2 DUP4 AND OR DUP4 MSTORE POP POP POP POP PUSH1 0x40 MLOAD PUSH2 0x342 SWAP2 SWAP1 PUSH2 0x4A6 JUMP JUMPDEST PUSH1 0x0 PUSH1 0x40 MLOAD DUP1 DUP4 SUB DUP2 DUP6 GAS DELEGATECALL SWAP2 POP POP RETURNDATASIZE DUP1 PUSH1 0x0 DUP2 EQ PUSH2 0x37D JUMPI PUSH1 0x40 MLOAD SWAP2 POP PUSH1 0x1F NOT PUSH1 0x3F RETURNDATASIZE ADD AND DUP3 ADD PUSH1 0x40 MSTORE RETURNDATASIZE DUP3 MSTORE RETURNDATASIZE PUSH1 0x0 PUSH1 0x20 DUP5 ADD RETURNDATACOPY PUSH2 0x382 JUMP JUMPDEST PUSH1 0x60 SWAP2 POP JUMPDEST POP SWAP2 POP SWAP2 POP DUP2 DUP2 SWAP4 POP SWAP4 POP POP POP SWAP1 SWAP2 JUMP JUMPDEST PUSH1 0x0 DUP2 CALLDATALOAD SWAP1 POP PUSH2 0x3A2 DUP2 PUSH2 0x5D6 JUMP JUMPDEST SWAP3 SWAP2 POP POP JUMP JUMPDEST PUSH1 0x0 DUP2 CALLDATALOAD SWAP1 POP PUSH2 0x3B7 DUP2 PUSH2 0x5ED JUMP JUMPDEST SWAP3 SWAP2 POP POP JUMP JUMPDEST PUSH1 0x0 PUSH1 0x20 DUP3 DUP5 SUB SLT ISZERO PUSH2 0x3CF JUMPI PUSH1 0x0 DUP1 REVERT JUMPDEST PUSH1 0x0 PUSH2 0x3DD DUP5 DUP3 DUP6 ADD PUSH2 0x393 JUMP JUMPDEST SWAP2 POP POP SWAP3 SWAP2 POP POP JUMP JUMPDEST PUSH1 0x0 PUSH1 0x20 DUP3 DUP5 SUB SLT ISZERO PUSH2 0x3F8 JUMPI PUSH1 0x0 DUP1 REVERT JUMPDEST PUSH1 0x0 PUSH2 0x406 DUP5 DUP3 DUP6 ADD PUSH2 0x3A8 JUMP JUMPDEST SWAP2 POP POP SWAP3 SWAP2 POP POP JUMP JUMPDEST PUSH2 0x418 DUP2 PUSH2 0x54A JUMP JUMPDEST DUP3 MSTORE POP POP JUMP JUMPDEST PUSH2 0x427 DUP2 PUSH2 0x55C JUMP JUMPDEST DUP3 MSTORE POP POP JUMP JUMPDEST PUSH1 0x0 PUSH2 0x438 DUP3 PUSH2 0x523 JUMP JUMPDEST PUSH2 0x442 DUP2 DUP6 PUSH2 0x52E JUMP JUMPDEST SWAP4 POP PUSH2 0x452 DUP2 DUP6 PUSH1 0x20 DUP7 ADD PUSH2 0x592 JUMP JUMPDEST PUSH2 0x45B DUP2 PUSH2 0x5C5 JUMP JUMPDEST DUP5 ADD SWAP2 POP POP SWAP3 SWAP2 POP POP JUMP JUMPDEST PUSH1 0x0 PUSH2 0x471 DUP3 PUSH2 0x523 JUMP JUMPDEST PUSH2 0x47B DUP2 DUP6 PUSH2 0x53F JUMP JUMPDEST SWAP4 POP PUSH2 0x48B DUP2 DUP6 PUSH1 0x20 DUP7 ADD PUSH2 0x592 JUMP JUMPDEST DUP1 DUP5 ADD SWAP2 POP POP SWAP3 SWAP2 POP POP JUMP JUMPDEST PUSH2 0x4A0 DUP2 PUSH2 0x588 JUMP JUMPDEST DUP3 MSTORE POP POP JUMP JUMPDEST PUSH1 0x0 PUSH2 0x4B2 DUP3 DUP5 PUSH2 0x466 JUMP JUMPDEST SWAP2 POP DUP2 SWAP1 POP SWAP3 SWAP2 POP POP JUMP JUMPDEST PUSH1 0x0 PUSH1 0x20 DUP3 ADD SWAP1 POP PUSH2 0x4D2 PUSH1 0x0 DUP4 ADD DUP5 PUSH2 0x40F JUMP JUMPDEST SWAP3 SWAP2 POP POP JUMP JUMPDEST PUSH1 0x0 PUSH1 0x40 DUP3 ADD SWAP1 POP PUSH2 0x4ED PUSH1 0x0 DUP4 ADD DUP6 PUSH2 0x41E JUMP JUMPDEST DUP2 DUP2 SUB PUSH1 0x20 DUP4 ADD MSTORE PUSH2 0x4FF DUP2 DUP5 PUSH2 0x42D JUMP JUMPDEST SWAP1 POP SWAP4 SWAP3 POP POP POP JUMP JUMPDEST PUSH1 0x0 PUSH1 0x20 DUP3 ADD SWAP1 POP PUSH2 0x51D PUSH1 0x0 DUP4 ADD DUP5 PUSH2 0x497 JUMP JUMPDEST SWAP3 SWAP2 POP POP JUMP JUMPDEST PUSH1 0x0 DUP2 MLOAD SWAP1 POP SWAP2 SWAP1 POP JUMP JUMPDEST PUSH1 0x0 DUP3 DUP3 MSTORE PUSH1 0x20 DUP3 ADD SWAP1 POP SWAP3 SWAP2 POP POP JUMP JUMPDEST PUSH1 0x0 DUP2 SWAP1 POP SWAP3 SWAP2 POP POP JUMP JUMPDEST PUSH1 0x0 PUSH2 0x555 DUP3 PUSH2 0x568 JUMP JUMPDEST SWAP1 POP SWAP2 SWAP1 POP JUMP JUMPDEST PUSH1 0x0 DUP2 ISZERO ISZERO SWAP1 POP SWAP2 SWAP1 POP JUMP JUMPDEST PUSH1 0x0 PUSH20 0xFFFFFFFFFFFFFFFFFFFFFFFFFFFFFFFFFFFFFFFF DUP3 AND SWAP1 POP SWAP2 SWAP1 POP JUMP JUMPDEST PUSH1 0x0 DUP2 SWAP1 POP SWAP2 SWAP1 POP JUMP JUMPDEST PUSH1 0x0 JUMPDEST DUP4 DUP2 LT ISZERO PUSH2 0x5B0 JUMPI DUP1 DUP3 ADD MLOAD DUP2 DUP5 ADD MSTORE PUSH1 0x20 DUP2 ADD SWAP1 POP PUSH2 0x595 JUMP JUMPDEST DUP4 DUP2 GT ISZERO PUSH2 0x5BF JUMPI PUSH1 0x0 DUP5 DUP5 ADD MSTORE JUMPDEST POP POP POP POP JUMP JUMPDEST PUSH1 0x0 PUSH1 0x1F NOT PUSH1 0x1F DUP4 ADD AND SWAP1 POP SWAP2 SWAP1 POP JUMP JUMPDEST PUSH2 0x5DF DUP2 PUSH2 0x54A JUMP JUMPDEST DUP2 EQ PUSH2 0x5EA JUMPI PUSH1 0x0 DUP1 REVERT JUMPDEST POP JUMP JUMPDEST PUSH2 0x5F6 DUP2 PUSH2 0x588 JUMP JUMPDEST DUP2 EQ PUSH2 0x601 JUMPI PUSH1 0x0 DUP1 REVERT JUMPDEST POP JUMP INVALID LOG2 PUSH5 0x6970667358 0x22 SLT KECCAK256 0xE7 CALLER PUSH13 0xBB278BA59AD7837DA3BA3633EB 0xD0 0xED DUP5 SDIV 0xCD 0xB0 ADDRESS STATICCALL ORIGIN LOG0 0xD1 0xE0 0xED 0x49 0xA6 0x48 PUSH5 0x736F6C6343 STOP ADDMOD STOP STOP CALLER "
				},
				"gasEstimates": {
					"creation": {
						"codeDepositCost": "318800",
						"executionCost": "infinite",
						"totalCost": "infinite"
					},
					"external": {
						"currentAddress()": "1236",
						"get_func_proxy_storage()": "infinite",
						"set_func_proxy_storage(uint256)": "infinite",
						"upgrade(address)": "21300"
					}
				},
				"methodIdentifiers": {
					"currentAddress()": "81bf4718",
					"get_func_proxy_storage()": "e81bfa4c",
					"set_func_proxy_storage(uint256)": "1d22a359",
					"upgrade(address)": "0900f010"
				}
			},
			"storageLayout": {
				"storage": [
					{
						"astId": 84,
						"contract": "20_proxyContracts/proxyFunc.sol:ProxyFunc",
						"label": "main_storage",
						"offset": 0,
						"slot": "0",
						"type": "t_uint256"
					},
					{
						"astId": 6,
						"contract": "20_proxyContracts/proxyFunc.sol:ProxyFunc",
						"label": "currentAddress",
						"offset": 0,
						"slot": "1",
						"type": "t_address"
					}
				],
				"types": {
					"t_address": {
						"encoding": "inplace",
						"label": "address",
						"numberOfBytes": "20"
					},
					"t_uint256": {
						"encoding": "inplace",
						"label": "uint256",
						"numberOfBytes": "32"
					}
				}
			},
			"userdoc": {
				"kind": "user",
				"methods": {},
				"version": 1
			}
		}
	}
}