{
	"20_proxyContracts/functional.sol": {
		"Functional": {
			"abi": [
				{
					"inputs": [],
					"name": "get_func_storage",
					"outputs": [
						{
							"internalType": "uint256",
							"name": "",
							"type": "uint256"
						}
					],
					"stateMutability": "view",
					"type": "function"
				},
				{
					"inputs": [
						{
							"internalType": "uint256",
							"name": "_value",
							"type": "uint256"
						}
					],
					"name": "set_func_storage",
					"outputs": [],
					"stateMutability": "nonpayable",
					"type": "function"
				}
			],
			"devdoc": {
				"kind": "dev",
				"methods": {},
				"version": 1
			},
			"evm": {
				"assembly": "    /* \"20_proxyContracts/functional.sol\":89:330  contract Functional is Storage {... */\n  mstore(0x40, 0x80)\n  callvalue\n  dup1\n  iszero\n  tag_1\n  jumpi\n  0x00\n  dup1\n  revert\ntag_1:\n  pop\n  dataSize(sub_0)\n  dup1\n  dataOffset(sub_0)\n  0x00\n  codecopy\n  0x00\n  return\nstop\n\nsub_0: assembly {\n        /* \"20_proxyContracts/functional.sol\":89:330  contract Functional is Storage {... */\n      mstore(0x40, 0x80)\n      callvalue\n      dup1\n      iszero\n      tag_1\n      jumpi\n      0x00\n      dup1\n      revert\n    tag_1:\n      pop\n      jumpi(tag_2, lt(calldatasize, 0x04))\n      shr(0xe0, calldataload(0x00))\n      dup1\n      0x0b54675a\n      eq\n      tag_3\n      jumpi\n      dup1\n      0x10ebf688\n      eq\n      tag_4\n      jumpi\n    tag_2:\n      0x00\n      dup1\n      revert\n        /* \"20_proxyContracts/functional.sol\":235:328  function set_func_storage(uint256 _value) public {... */\n    tag_3:\n      tag_5\n      0x04\n      dup1\n      calldatasize\n      sub\n      dup2\n      add\n      swap1\n      tag_6\n      swap2\n      swap1\n      tag_7\n      jump\t// in\n    tag_6:\n      tag_8\n      jump\t// in\n    tag_5:\n      stop\n        /* \"20_proxyContracts/functional.sol\":126:229  function get_func_storage() public view returns (uint256) {... */\n    tag_4:\n      tag_9\n      tag_10\n      jump\t// in\n    tag_9:\n      mload(0x40)\n      tag_11\n      swap2\n      swap1\n      tag_12\n      jump\t// in\n    tag_11:\n      mload(0x40)\n      dup1\n      swap2\n      sub\n      swap1\n      return\n        /* \"20_proxyContracts/functional.sol\":235:328  function set_func_storage(uint256 _value) public {... */\n    tag_8:\n        /* \"20_proxyContracts/functional.sol\":294:321  Storage.set_storage(_value) */\n      tag_14\n        /* \"20_proxyContracts/functional.sol\":314:320  _value */\n      dup2\n        /* \"20_proxyContracts/functional.sol\":294:313  Storage.set_storage */\n      tag_15\n        /* \"20_proxyContracts/functional.sol\":294:321  Storage.set_storage(_value) */\n      jump\t// in\n    tag_14:\n        /* \"20_proxyContracts/functional.sol\":235:328  function set_func_storage(uint256 _value) public {... */\n      pop\n      jump\t// out\n        /* \"20_proxyContracts/functional.sol\":126:229  function get_func_storage() public view returns (uint256) {... */\n    tag_10:\n        /* \"20_proxyContracts/functional.sol\":175:182  uint256 */\n      0x00\n        /* \"20_proxyContracts/functional.sol\":201:222  Storage.get_storage() */\n      tag_17\n        /* \"20_proxyContracts/functional.sol\":201:220  Storage.get_storage */\n      tag_18\n        /* \"20_proxyContracts/functional.sol\":201:222  Storage.get_storage() */\n      jump\t// in\n    tag_17:\n        /* \"20_proxyContracts/functional.sol\":194:222  return Storage.get_storage() */\n      swap1\n      pop\n        /* \"20_proxyContracts/functional.sol\":126:229  function get_func_storage() public view returns (uint256) {... */\n      swap1\n      jump\t// out\n        /* \"20_proxyContracts/storage.sol\":211:295  function set_storage(uint256 _value) internal {... */\n    tag_15:\n        /* \"20_proxyContracts/storage.sol\":282:288  _value */\n      dup1\n        /* \"20_proxyContracts/storage.sol\":267:279  main_storage */\n      0x00\n        /* \"20_proxyContracts/storage.sol\":267:288  main_storage = _value */\n      dup2\n      swap1\n      sstore\n      pop\n        /* \"20_proxyContracts/storage.sol\":211:295  function set_storage(uint256 _value) internal {... */\n      pop\n      jump\t// out\n        /* \"20_proxyContracts/storage.sol\":114:205  function get_storage() internal view returns (uint256) {... */\n    tag_18:\n        /* \"20_proxyContracts/storage.sol\":160:167  uint256 */\n      0x00\n        /* \"20_proxyContracts/storage.sol\":186:198  main_storage */\n      dup1\n      sload\n        /* \"20_proxyContracts/storage.sol\":179:198  return main_storage */\n      swap1\n      pop\n        /* \"20_proxyContracts/storage.sol\":114:205  function get_storage() internal view returns (uint256) {... */\n      swap1\n      jump\t// out\n        /* \"#utility.yul\":7:146   */\n    tag_22:\n      0x00\n        /* \"#utility.yul\":91:97   */\n      dup2\n        /* \"#utility.yul\":78:98   */\n      calldataload\n        /* \"#utility.yul\":69:98   */\n      swap1\n      pop\n        /* \"#utility.yul\":107:140   */\n      tag_24\n        /* \"#utility.yul\":134:139   */\n      dup2\n        /* \"#utility.yul\":107:140   */\n      tag_25\n      jump\t// in\n    tag_24:\n        /* \"#utility.yul\":59:146   */\n      swap3\n      swap2\n      pop\n      pop\n      jump\t// out\n        /* \"#utility.yul\":152:414   */\n    tag_7:\n      0x00\n        /* \"#utility.yul\":260:262   */\n      0x20\n        /* \"#utility.yul\":248:257   */\n      dup3\n        /* \"#utility.yul\":239:246   */\n      dup5\n        /* \"#utility.yul\":235:258   */\n      sub\n        /* \"#utility.yul\":231:263   */\n      slt\n        /* \"#utility.yul\":228:230   */\n      iszero\n      tag_27\n      jumpi\n        /* \"#utility.yul\":276:277   */\n      0x00\n        /* \"#utility.yul\":273:274   */\n      dup1\n        /* \"#utility.yul\":266:278   */\n      revert\n        /* \"#utility.yul\":228:230   */\n    tag_27:\n        /* \"#utility.yul\":319:320   */\n      0x00\n        /* \"#utility.yul\":344:397   */\n      tag_28\n        /* \"#utility.yul\":389:396   */\n      dup5\n        /* \"#utility.yul\":380:386   */\n      dup3\n        /* \"#utility.yul\":369:378   */\n      dup6\n        /* \"#utility.yul\":365:387   */\n      add\n        /* \"#utility.yul\":344:397   */\n      tag_22\n      jump\t// in\n    tag_28:\n        /* \"#utility.yul\":334:397   */\n      swap2\n      pop\n        /* \"#utility.yul\":290:407   */\n      pop\n        /* \"#utility.yul\":218:414   */\n      swap3\n      swap2\n      pop\n      pop\n      jump\t// out\n        /* \"#utility.yul\":420:538   */\n    tag_29:\n        /* \"#utility.yul\":507:531   */\n      tag_31\n        /* \"#utility.yul\":525:530   */\n      dup2\n        /* \"#utility.yul\":507:531   */\n      tag_32\n      jump\t// in\n    tag_31:\n        /* \"#utility.yul\":502:505   */\n      dup3\n        /* \"#utility.yul\":495:532   */\n      mstore\n        /* \"#utility.yul\":485:538   */\n      pop\n      pop\n      jump\t// out\n        /* \"#utility.yul\":544:766   */\n    tag_12:\n      0x00\n        /* \"#utility.yul\":675:677   */\n      0x20\n        /* \"#utility.yul\":664:673   */\n      dup3\n        /* \"#utility.yul\":660:678   */\n      add\n        /* \"#utility.yul\":652:678   */\n      swap1\n      pop\n        /* \"#utility.yul\":688:759   */\n      tag_34\n        /* \"#utility.yul\":756:757   */\n      0x00\n        /* \"#utility.yul\":745:754   */\n      dup4\n        /* \"#utility.yul\":741:758   */\n      add\n        /* \"#utility.yul\":732:738   */\n      dup5\n        /* \"#utility.yul\":688:759   */\n      tag_29\n      jump\t// in\n    tag_34:\n        /* \"#utility.yul\":642:766   */\n      swap3\n      swap2\n      pop\n      pop\n      jump\t// out\n        /* \"#utility.yul\":772:849   */\n    tag_32:\n      0x00\n        /* \"#utility.yul\":838:843   */\n      dup2\n        /* \"#utility.yul\":827:843   */\n      swap1\n      pop\n        /* \"#utility.yul\":817:849   */\n      swap2\n      swap1\n      pop\n      jump\t// out\n        /* \"#utility.yul\":855:977   */\n    tag_25:\n        /* \"#utility.yul\":928:952   */\n      tag_37\n        /* \"#utility.yul\":946:951   */\n      dup2\n        /* \"#utility.yul\":928:952   */\n      tag_32\n      jump\t// in\n    tag_37:\n        /* \"#utility.yul\":921:926   */\n      dup2\n        /* \"#utility.yul\":918:953   */\n      eq\n        /* \"#utility.yul\":908:910   */\n      tag_38\n      jumpi\n        /* \"#utility.yul\":967:968   */\n      0x00\n        /* \"#utility.yul\":964:965   */\n      dup1\n        /* \"#utility.yul\":957:969   */\n      revert\n        /* \"#utility.yul\":908:910   */\n    tag_38:\n        /* \"#utility.yul\":898:977   */\n      pop\n      jump\t// out\n\n    auxdata: 0xa2646970667358221220ba931c931bf09e1580fbc471f19d6bdb75cd296f998860677c27fb59065878ff64736f6c63430008000033\n}\n",
				"bytecode": {
					"linkReferences": {},
					"object": "608060405234801561001057600080fd5b50610162806100206000396000f3fe608060405234801561001057600080fd5b50600436106100365760003560e01c80630b54675a1461003b57806310ebf68814610057575b600080fd5b610055600480360381019061005091906100b8565b610075565b005b61005f610081565b60405161006c91906100f0565b60405180910390f35b61007e81610090565b50565b600061008b61009a565b905090565b8060008190555050565b60008054905090565b6000813590506100b281610115565b92915050565b6000602082840312156100ca57600080fd5b60006100d8848285016100a3565b91505092915050565b6100ea8161010b565b82525050565b600060208201905061010560008301846100e1565b92915050565b6000819050919050565b61011e8161010b565b811461012957600080fd5b5056fea2646970667358221220ba931c931bf09e1580fbc471f19d6bdb75cd296f998860677c27fb59065878ff64736f6c63430008000033",
					"opcodes": "PUSH1 0x80 PUSH1 0x40 MSTORE CALLVALUE DUP1 ISZERO PUSH2 0x10 JUMPI PUSH1 0x0 DUP1 REVERT JUMPDEST POP PUSH2 0x162 DUP1 PUSH2 0x20 PUSH1 0x0 CODECOPY PUSH1 0x0 RETURN INVALID PUSH1 0x80 PUSH1 0x40 MSTORE CALLVALUE DUP1 ISZERO PUSH2 0x10 JUMPI PUSH1 0x0 DUP1 REVERT JUMPDEST POP PUSH1 0x4 CALLDATASIZE LT PUSH2 0x36 JUMPI PUSH1 0x0 CALLDATALOAD PUSH1 0xE0 SHR DUP1 PUSH4 0xB54675A EQ PUSH2 0x3B JUMPI DUP1 PUSH4 0x10EBF688 EQ PUSH2 0x57 JUMPI JUMPDEST PUSH1 0x0 DUP1 REVERT JUMPDEST PUSH2 0x55 PUSH1 0x4 DUP1 CALLDATASIZE SUB DUP2 ADD SWAP1 PUSH2 0x50 SWAP2 SWAP1 PUSH2 0xB8 JUMP JUMPDEST PUSH2 0x75 JUMP JUMPDEST STOP JUMPDEST PUSH2 0x5F PUSH2 0x81 JUMP JUMPDEST PUSH1 0x40 MLOAD PUSH2 0x6C SWAP2 SWAP1 PUSH2 0xF0 JUMP JUMPDEST PUSH1 0x40 MLOAD DUP1 SWAP2 SUB SWAP1 RETURN JUMPDEST PUSH2 0x7E DUP2 PUSH2 0x90 JUMP JUMPDEST POP JUMP JUMPDEST PUSH1 0x0 PUSH2 0x8B PUSH2 0x9A JUMP JUMPDEST SWAP1 POP SWAP1 JUMP JUMPDEST DUP1 PUSH1 0x0 DUP2 SWAP1 SSTORE POP POP JUMP JUMPDEST PUSH1 0x0 DUP1 SLOAD SWAP1 POP SWAP1 JUMP JUMPDEST PUSH1 0x0 DUP2 CALLDATALOAD SWAP1 POP PUSH2 0xB2 DUP2 PUSH2 0x115 JUMP JUMPDEST SWAP3 SWAP2 POP POP JUMP JUMPDEST PUSH1 0x0 PUSH1 0x20 DUP3 DUP5 SUB SLT ISZERO PUSH2 0xCA JUMPI PUSH1 0x0 DUP1 REVERT JUMPDEST PUSH1 0x0 PUSH2 0xD8 DUP5 DUP3 DUP6 ADD PUSH2 0xA3 JUMP JUMPDEST SWAP2 POP POP SWAP3 SWAP2 POP POP JUMP JUMPDEST PUSH2 0xEA DUP2 PUSH2 0x10B JUMP JUMPDEST DUP3 MSTORE POP POP JUMP JUMPDEST PUSH1 0x0 PUSH1 0x20 DUP3 ADD SWAP1 POP PUSH2 0x105 PUSH1 0x0 DUP4 ADD DUP5 PUSH2 0xE1 JUMP JUMPDEST SWAP3 SWAP2 POP POP JUMP JUMPDEST PUSH1 0x0 DUP2 SWAP1 POP SWAP2 SWAP1 POP JUMP JUMPDEST PUSH2 0x11E DUP2 PUSH2 0x10B JUMP JUMPDEST DUP2 EQ PUSH2 0x129 JUMPI PUSH1 0x0 DUP1 REVERT JUMPDEST POP JUMP INVALID LOG2 PUSH5 0x6970667358 0x22 SLT KECCAK256 0xBA SWAP4 SHR SWAP4 SHL CREATE SWAP15 ISZERO DUP1 0xFB 0xC4 PUSH18 0xF19D6BDB75CD296F998860677C27FB590658 PUSH25 0xFF64736F6C6343000800003300000000000000000000000000 "
				},
				"gasEstimates": {
					"creation": {
						"codeDepositCost": "70800",
						"executionCost": "123",
						"totalCost": "70923"
					},
					"external": {
						"get_func_storage()": "1172",
						"set_func_storage(uint256)": "20427"
					}
				},
				"methodIdentifiers": {
					"get_func_storage()": "10ebf688",
					"set_func_storage(uint256)": "0b54675a"
				}
			},
			"storageLayout": {
				"storage": [
					{
						"astId": 31,
						"contract": "20_proxyContracts/functional.sol:Functional",
						"label": "main_storage",
						"offset": 0,
						"slot": "0",
						"type": "t_uint256"
					}
				],
				"types": {
					"t_uint256": {
						"encoding": "inplace",
						"label": "uint256",
						"numberOfBytes": "32"
					}
				}
			},
			"userdoc": {
				"kind": "user",
				"methods": {},
				"version": 1
			}
		}
	}
}